:020000040800F2
:1000000000048038FD030008FF030008FF03000818
:10001000FF030008FF030008FF030008FF030008B8
:10002000FF030008FF030008FF030008595C0008F5
:10003000FF030008FF030008FF030008FF03000898
:10004000FF030008FF030008FF030008FF03000888
:10005000FF030008FF030008FF030008FF03000878
:10006000FF030008FF030008FF030008ED2300085A
:1000700025240008612400089D240008D9240008D4
:10008000112500084D250008BD1F0008FF030008CA
:10009000FF030008FF030008FF030008FF03000838
:1000A000FF030008FF030008FF030008FF03000828
:1000B000F1170008FF030008FF030008FF03000812
:1000C000FF030008FF030008FF03000815420008B3
:1000D0007D420008FF030008FF030008C91700085D
:1000E000FF030008FF030008FF03000811180008C1
:1000F0002D180008551800087118000889250008F7
:10010000FF030008A1170008FF030008E5420008EC
:10011000FF030008FF030008FF030008FF030008B7
:10012000C5250008FD2500083926000875260008A9
:10013000B1260008FF030008FF030008FF030008C2
:10014000FF030008FF030008FF030008FF03000887
:10015000E92600082527000861270008FF0300089A
:10016000752A0008492C0008FF030008FF03000857
:10017000FF03000839360008FF030008FF030008EA
:10018000FF030008FF030008FF030008FF03000847
:100190004D430008B54300081D440008FF03000854
:1001A000FF030008FF030008FF030008FF03000827
:1001B000FF030008FF030008FF030008FF03000817
:1001C000FF030008FF030008FF030008FF03000807
:1001D000FF03000811360008FF030008FF030008B2
:1001E000FF030008FF030008FF030008FF030008E7
:1001F000FF030008FF030008FF030008FF030008D7
:10020000FF030008FF030008FF030008FF030008C6
:10021000FF030008FF030008FF030008FF030008B6
:10022000FF030008FF030008FF030008FF030008A6
:10023000FF030008FF030008FF030008ED1F00088C
:10024000FF030008CD200008052100084121000817
:100250007D210008B9210008F5210008312200089D
:100260006D220008FF030008FF030008FF030008D9
:10027000FF030008FF030008FF030008FF03000856
:10028000FF030008FF030008FF030008FF03000846
:10029000FF030008FF030008FF030008FF03000836
:1002A000FF030008FF030008FF030008FF03000826
:1002B000FF030008FF030008FF030008FF03000816
:1002C000FF030008FF030008FF030008FF03000806
:1002D000FF030008FF030008FF030008FF030008F6
:1002E00072B6374880F30888364880F30988364864
:1002F0003649086040F20000CCF200004EF634713E
:10030000CEF200010860BFF34F8FBFF36F8F40F252
:100310000000C0F2F0004EF68851CEF200010860F5
:10032000BFF34F8FBFF36F8F4FF00000E1EE100A65
:100330004EF63C71CEF200010860022080F3148872
:10034000BFF36F8F00F02CF904F0E2FC4FF0553052
:100350001F491B4A91423CBF41F8040BFAE71D4973
:10036000184A91423CBF41F8040BFAE71A491B4A6C
:100370001B4B9A423EBF51F8040B42F8040BF8E7BE
:1003800000201849184A91423CBF41F8040BFAE793
:1003900000F062F900F05CF9144C154DAC4203DA40
:1003A00054F8041B8847F9E705F0CAFC114C124DBC
:1003B000AC4203DA54F8041B8847F9E700F04AB965
:1003C00000048038000880380000000808ED00E0D4
:1003D0000000803800048038D47400080000002435
:1003E0000000002400000024E01B0024E0020008BC
:1003F000E0020008E0020008E002000870E700F0F8
:1004000000F8FEE72DE9F04F2DED108AC1F80CD071
:10041000D0F80CD0BDEC108ABDE8F08F002383F338
:1004200011882846A047002005F006FAFEE705F0EF
:10043000B7F800DFFEE7000053B94AB9002908BF4A
:1004400000281CBF4FF0FF314FF0FF3000F00CB818
:10045000ADF1080C6DE904CE06F0AEFADDF804E06B
:10046000DDE9022304B07047704700BF844641EACB
:10047000000313F003036DD1403A41D351F8043B1C
:1004800040F8043B51F8043B40F8043B51F8043B6E
:1004900040F8043B51F8043B40F8043B51F8043B5E
:1004A00040F8043B51F8043B40F8043B51F8043B4E
:1004B00040F8043B51F8043B40F8043B51F8043B3E
:1004C00040F8043B51F8043B40F8043B51F8043B2E
:1004D00040F8043B51F8043B40F8043B51F8043B1E
:1004E00040F8043B51F8043B40F8043B51F8043B0E
:1004F00040F8043B51F8043B40F8043B403ABDD27D
:10050000303211D351F8043B40F8043B51F8043B1E
:1005100040F8043B51F8043B40F8043B51F8043BDD
:1005200040F8043B103AEDD20C3205D351F8043BAD
:1005300040F8043B043AF9D2043208D0D2071CBF79
:1005400011F8013B00F8013B01D30B8803806046A2
:10055000704700BF082A13D38B078DD010F0030318
:100560008AD0C3F10403D21ADB071CBF11F8013B88
:1005700000F8013B80D331F8023B20F8023B7BE7D7
:10058000043AD9D3013A11F8013B00F8013BF9D202
:100590000B7803704B7843708B788370604670479C
:1005A00010B584B0012406F0B9F92649264A4FF067
:1005B00001236846ADF800400393CDE9011206F02F
:1005C000CBF9042006F0B8F9BFF34F8FBFF36F8F5C
:1005D0001E480022C0F85022BFF34F8FBFF36F8F29
:1005E000436943F400334361BFF34F8FBFF36F8F11
:1005F000C0F88420BFF34F8FD0F8803043F6E0740A
:10060000C3F34E3CC3F3C90E4FEA4C1C0CEA040181
:10061000734641EA8372013BC0F860225A1CF8D14C
:10062000ACF1200C1CF1200FF0D1BFF34F8F4369C8
:1006300043F480334361BFF34F8FBFF36F8F04B038
:1006400010BD00BF000004300E00000300ED00E00C
:10065000704700BFFEE700BFF8B52B4D2B4F2C496C
:1006600005F170042B482C4A88420DD2043A034607
:1006700052F8046F43F8046B8B42F9D34B1E1B1ADC
:1006800023F0030304331844B84207D2013F00218A
:100690003F1A27F00302043206F0F2FAA54205D011
:1006A000D5E90420D5E906171035DDE71B480023FE
:1006B000C0F88430BFF34F8FD0F8805043F6E07617
:1006C000C5F34E34C5F3C905640104EA06012B469F
:1006D00041EA8372013BC0F86C225A1CF8D1203CDD
:1006E00014F1200FF1D1BFF34F8FBFF36F8FBFF322
:1006F0004F8FBFF36F8F0023C0F85032BFF34F8F7F
:10070000BFF36F8FF8BD00BF286D0008E01B002409
:10071000E01B0024E01B0024D474000800ED00E07E
:1007200008B501F0DDF802F02FF900F007FA00F04B
:100730003BFA00F043FA00F0C9FC00F08BFC00F03B
:10074000F5FC00F049FD00F0EFFC04F0F7FBBDE81C
:10075000084000F001B800BF04F0A6B94FF0804394
:10076000586A70474FF08043002102225863196194
:10077000DA6070474FF080430022DA60704700BFB4
:100780004FF0804358637047F8B5154682680446B9
:100790000B46AA4200D28568A1692669761AB5423D
:1007A00018D30AD82A461846FFF760FEE268A36805
:1007B0002846A2615B1BA360F8BDAF1B32461846FA
:1007C000FFF754FE3A463044E168FFF74FFEE26817
:1007D0003A44ECE72A461846FFF748FEA2692A4445
:1007E000E5E700BF836893422DE9F041044688465F
:1007F00012D28568D4E90460361AB54212D318D8EB
:100800002A464146FFF732FEE268A3682846626145
:100810005B1BA360BDE8F081D4E904601546361A7D
:10082000B542ECD22A464146FFF720FE62692A44CF
:10083000EBE7AF1B32464146FFF718FE3A4608EB9E
:100840000601E068FFF712FEE2683A44DDE700BF08
:10085000F8B504460D461F46164605F039F8069BC6
:100860002E44E76123620023C4E90356C4E9055519
:10087000A360F8BDD0E90532934211D0826810B56B
:1008800001325C1C826044611970D0E904329A42E2
:1008900001D3C3684361002105F032F8002010BD88
:1008A0008268002AEAD04FF0FF30704770B53023DD
:1008B00005460E4683F3118803E005F00DF8002885
:1008C00019DBAC6831462846002CF6D0AB68A96924
:1008D000013B4A1CAB602B69AA619A420C7801D398
:1008E000EB68AB61EB690BB128469847002383F3B3
:1008F0001188204670BD84F3118870BD2DE9F04F3A
:1009000083B09A46C6693027019287F31188CAB12D
:1009100083460D46DDF804904FF000084A4629460C
:100920005846FFF731FF0446584694B106B1B04728
:1009300088F31188A9EB0409254487F31188B9F1DC
:10094000000FEBD10198002383F3118803B0BDE8B9
:10095000F08F514604F0C0FF0028DFD0019BA3EBCD
:100960000900002383F3118803B0BDE8F08F00BFB6
:10097000F8B504460D4616461F4604F0A9FF069B2F
:10098000A6602E44E7612362C4E90356C4E9055515
:10099000F8BD00BFF8B5302304460F46164683F372
:1009A000118803E004F098FF002819DBA5683146A0
:1009B0002046002DF6D06269A368511C013B61619D
:1009C000A3601770D4E904329A4201D3E3686361EB
:1009D000E3690BB120469847002080F31188F8BDE9
:1009E00085F31188F8BD00BFD0E905239A4210D0E5
:1009F0008268591C013210B5816182601C780369DC
:100A0000994201D3C3688361002104F079FF204635
:100A100010BD8268002AEBD04FF0FF30704700BF56
:100A20002DE9F04F83B09A46C6693027019287F3CB
:100A30001188CAB183460D46DDF804904FF00008D6
:100A40004A4629465846FFF7CDFE0446584694B11B
:100A500006B1B04788F31188A9EB0409254487F350
:100A60001188B9F1000FEBD10198002383F31188AD
:100A700003B0BDE8F08F514604F02EFF0028DFD010
:100A8000019BA3EB0900002383F3118803B0BDE8A9
:100A9000F08F00BF01F01F0C012349090CF1010C7C
:100AA000B1EB521F03FA0CF310B503F1FF334FEA19
:100AB000521402F01F0E05D850F82400184020FAF6
:100AC0000EF010BD50F8211050F8242003EA010068
:100AD000CEF1200122FA0EF38840184310BD00BF6A
:100AE000C3689B0F08D08368C288180400F47C1088
:100AF0001043013080027047826840F6FC73416801
:100B000003EA8200C2F30342C1F3C23340EA9170A8
:100B1000093A0233013098409040704790F8D6303F
:100B200090F8D7101B0490F8D42090F8D50003EB70
:100B30000163134403EB0020704700BF01F03EB88F
:100B400003460022012118305A611970C3E90122BD
:100B5000C3E9032204F018BF10B53023044683F321
:100B60001188416001F0B4F80023984214BF0122BB
:100B70000222227083F3118810BD00BF10B530240B
:100B800084F31188044682600322C0E9033104F82B
:100B9000142B01F03DF94FF0FF31204604F080FEA8
:100BA000002383F3118810BD02F0AEB80346012183
:100BB00000220C3019705A6004F0E6BE03F0B4BF96
:100BC0000023012243600270C3600374704700BFBA
:100BD0000379052B06D1826A4FF400730020C1E926
:100BE000003270470120704770B5124E82B0044643
:100BF0000D4611E002F06CFE03460A20BBB9019AD3
:100C0000C2F343213242A1F105020FD104290ED0D3
:100C1000022A0BD804F038FE01AB0D212046A26B4E
:100C2000002DE7D102F03EFE0346E6E70123184619
:100C300002B070BD08E0FFFD03F1FF3C38B58C4405
:100C4000856A0446AC4505D9436B012043F0800317
:100C5000636338BD4FF0060C80F804C003F056F80B
:100C60000523237138BD00BF03F1FF3C38B58C4428
:100C7000856A0446AC4505D9436B012043F08003E7
:100C8000636338BD4FF0070C80F804C003F066F8CA
:100C90000523237138BD00BF38B50579052D01D076
:100CA000012038BD08230446037103F07DF8257147
:100CB00038BD00BF38B5302383F311880379022B88
:100CC00010D0042204460023027183F3118801210D
:100CD000FFF78AFF0546204602F0C0FD02232846A2
:100CE000237138BD002585F31188284638BD00BF23
:100CF00003232DE9F041037184B0044602F050FD56
:100D000000222046114602F0C1FD03AB4FF4D5721C
:100D10000821204602F0DCFDE8B9039B0122C3F361
:100D200003232263934209D02046012502F096FD59
:100D300002232846237104B0BDE8F081024603ABCC
:100D40003721204602F0C4FD0028EDD1039AA64BBE
:100D500013408BB1E8E703AB00223721204602F0B5
:100D6000B7FD002835D1039B9F4A1A408ABB114624
:100D70002046226302F08AFD236B03F00F03022B4F
:100D800029D09A4F64259A4ADFF85C82012B18BF5C
:100D9000174610E0039E16EA080FC5D102F082FD47
:100DA00003466420002BBFD1039B002B28DB013DB1
:100DB000BAD004F069FD03AB00223721204602F0CF
:100DC00087FD064603AB3A4629212046002EE1D096
:100DD000AAE7022323636425864E06E0039B002BCB
:100DE0000EDB013DA0D004F04FFD03AB32460121E4
:100DF000204602F057FD03466420002BEED093E717
:100E00005A0003D5236B43F01003236304F1080356
:100E100000220221204602F071FD002884D1024602
:100E200004F138030321204602F052FD00287FF42C
:100E30007BAF04F11806A26B09212046334602F06D
:100E40005DFD00287FF470AF02ABA26B0721204646
:100E500002F03EFD054600287FF466AF236B03F0E9
:100E60000F03022B65D07E227F213046E76BFFF710
:100E700011FE70B10623402239462046009502F04B
:100E800059FD00287FF450AFBB895BBA9B0700F186
:100E900094800021204602F0A7FC00212046FFF7A5
:100EA000A3FE054600287FF43FAF236B03F00F033A
:100EB000022B6BD03046FFF713FEA06202AB4FF45B
:100EC00000721021204602F003FD054600287FF441
:100ED0002BAF029B444E33427FF426AF236B13F0BB
:100EE0000E0F03F00F0233D1E36A1978F9B101292B
:100EF0007FF41AAF204602F0B7FC03ABA26B372198
:100F0000204602F0E5FC00287FF40EAF039B33423D
:100F10007FF40AAF03AB02220621204602F0D8FC80
:100F200000287FF401AF039B33427FF4FDAE05231D
:100F3000FFE603AB304A0621204602F0C9FC002838
:100F4000A7D1039B28491940B1FA81F14909A1E7CA
:100F5000022A7FF4E9AEE36A1978012941D0022917
:100F60003DD00029E3D0254E204602F07DFC03ABA6
:100F700032460621204602F0ABFC00287FF4D4AEB6
:100F8000039A194B1340002BD1D0CDE67E227F214E
:100F90003046FFF77FFD01288CD9E66B08234FF41C
:100FA000007220463146009502F0C4FC00287FF410
:100FB000BBAE3046FFF7B2FD7FE7114B402239460A
:100FC00020460093062302F0B5FC00287FF4ACAE67
:100FD000397C01F00F010F3918BF01215AE7094E82
:100FE000C2E7094EC0E700BF08E0FFFD0080FF50E8
:100FF000000010800080FFC00001B9030000B703AB
:10100000F1FFFF800002B7030001B70330B5104DB8
:1010100083B0044603E0022A16D804F035FC01AB85
:10102000A26B0D21204602F053FC03460A2043B96F
:10103000019AC2F343212A42A1F1050204D10429F5
:10104000E9D1184603B030BD0123184603B030BDC6
:1010500008E0FFFD02F08ABB002304490122016081
:1010600002714363C0E90A33704700BFA86D0008EE
:101070000C30FFF743BC00BF4FF0FF330C30FFF7DD
:101080003DBC00BF3030FFF7CBBC00BF4FF0FF339B
:101090003030FFF7C5BC00BF0C30FFF707BC00BF06
:1010A0004FF0FF310C30FFF701BC00BF3030FFF7CD
:1010B00071BC00BF4FF0FF323030FFF76BBC00BF98
:1010C000012914BF6FF013000020704703F074BDB6
:1010D000044B10B5044640F8043B04F0F7FC012330
:1010E000237210BDCC6D000838B5436904460D4627
:1010F0003BB1294604F10C00FFF7BCFB00280BDBD9
:1011000038BD0421084404F0E3FC294604F10C0036
:10111000FFF7B0FB0028F3DA201D4FF40061BDE8B3
:10112000384004F0D5BC00BF704700BF03F0AAB937
:101130000346002201210C301970C3E9012204F09A
:1011400023BC00BF10B53023044683F311884160EF
:1011500003F022FA0023984214BF012202222270D7
:1011600083F3118810BD00BF10B53023044683F30C
:1011700011880323037003F02BFC10B92378032B91
:1011800003D0002383F3118810BD4FF0FF3104F129
:10119000080004F085FB002383F3118810BD00BF15
:1011A00010B53023044683F311880323037003F042
:1011B00047FC10B92378032B03D0002383F3118855
:1011C00010BD4FF0FF3104F1080004F069FB00236B
:1011D00083F3118810BD00BF01F006BE0123402239
:1011E000002110B5044600F8303B05F049FD00230E
:1011F000C4E9013310BD00BF70B5022300250446C9
:10120000242203702946C0F888500C3040F8045C52
:1012100005F036FD204684F8705001F003FE636847
:101220001B6823B129462046BDE87040184770BDB1
:101230000378052B0DD00521426880F88C300170B1
:10124000136810B504460BB1042198470023A3602E
:1012500010BD70470178052900D0704790F88CC008
:10126000426880F800C01368002BF6D0184700BF12
:1012700070B590F87030044613B1002380F87030D8
:1012800004F18002204601F065FE63689B6853B359
:101290002046984738B3A56F94F88030B4F886207C
:1012A000AA422CBF2A46A267190600F1DA80002A5A
:1012B00000F08D801522302384F8702083F311888C
:1012C00062892046E36842F001029B696281D4E9A9
:1012D0001D51002419609D6021465C6001F044FEB0
:1012E00084F3118870BD94F8803013F060061846BE
:1012F0001CD194F8812003F07F0545EA022540F2D5
:101300000232954200F0518140D8B5F5807F00F05F
:1013100008811DD9B5F5817F00F01281B5F5407FB8
:1013200004D194F88230012B00F0D38000212046B4
:1013300002F0A2F90021204602F092F963681B68CE
:1013400013B1062120469847062384F8703070BDFB
:10135000012D61D0022D51D194F98430204694F8AA
:101360008410002B01F00F01C0F2AC8001F0D6FD1B
:10137000012800F0AC800228D8D19A49022300222B
:10138000C4E91D13E26794F8803087E7B5F5006F74
:1013900000F0038147D9B5F5106F39D12378042BBC
:1013A00000F0A18094F882304BB10421626884F887
:1013B0008B302170136813B1022120469847002317
:1013C00094F88000C4E91D33E367030663D40B225D
:1013D000302384F8702083F3118822890025E36884
:1013E000204642F0010229465B6922819D60C3E9E3
:1013F000005501F049FE85F3118870BD002D95D18F
:10140000022204F18801E56761671546A26745E796
:1014100040F60242954289D1022573490022C4E96F
:101420001D15E2673AE7B5F5A06F00F09F80A5F5BE
:10143000C065012D3FF67AAF61682046B4F884306C
:101440004D6894F8822094F88310A84700283FF450
:101450006DAF94F88030D0E90052E667C4E91D25ED
:101460001CE7C2B10922302384F8702083F311886D
:1014700022892046E36842F001025B692281D4E9B7
:101480001D51002419609D6021465C6001F0FCFD47
:1014900084F3118870BD1422302384F8702083F304
:1014A000118862890025E368204642F0010229463E
:1014B0009B6962819D60C3E9005501F055FD85F38C
:1014C000118870BD01F038FD01287FF454AF474901
:1014D00054E7B4F88830E66743F00203C4E91D66B8
:1014E000A4F8883071E7302383F31188A3682022A1
:1014F000314604F1100003F00113A36005F0C0FBB6
:10150000204601F003FD86F311880321636884F807
:101510008B6021701B68002B3FF444AF2046984736
:1015200040E794F88230012B7FF400AFB4F88830A4
:10153000E66723F00203C4E91D66A4F8883044E797
:1015400094F88230002B7FF4F1AE94F8843013F0DD
:101550000F0106D01E06204639D402F099F894F8FF
:1015600080000023C4E91D33E3672EE7B4F8803020
:10157000B3F5A06FF5D194F88230204684F88A3014
:1015800001F0B6FC63681B6813B10121204698473F
:10159000032394F880002370E3E7012204F18B0118
:1015A000E6671546C4E91D1278E694F88230002BF0
:1015B0007FF4BCAE94F8843013F00F01D1D01D0637
:1015C000204609D402F04CF894F88000C9E702F0F4
:1015D0006BF894F88000C4E702F04EF894F88000AD
:1015E000BFE700BFF46D0008FC6D0008F86D00084F
:1015F00038B590F870300446152B27D8DFE803F093
:101600002726262626262726260B10382626262697
:10161000262626262727856FB0F886309D422ED3B2
:101620001422302384F8702083F311886289002506
:10163000E368204642F0010229469B6962819D6071
:10164000C3E9005501F090FC85F3118838BD0021F5
:1016500002F012F80021204602F002F863681B68CD
:1016600013B1062120469847062384F8703038BD10
:10167000C36F03B19847002384F8703038BDC36846
:101680001B8AB5FBF3F203FB1255002DC8D13023A2
:1016900083F3118802892946C36842F001025B691D
:1016A00002819D60C3E9005501F0EEFC85F31188CD
:1016B0000A2384F8703038BD38B590F8703004468D
:1016C000152B21D8DFE803F0212020202020212025
:1016D000202121212020202020202020320B0B221D
:1016E000302380F8702083F3118802890025C368B5
:1016F00042F0010229465B6902819D60C3E9005501
:1017000001F0C2FC85F3118838BD002101F0B4FF5F
:101710000021204601F0A4FF63681B6813B1062175
:1017200020469847062384F8703038BDC3689B690B
:101730005B68002BE8D1C36F03B19847002384F89E
:10174000703038BD0A4A09014FEA501C0123C9B262
:1017500000B500F01F0E104403FA0EF380F80013DA
:1017600002EB8C01C1F8803142F82C305DF804FBAB
:1017700000E100E000F01F0C0122084B002102FAFA
:101780000CF24FEA501C184403EB8C03C3F8802082
:10179000C3F8802180F80013704700BF00E100E02B
:1017A00010B5074C204603F079FC064802F0FEFA1B
:1017B000204603F08BFCBDE8104004F097BA00BF50
:1017C000486E0008C402002410B5074C204603F000
:1017D00065FC064803F018FA204603F077FCBDE8E4
:1017E000104004F083BA00BF3C6E00089C04002443
:1017F00008B5064803F052FC03F080F9034803F0F3
:1018000065FCBDE8084004F071BA00BF306E000806
:1018100008B5054803F042FC034803F057FCBDE857
:10182000084004F063BA00BF246E000810B5074CEE
:10183000204603F033FC064803F086F9204603F007
:1018400045FCBDE8104004F051BA00BF186E000816
:101850007C04002408B5054803F020FC034803F08D
:1018600035FCBDE8084004F041BA00BF0C6E00082A
:1018700010B5074C204603F011FC064803F064F94C
:10188000204603F023FCBDE8104004F02FBA00BF4F
:10189000006E00087C04002408B509217A20FFF7B7
:1018A00051FF09213120FFF74DFF07211C20FFF7D1
:1018B00049FF07212B20FFF745FF07212C20FFF7C9
:1018C00041FF07212D20FFF73DFF07212E20FFF7C5
:1018D00039FF0C212720BDE80840FFF733BF00BFC8
:1018E00038B5364B00224FF0FF31354CD3F880002D
:1018F000344D60F00040C3F88000D3F8800000F061
:101900000040C3F88000D3F88000D3F88400C3F807
:101910008410D3F88400C3F88420D3F88400D86FEF
:101920002043D867DC6F28482C40DC67DC6FD3F895
:1019300088402043C3F88800D3F88800C0F30A0029
:10194000C3F88800D3F88800D3F89000C3F890104B
:10195000D3F89000C3F89020D3F89000D3F8940007
:10196000C3F89410D3F89400C3F89420D3F89400EB
:10197000D3F89800C3F89810D3F89800C3F89820CB
:10198000D3F89800D3F88C00C3F88C10D3F88C00EF
:10199000C3F88C20D3F88C00D3F89C00C3F89C10BB
:1019A000D3F89C10C3F89C20D3F89C3000F07CFC4A
:1019B00000F0F4FEBDE83840FFF76EBF0044025867
:1019C000FFEFFF7F0010008000F8FFFF6F4B022049
:1019D0006F4AD3F8F410014310B4C3F8F410D3F8ED
:1019E0001C110143C3F81C11D3F81C31D06053689B
:1019F0009804FCD5674800230121674C10604FF420
:101A000040409160D460654913619061604ACB6247
:101A100093699904FCD513685C4943F4807313609F
:101A20000B6F03F44073B3F5007F04D04FF48032A2
:101A300000230A670B6755490B6843F001030B60ED
:101A40000B685B07FCD50023504A0B61136913F048
:101A50003803FBD101204FF080414FF0005410605B
:101A600051604F484F49D4605367D0621161136889
:101A7000464843F4A023136003689C03FCD5036825
:101A8000424943F4805303600B689804FCD50B680B
:101A90003E4A43F080030B601368D905FCD5516FB3
:101AA0003A4B41F0010151675A6F9207FCD5002271
:101AB0003D483E49986242F2E8605A631963A1F5D5
:101AC0007F31DA632F393A4A3A4C9C63586419647F
:101AD000DA6219682D4A41F0A8511960136803F0C1
:101AE0002853B3F1285FF9D148244FF4886340208C
:101AF0004FF0005194618224D3614FF4801310623F
:101B00004FF01070D16414652B49536531239065F3
:101B10000B600B6803F00F03012BFAD11B4A13690A
:101B200043F003031361136903F03803182BFAD150
:101B3000D2F8DC305DF8044B43F00053C2F8DC30DF
:101B4000D2F8043143F00053C2F80431D2F8043122
:101B5000D2F8DC3043F08043C2F8DC30D2F80431F4
:101B600043F08043C2F80431D2F80431D2F8DC30BB
:101B700043F00043C2F8DC30D2F8043143F00043B4
:101B8000C2F80431D2F80431704700BF0044025853
:101B90000048025800C000F0020000010004005894
:101BA0000000FF0100881008222020005F020703C8
:101BB0009B0BFF018F1E030300200052F8B53C4C25
:101BC00000253C4E20463C4FFEF7BAFF3B4B676377
:101BD0000521A3621220C4E90B65394CFFF7B2FD61
:101BE0002046FEF7ADFF374B25630521364D7F209C
:101BF0006763C4E90A35FFF7A5FD344B4FF4403164
:101C0000D3F8D82042F02002C3F8D820D3F800211E
:101C100042F02002C3F80021D3F80021D3F880203D
:101C200042F02002C3F88020D3F8802022F0200266
:101C3000C3F88020D3F88020B160D3F8D82022F0F8
:101C40002002C3F8D820D3F8002122F02002C3F8E4
:101C50000021D3F80021D3F8E02042F08072C3F8CD
:101C6000E020D3F8082142F08072C3F80821D3F8AD
:101C70000821D3F8882042F08072C3F88820D3F876
:101C8000882022F08072C3F88820D3F88820A960C9
:101C9000D3F8E02022F08072C3F8E020D3F80821C6
:101CA00022F08072C3F80821D3F80831F8BD00BFD4
:101CB0000000002400230240162C020000200240F5
:101CC00038000024006002580063025800440258A3
:101CD00038B543680446002B38D02378012B01D057
:101CE000002038BD434DAC4267D0434B9C4230D0BE
:101CF000A36A4FF080524FF4F0609A6003F05EF9EF
:101D0000A26A6368916858683C4B0B4093603C4BF7
:101D1000916803400B439360936843F000439360E2
:101D20009368002BFCDBAC420CD0334B9C4209D0B7
:101D300001231360936843F0010393601368DB078A
:101D4000FCD5CDE7A36A99689960F1E72D4B436014
:101D5000C3E723462C4A0521102000F045FD2063EF
:101D6000002843D0294B7321D3F8E02042F0807241
:101D7000C3F8E020D3F8082142F08072C3F80821AC
:101D8000D3F80821D3F8882042F08072C3F8882065
:101D9000D3F8882022F08072C3F88820D3F88830E6
:101DA00000F0EEFDA36A226B03F14001126891601E
:101DB00062681268C3F8C0209AE72346124A0521D8
:101DC000102000F011FD206380B1104B0921D3F8E1
:101DD000D82042F02002C3F8D820D3F8002142F0E6
:101DE0002002C3F80021D3F80031D9E76FF01000CA
:101DF00038BD00BF0000002438000024FFFFFEBFF4
:101E0000000001406C6E00081D20000800440258CC
:101E10002F4B02699842F0B43BD02E4B984238D0F9
:101E200051680024836A18681860D06810B14FF4B4
:101E300064705860506901391861D069D861106ABE
:101E40001862506A5862906AC3F8B000D06AC3F84A
:101E5000B400106BC3F8B800506BC3F8BC00906BB3
:101E6000C3F8A000D06BC3F8A400106C5861506C8C
:101E70009861906C0143D06C19635863D2E91412D5
:101E80009963DA63DC609A6842F00402F0BC9A60FD
:101E900070471178466B146981B944F00104C56834
:101EA0001F6B99683B68D960516801FB05F55D605F
:101EB0001E601D6845F001051D60B3E7C56844F06C
:101EC0000304012D94BF46F4807646F48476E7E758
:101ED0000000002438000024174B984221D0174BF3
:101EE00098420DD0826A9368590706D5936843F0EB
:101EF000100393609368DB06FCD40023D361704722
:101F0000016B0A68136823F01F0313601368DB0773
:101F1000FCD491F80CC03D234A6803FA0CF313601B
:101F2000E0E7016B0A68136823F01F03136013686E
:101F3000DB07FCD4EDE700BF0000002438000024DC
:101F400070B5066976B311F01005044606D0057821
:101F5000A5F10305B5FA85F56D096D000B0648BFBF
:101F600045F00405C8051ED58A0545F0080501D5CC
:101F700045F010052046FFF7AFFFF368C3B1052217
:101F80002946227098472378052B11D0302383F3FC
:101F900011884FF0FF3104F1140003F08FFC00238F
:101FA00083F3118870BD8B05E2D4002DE2D170BDA2
:101FB0000222002322702361E8E700BF10B5084C1D
:101FC000204603F06BF8074B074819681960FFF7C4
:101FD000B7FF204603F07AF8BDE8104003F086BE54
:101FE000606E0008002002400000002410B5084C7C
:101FF000204603F053F8074B074819681960FFF7AC
:102000009FFF204603F062F8BDE8104003F06EBE6B
:10201000546E0008006002583800002411F00C0FC4
:1020200070B504460ED105695DB18A0623D52B78BB
:1020300073B3AB682BB10422027098472378042B4A
:102040003CD070BDFFF748FF0369DB68DBB10522B8
:102050000121027098472378052B14D0302383F395
:1020600011884FF0FF3104F1140003F027FC002326
:1020700083F3118870BDCB06E3D5AB68002BE0D0AD
:10208000BDE8704018470222002322702361E5E773
:10209000FFF722FFAB68A3B10422027098472378B0
:1020A000042B0ED0302383F31188002104F1140097
:1020B00003F004FC002383F3118870BD0323237015
:1020C00070BD0222002322702361EBE70A4808B5A5
:1020D00002F0E4FF094B0A481968426801F00E015A
:1020E00059600AB180689047034802F0EFFFBDE8ED
:1020F000084003F0FBBD00BFC86E00080054025842
:10210000700000240B4810B502F0C8FF0A4B0B48C2
:102110001968C268090901F00E010C015C600AB17E
:1021200000699047034802F0D1FFBDE8104003F07A
:10213000DDBD00BFBC6E00080054025870000024D2
:102140000B4810B502F0AAFF0A4B0B481968426908
:10215000090A01F00E010C025C600AB18069904727
:10216000034802F0B3FFBDE8104003F0BFBD00BF5D
:10217000B06E000800540258700000240B4810B5DF
:1021800002F08CFF0A4B0B481968C269090B01F079
:102190000E010C035C600AB1006A9047034802F02C
:1021A00095FFBDE8104003F0A1BD00BFA46E00087C
:1021B00000540258700000240B4810B502F06EFF66
:1021C0000A4B0B481968426A090C01F00E010C0415
:1021D0005C600AB1806A9047034802F077FFBDE86F
:1021E000104003F083BD00BF986E000800540258F1
:1021F000700000240B4810B502F050FF0A4B0B484A
:102200001968C26A090D01F00E010C055C600AB183
:10221000006B9047034802F059FFBDE8104003F0FF
:1022200065BD00BF8C6E0008005402587000002489
:102230000B4810B502F032FF0A4B0B481968426B8D
:10224000090E01F00E010C065C600AB1806B90472C
:10225000034802F03BFFBDE8104003F047BD00BF5C
:10226000806E000800540258700000240B4810B51E
:1022700002F014FF0A4B0B481968C26B090F01F0FA
:102280000E010C075C600AB1006C9047034802F035
:102290001DFFBDE8104003F029BD00BF746E0008AB
:1022A00000540258700000240B4800220B4B0146DA
:1022B000026003F1A00C0A4801E053F8140C143337
:1022C00002604A60634541F8082FF6D1054B4FF094
:1022D000FF325A60704700BF70000024EC6E0008A7
:1022E00008540258005402580728F8B5044606D985
:1022F000082815D101204FF0070C002402E001202E
:10230000A446A040204E356805420CD04FF0010E87
:1023100001E0054207D00134A4450EFA04F0F8D2DA
:1023200000252846F8BD0543184F356006EBC40666
:1023300004EB8405C6E90123154BA60007EB8505D0
:10234000D3F8E00040F40010C3F8E000D3F808012F
:1023500040F40010C3F80801D3F8083112B1687CCA
:10236000FFF7F0F933190E22002007EB830157F82D
:1023700023404B68097A8A40196821F00F011960DF
:10238000626018602846F8BD70000024D46E000812
:102390000044025810B50446407CFFF7EBF90F49A2
:1023A000237C01200A680024984001EBC30322EA41
:1023B0000002C3E90144D3B20A6073B9084BD3F8F1
:1023C000E02022F40012C3F8E020D3F8082122F420
:1023D0000012C3F80821D3F8083110BD70000024A2
:1023E00000440258C3681960704700BF0A4808B526
:1023F00002F054FE094B0A481968426801F03D0199
:1024000099600AB180689047034802F05FFEBDE81A
:10241000084003F06BBC00BFC86F0008000002401A
:10242000B40000240B4810B502F038FE0A4B0B48EC
:102430001968C268890901F03D018C019C600AB1EC
:1024400000699047034802F041FEBDE8104003F0E8
:102450004DBC00BFBC6F000800000240B400002467
:102460000B4810B502F01AFE0A4B0B481968426976
:10247000090C01F03D010C049C600AB18069904791
:10248000034802F023FEBDE8104003F02FBC00BF5C
:10249000B06F000800000240B40000240B4810B5E3
:1024A00002F0FCFD0A4B0B481968C269890D01F066
:1024B0003D018C059C600AB1006A9047034802F018
:1024C00005FEBDE8104003F011BC00BFA46F00087A
:1024D00000000240B40000240A4808B502F0DEFD06
:1024E000094B0A485968426A01F03D01D9600AB1B6
:1024F000806A9047034802F0E9FDBDE8084003F018
:10250000F5BB00BF986F000800000240B400002433
:102510000B4810B502F0C2FD0A4B0B485968C26A5D
:10252000890901F03D018C01DC600AB1006B904724
:10253000034802F0CBFDBDE8104003F0D7BB00BF5D
:102540008C6F000800000240B40000240B4810B556
:1025500002F0A4FD0A4B0B485968426B090C01F0CC
:102560003D010C04DC600AB1806B9047034802F027
:10257000ADFDBDE8104003F0B9BB00BF28700008F6
:1025800000000240B40000240B4810B502F086FDA4
:102590000A4B0B485968C26B890D01F03D018C054F
:1025A000DC600AB1006C9047034802F08FFDBDE883
:1025B000104003F09BBB00BF1C70000800000240ED
:1025C000B40000240A4808B502F068FD094B0A4827
:1025D0001968426C01F03D0199600AB1806C904726
:1025E000034802F073FDBDE8084003F07FBB00BF65
:1025F0001070000800040240B40000240B4810B51D
:1026000002F04CFD0A4B0B481968C26C890901F0B5
:102610003D018C019C600AB1006D9047034802F0B7
:1026200055FDBDE8104003F061BB00BF0470000819
:1026300000040240B40000240B4810B502F02EFD47
:102640000A4B0B481968426D090C01F03D010C045E
:102650009C600AB1806D9047034802F037FDBDE8E9
:10266000104003F043BB00BFF86F000800040240B5
:10267000B40000240B4810B502F010FD0A4B0B48C3
:102680001968C26D890D01F03D018C059C600AB18D
:10269000006E9047034802F019FDBDE8104003F0BA
:1026A00025BB00BFEC6F000800040240B40000240A
:1026B0000A4808B502F0F2FC094B0A485968426E14
:1026C00001F03D01D9600AB1806E9047034802F0E5
:1026D000FDFCBDE8084003F009BB00BFE06F000847
:1026E00000040240B40000240B4810B502F0D6FCF0
:1026F0000A4B0B485968C26E890901F03D018C01F3
:10270000DC600AB1006F9047034802F0DFFCBDE8CF
:10271000104003F0EBBA00BFD46F00080004024081
:10272000B40000240B4810B502F0B8FC0A4B0B486B
:102730005968426F090C01F03D010C04DC600AB1DC
:10274000806F9047034802F0C1FCBDE8104003F0E1
:10275000CDBA00BF806F000800040240B40000241E
:102760000B4810B502F09AFC0A4B0B485968C26F2F
:10277000890D01F03D018C05DC6012B1D0F88000BC
:102780009047034802F0A2FCBDE8104003F0AEBA47
:10279000746F000800040240B400002400220D48B9
:1027A00030B40D4C13460D4D226001E055F8330056
:1027B00004EB830102330260202B4A60F6D14FF014
:1027C000FF330749074A8B60CB609360D36030BC0E
:1027D000704700BF10000240B400002434700008AD
:1027E0000000024000040240F8B5122820D8DFE8BB
:1027F00000F00A0A0A0A0A0A0A0A0A0A0A0A0A0A5D
:102800000A0A6F7479004FF0010C05460CFA00FCBF
:10281000374E346814EA0C0F0DD04FF0010E02E071
:1028200014EA0C0F07D00130A8420EFA00FCF7D9C9
:1028300000252846F8BD44EA0C04346006EBC006C7
:102840002C4CC6E901235FFA8CF3060104EB00155A
:1028500073B1294BD3F8D80040F00100C3F8D80079
:10286000D3F8000140F00100C3F80001D3F80031B3
:102870001CF47F4F1CD1A059036823F01F03036091
:10288000036813F00103FBD134443D264FF0210EC1
:1028900094F80CC0676806FA0CF63E600360C0F856
:1028A00014E0002AC5D0A07BFEF74CFF2846F8BDF7
:1028B000114BD3F8D80040F00200C3F8D800D3F889
:1028C000000140F00200C3F80001D3F80031D2E764
:1028D0004FF0010C0F2500209AE74FF0010C07255F
:1028E000002095E74FF0800C0F25072090E700BFF0
:1028F000B4000024347000080044025808B54FF0BA
:10290000300C8CF31188FFF76FFF002383F31188DD
:1029100008BD00BF10B50446807BFEF72BFF1649AB
:10292000607B01220B68824023EA0203DAB20B606B
:1029300072B9124AD2F8D81021F00101C2F8D810A9
:10294000D2F8001121F00101C2F80011D2F80021E3
:1029500013F47F4F0ED1094BD3F8D82022F0020296
:10296000C3F8D820D3F8002122F00202C3F80021D6
:10297000D3F8003110BD00BFB40000240044025859
:1029800083681960704700BF704700BF2DE9F04FA2
:1029900002F00309C2F34114C2F38006C2F3C10579
:1029A000C2F3C317CE4600224FF00F0BA04616E02D
:1029B0000368072A0AEA030343EA0E0303604AD8BE
:1029C000036A23EA040343EA0C030362490840D084
:1029D00076000132AD004FEA88084FEA8E0ECB0731
:1029E000F4D501244368B9F1020F04FA02F423EA92
:1029F00004034FF0030443EA060343604FEA420333
:102A000004FA03F3846824EA03046FEA030A44EA3D
:102A100005048460C46824EA030C02F007044CEA4D
:102A200008034FEA8404C36007FA04FC0BFA04F4B9
:102A3000BED1072A16D8036A23EA040343EA0C032B
:102A40000362036849080AEA030343EA0E030360CA
:102A5000BED1BDE8F08F436A23EA040343EA0C03C6
:102A60004362B3E7436A23EA040343EA0C03436285
:102A7000E7E700BF70B5704D7048AB6B9C6902F022
:102A80000DFBAA6B04F0FE0314F01001D3614AD1D0
:102A900020062CD4610623D52B78032B00F08D80E3
:102AA000286B01680B6823F01F030B600B68DB07C2
:102AB000FCD4047B3D234168A3400B605368302164
:102AC00043F480435360136823F04003136081F3A1
:102AD000118800215A4802F0F1FE002383F3118887
:102AE000564802F0F3FABDE8704003F0FFB82B78C7
:102AF000032B52D02B6B1B685B68FF2B00F28C8082
:102B00001B0468685468806803434E4820400343B0
:102B10004A480B4343F48063536002F0D7FABDE8A0
:102B2000704003F0E3B8286B01680B6823F01F03C3
:102B30000B600B68DC07FCD4047B3D234168A34099
:102B4000686B0B6001680B6823F01F030B600C6857
:102B500014F00104FBD141683D23007B83400B60EE
:102B60005368A96843F4804341F00401A96030210F
:102B70005360136823F04603136081F311886FF0EC
:102B800001012F4802F09AFE84F311882B4802F0CD
:102B90009DFABDE8704003F0A9B86B6B1B685868DC
:102BA000FF283ED800046B6856689C68254B33406C
:102BB000234303430B43536092E7686B01680B6840
:102BC00023F01F030B600B6813F00103FBD1446873
:102BD0003D21007B81402160296B096848680028FD
:102BE0003FF46CAF4868FF2820D800046C68566832
:102BF000A4682043134C344020430343042043F48F
:102C0000806353600B6843F001030B6053682870C6
:102C100043F40053536063E74FF47F034FF0807138
:102C20006FE74FF47F004FF08071BCE74FF47F00F7
:102C30004FF08073DAE700BF3801002440710008CC
:102C400054010024FFFF00FE38B52C4C2C48A36B28
:102C50009D6902F023FA216BA36B05F47C52DA61C3
:102C60000A68136823F01F0313601368DB07FCD4A2
:102C7000087B3D234A688340616B13600A681368D0
:102C800023F01F0313601368D807FCD4087B3D238F
:102C90004A68E90503FA00F31360A36844BF43F0F0
:102CA0000103A360AA0502D543F00203A3606805EF
:102CB00019D543F00803E904A36002D543F02003CB
:102CC000A360302383F311886FF001010D4802F0F7
:102CD000F5FD002383F31188094802F0F7F9BDE8F8
:102CE000384003F003B8EA04E8D4002BE9D10448E3
:102CF00002F0ECF9BDE8384002F0F8BF38010024DA
:102D0000347100085401002410B50A4C2046FDF728
:102D10004DFF0023084A05214820E361A263C4E96E
:102D20000C33FEF70FFD05214920BDE81040FEF7EA
:102D300009BD00BF38010024005C0040D0F8943089
:102D400000F1080100224FF0010C9B6870B500F102
:102D50000C0ED0F890500EEB830E51F8044F02F198
:102D600010030CFA02F00132A6690CFA03F326B143
:102D7000D5F81C683343C5F81C38636923B1D5F80E
:102D80001C381843C5F81C087145E6D170BD00BF5A
:102D900070B400224FF0FF348E6800EB421102F154
:102DA000010CD1F800590B46002D05DAD1F8005975
:102DB00045F08045C1F80059D1F8005B002D05DAD7
:102DC000D1F8005B45F08045C1F8005BB242C3F822
:102DD00008496246C3F8084BDFD14FF0011370BCBD
:102DE000C0F81C38704700BF38B5084D084C28465D
:102DF000FEF7F4F9074A084B2046C5E92423FEF7FD
:102E0000EDF9064A064BC4E9242338BD74010024B9
:102E100010020024000008408871000800000440EF
:102E200094710008F8B52023D0F8905007462B6124
:102E30002C6914F02004FBD112204FF0006602F040
:102E4000BDF8D7F894C04FF001134FF0FF31DCF814
:102E50000800C5F83448C5F81C3805EB4413844213
:102E600004F10104C3F80069C3F8006BC3F8081942
:102E7000C3F8081BF1D1DCF800301021D7F89020FE
:102E8000C7F898306B621161146914F01004FBD11B
:102E9000122002F093F8D5F80028124B22F4FE62BB
:102EA0001149C5F80028AA6913430922AB61C5F886
:102EB0001028D7F89830C5F81428F9604FF0C041B1
:102EC0000A4AC5F8101B03F1100143F48013C5F83A
:102ED000002BC5F81049C5F80029C7F89810AB6257
:102EE000F8BD00BF10000C006471000840800010A5
:102EF000D0F8902090F88A10D2F8003823F4FE63BE
:102F000043EA0113C2F80038704700BF0346D0E916
:102F100024010A68C3F89820FFF73ABF5831D0F867
:102F2000903049015B5813F4004004D013F4001FA3
:102F30000CBF0220012070474831D0F89030490181
:102F40005B5813F4004004D013F4001F0CBF0220A0
:102F50000120704700EB8101CB681B6A19685B6830
:102F600011605360704700BF00EB8103DA6893691A
:102F700010B41C68DC6009B9402C26D8538A12684A
:102F8000D0F8900002F0030C5A1E2244BCF1010F4D
:102F9000B2FBF3F202FB03F303F1030323F0030399
:102FA00043EAC24300EB411243F0C043C2F8103B76
:102FB0000ED009B200EB41105DF8044BD0F8003B95
:102FC00043F00443C0F8003B704740241C60D5E741
:102FD000D0F8083800EB411209B213F4807FD2F820
:102FE000003B14BF43F0805343F00053C2F8003B52
:102FF000E0E700BF2DE9F041D0F8906007460C46AD
:1030000006EB4113D3F8085B2A07C3F8085B03D526
:10301000D6F814381B0731D4EA072DD5D6F8143862
:10302000DB0729D507EB8403D9688A6954B9488A34
:103030005368B3FBF0F500FB15331BB91068D36878
:1030400098420DD301227B89CD68A24023EA020376
:103050007B818DB1214638462B46BDE8F0411847AB
:103060001B1A54603021136081F3118821463846C1
:10307000FFF77AFF84F31188BDE8F08100EB81034C
:10308000DB685B689847C7E700EB810310B4DC6836
:1030900062691368D360FBB9D0F890204FF4002028
:1030A00002EB4113C3F81009236803F00303012B5B
:1030B0002BD008B202EB40100123D0F800498B401E
:1030C00044F00444C0F80049D2F834185DF8044BC9
:1030D0000B43C2F83438704709B9402B26D8B4F8EE
:1030E00010C0D0F890200CF1FF301844B0FBFCF079
:1030F00043EAC04302EB411043F00053C0F81039DB
:10310000236803F00303012BD3D1D2F8083808B2A7
:1031100013F4807F02EB4113D3F8004914BF44F04D
:10312000805444F00054C3F80049C3E740231360BF
:10313000D5E700BF2DE9F84FD0F8906081460C46E6
:103140004FEA411B06EB4113D3F80859EF07C3F8C8
:10315000085903D5D6F81038DA070CD42B0608D551
:103160004FF00108D6F8343808FA04F813EA080FCB
:1031700015D1BDE8F88F00EB8103DF687B69D3F8D8
:1031800000C0DA68944546D301220389BF688A40AB
:1031900023EA02030381002FE0D0B847DEE709EB02
:1031A0008403DB685E69D6E90075AF4240D9611CD3
:1031B000D9F890A0B3F81090C9B20AEB0B0E0AEB45
:1031C0000131A7EB050CDEF81839CC459BB228BFBE
:1031D000CC46BCEB830FCCD8B468BCF1040F236899
:1031E0000B600BD9ACF10500234620F0030004303E
:1031F000204453F8042F98420A60FAD1654464448D
:10320000BD42C6E90154DCD3DAF8343823EA0803B6
:10321000CAF83438ADE7A2EB0C0200271A605F60F1
:10322000302383F31188FFF72FFF87F3118895E789
:10323000D9F890A0E8E700BF2DE9F84F4FF040091A
:10324000DFF8C8A30546D0F8907070E0320500F1B1
:103250009180B3040CD5D7F8083813F0060FFB683B
:1032600023F470530CBF43F4105343F4A053FB609A
:10327000340710D56B68DB68002B00F07E812B785B
:10328000052B00F082812846FFF758FD6B68DB684C
:103290000BB128469847F00274D4B10200F1B48013
:1032A0003303D7F818481AD5E00300F13981A10398
:1032B00000F13181620300F12981230300F12181B2
:1032C000E00200F11981A10200F11181620200F116
:1032D0000981230200F10181E00100F1F480710312
:1032E0001AD5E20700F14481A30700F13C81600791
:1032F00000F13481210700F12C81E20600F12481E4
:10330000A30600F11C81600600F11481210600F182
:103310000C81E20500F1DC80F30600F1A28016EAE0
:103320000A0F00F0CE80B9F1010900F0CA807E6971
:10333000BB691E4016F480587E6140F06281002E09
:1033400084DAD7F8003E990705D0D7F8003E23F07D
:103350000303C7F8003E2846FFF7F0FCD7F804380F
:10336000284623F00103C7F80438FDF773FF320540
:103370007FF56FAFD5E92401FFF70AFD2846FDF779
:1033800057FF66E70020D5F890B0044608E0013406
:10339000D5F89430E4B29B689C4220463FF67DAF5E
:1033A0000BEB4411D1F8003903F44023B3F5802F1F
:1033B000EDD1D1F80039002BE9DAD1F8003943F02A
:1033C0009043C1F80039D1F80039002BFBDB8001B4
:1033D000D5F8901040F0200008610B699A06FCD4E3
:1033E000122001F0EBFD0123298903FA04F005EB1B
:1033F0008403DB6821EA00019B682981002BC6D089
:10340000214628469847C2E7D5F890B0002401220B
:1034100007E00134D5F89430E4B29B689C423FF653
:103420003FAF0BEB4411D1F8003B03F44023B3F55D
:10343000802FEED1D1F8003B05EB840002FA04FEA8
:10344000002BE6DAC3682146B5F80AC02846DB68D7
:103450002CEA0E0CA5F80AC0002BDAD098470122FE
:10346000D7E7D5F89040236A03F4F011C3F30A12AA
:1034700003F00F03B1F5802F00F09180B1F5402FDC
:103480007FF44DAF05EB8303DB68186A002A3FF435
:1034900046AF04F58054002313F0030F014601D119
:1034A000D4F80080072B03F1010304D801F8018B45
:1034B0004FEA182808469A42EED116EA0A0F7FF41E
:1034C00032AFBDE8F88F08212846FFF793FD06E7E5
:1034D00008212846FFF72EFE1EE707212846FFF7A2
:1034E00089FDF9E606212846FFF784FDF1E605216E
:1034F0002846FFF77FFDE9E604212846FFF77AFD1D
:10350000E1E603212846FFF775FDD9E602212846AA
:10351000FFF770FDD1E601212846FFF76BFDC9E6F4
:1035200000212846FFF766FDC1E607212846FFF780
:1035300001FEEEE606212846FFF7FCFDE6E6052142
:103540002846FFF7F7FDDEE604212846FFF7F2FDE7
:10355000D6E603212846FFF7EDFDCEE602212846F8
:10356000FFF7E8FDC6E601212846FFF7E3FDBEE6CA
:1035700000212846FFF7DEFDB6E6BB6923F008030D
:10358000BB612B78052B7FF47EAED7F8003E284632
:1035900023F00303C7F8003EFDF75CFE73E605EB7E
:1035A0008300C1688B69D3E9001BD3F808C0A1EB85
:1035B0000B0EBAB104F58054002313F0030F6146DB
:1035C00001D1D4F800809E4503F1010304D901F82C
:1035D000018B4FEA18288C469A42EED1C3689B694A
:1035E000D3E901BC724505D20CEB02015A44C3E990
:1035F000012194E60CEB0E020EEB0B01C3E9011264
:103600008DE62846BDE8F84FFDF7F6BD3000000412
:1036100010B5074C204601F041FD0648FFF70CFEAF
:10362000204601F053FDBDE8104002F05FBB00BF33
:10363000587100087401002410B5074C204601F0B1
:103640002DFD0648FFF7F8FD204601F03FFDBDE8DF
:10365000104002F04BBB00BF4C7100081002002468
:10366000D0F8903003EB4111D1F8003B43F4001344
:10367000C1F8003B704700BFD0F8903003EB411118
:10368000D1F8003943F40013C1F80039704700BF86
:10369000D0F8903003EB4111D1F8003B23F4001334
:1036A000C1F8003B704700BFD0F8903003EB4111E8
:1036B000D1F8003923F40013C1F80039704700BF76
:1036C00001F001038A0748BF43F002034A0748BFDD
:1036D00043F008030A0748BF43F00403CA0648BF83
:1036E00043F010038A06426B48BF43F020031A439D
:1036F00042637047F8B5302305460F46164683F3FC
:103700001188446CE36BA3B900232365E363E36290
:10371000606B10F4807008D04FF0FF32A26383F327
:103720001188012F0CD81846F8BD80F311880120AC
:10373000F8BD4FF0FF31403002F0B2F86C6CE3E7B7
:103740006A6C41F20C119360D160516B11F045032A
:10375000FBD0936311F0050303D152691846326020
:10376000F8BD2846FFF7ACFF0120F8BD10B5074CA7
:103770002046FDF771FC064B00200649064AA1646D
:10378000E263C4E91003054BE36410BDC4020024E6
:1037900000700052006CDC020000002000020020DB
:1037A0000E4BD0E9112110B4994213D90C4BC46AC5
:1037B0000B440C4861681B0AA0FB030301EB1313C5
:1037C0005360642013685DF8044B43F003031360F7
:1037D00002F05AB8C36A5B68F2E700BF801A0600BD
:1037E000FF340C00598B4F010129164B816C30B40A
:1037F000446C17D0144A6568914203EA05030ED958
:10380000124AC56A0A4412486968A0FB020201EB29
:103810001262134343F48053636030BC7047C26A42
:103820005268F6E70B4A6568914203EA0503F6D948
:10383000094AC56A0A4406486968A0FB020201EB0E
:103840005262E6E700ECFFFF40787D017FF0FA026C
:10385000893BE65580F0FA02FFE0F5050022436C53
:103860005A601A60704700BF426C0129536823F404
:10387000404307D0022901D011B1704743F40043FF
:103880005360704743F4804353607047406C41F489
:1038900080518260C160436B1B06FCD5802383632B
:1038A000704700BF10B541F48851446CA260E160DC
:1038B000616B11F04502FBD0A26311F0040203D149
:1038C00061691046196010BDFFF7FAFE012010BDB6
:1038D00010B541F48851446CA260E160616B11F055
:1038E0004502FBD0A26311F0050203D161691046C5
:1038F000196010BDFFF7E4FE012010BD10B541F4C2
:103900009851446CA260E160616B11F04502FBD0FC
:10391000A26311F03F0209D1216A10461960E269E1
:103920005A60A2699A606269DA6010BDFFF7C8FE4A
:10393000012010BD2DE9F843164698460F46374939
:103940000546D0E911245368C3F3090301335B0032
:10395000B4FBF3F4A1FB041442F21073A40903FBBB
:1039600004F45462FDF752FB00282ED16C6C012246
:1039700048F488538146A76522654FF0FF32E86C12
:10398000A2634FF49572E26342F20702A662E2621A
:10399000089AA260E360616B11F04503FBD011F05F
:1039A000050FA36329D162691D4B0260134073B1F7
:1039B000616B00234FF001092846A1632365E36290
:1039C000FFF77EFE4846BDE8F8836C6CF0E73023D5
:1039D00083F311886B6CDA6BBAB900221A65DA636B
:1039E000DA62596B11F480710BD04FF0FF3199639B
:1039F00082F311884846BDE8F8832846FFF760FE49
:103A0000D6E781F311886C6CD2E74FF0FF3105F1F6
:103A1000400001F045FF6B6CDFE700BFD34D621043
:103A200008E0FFFD2DE9F84316469846DFF864C12B
:103A30000D4642F210710746D0E911245368C3F3D2
:103A4000090301335B00B4FBF3F4ACFB04C4A40929
:103A500001FB04F45462FDF7D9FA814610B14846DF
:103A6000BDE8F8837C6C0123A66523654FF0FF3326
:103A7000FE6CA3634FF49573E3634FEA4823A3629C
:103A80003B6BDB0658BF6D02B8F1010FA56024D96E
:103A900041F21213E360616B11F04503FBD011F0AA
:103AA000050FA3633FD16369394D33601D40002D7D
:103AB0003CD142F29303324641463846E362FFF777
:103AC00019FE0028CBD07C6C3846FE6C616BA1637C
:103AD0002565E562FFF7F4FD30E041F21113E36084
:103AE000616B11F04503FBD011F0050FA36339D1D1
:103AF0006369274D33601D40002D36D142F2930398
:103B0000324641463846E362FFF7F4FD034600289B
:103B1000A5D07A6C38469946516B91631565D5628C
:103B2000FFF7CEFD9BE73846FFF7CAFD616B002328
:103B30003846A1632365E362FFF7C2FD002241F22C
:103B40000C13A260E360616B11F04503FBD011F030
:103B5000050FA36316D163694FF00109336048462E
:103B6000BDE8F8833846FFF7ABFD616B00234FF0EB
:103B700001093846A1632365E362FFF7A1FD4846CA
:103B8000BDE8F88338464FF00109FFF799FD66E775
:103B900008E0FFFDD34D62102DE9F8431646984624
:103BA000DFF864C10D4642F210710746D0E91124D6
:103BB0005368C3F3090301335B00B4FBF3F4ACFBBC
:103BC00004C4A40901FB04F45462FDF71FFA814602
:103BD00010B14846BDE8F8837C6C0123A6652365D7
:103BE0004FF0FF33FE6CA3634FF48D73E3634FEA32
:103BF0004823A3623B6BDB0658BF6D02B8F1010F8F
:103C0000A56024D941F21913E360616B11F04503FB
:103C1000FBD011F0050FA3633FD16369394D3360C9
:103C20001D40002D3CD142F29103324641463846B8
:103C3000E362FFF75FFD0028CBD07C6C3846FE6C5A
:103C4000616BA1632565E562FFF73AFD30E041F263
:103C50001813E360616B11F04503FBD011F0050F01
:103C6000A36339D16369274D33601D40002D36D1E0
:103C700042F29103324641463846E362FFF73AFD8D
:103C800003460028A5D07A6C38469946516B91635B
:103C90001565D562FFF714FD9BE73846FFF710FD69
:103CA000616B00233846A1632365E362FFF708FDDB
:103CB000002241F20C13A260E360616B11F0450336
:103CC000FBD011F0050FA36316D163694FF0010912
:103CD00033604846BDE8F8833846FFF7F1FC616B76
:103CE00000234FF001093846A1632365E362FFF723
:103CF000E7FC4846BDE8F88338464FF00109FFF776
:103D0000DFFC66E708E0FFFDD34D621012F0030F01
:103D100022D02DE9F0411F46D3B1064615460C4688
:103D20000F4404E0F16BFCF7A1FBA74210D0214641
:103D30000123F26B3046FFF775FE4FF40072034625
:103D4000013428461544002BECD01846BDE8F0811C
:103D500000231846BDE8F081FFF764BE12F0030FA0
:103D60001FD02DE9F0411F46C3B1064615460C464B
:103D70000F4401E0A74211D04FF400722946F06BC6
:103D80001544FCF773FB21460123F26B30460134E6
:103D9000FFF702FF0028EDD0BDE8F0810020BDE86C
:103DA000F081FFF7F9BE00BF00207047302310B547
:103DB00083F311880024436C40302146DC6301F01A
:103DC0007DFD84F3118810BD0022134B0A604A6008
:103DD000426910B41340402442780C6143F44043DC
:103DE0004FF0FF348C618B604AB183695DF8044BFE
:103DF00023F4C023CB6040F201130B60704782694B
:103E0000064B5DF8044B134043F00153CB6040F286
:103E100001130B60704700BF1F3EFFFFFFFFB9DFBC
:103E200090F8203010B4002B38D0836AD3E90041D9
:103E30000A6822F00F020A60197A0E23426A03FA16
:103E400001F161605468216821F00F012160117A4D
:103E500012688B405360534B98423ED0524B98426D
:103E600050D0524B984272D0514B984200F084800F
:103E7000504B98425BD0504B984252D14F4BD3F8A5
:103E80009C2042F02002C3F89C20D3F89C2022F012
:103E90002002C3F89C20D3F89C3042E0846A226858
:103EA000136823F01F0313601368D907FCD4227B27
:103EB0003D23416A934064680A682360136823F0D5
:103EC0001F0313601368DB07FCD40C7B3D234A6897
:103ED000A3401360334B9842C0D1384BC169D3F82B
:103EE0009820406842F480525DF8044BC3F8982053
:103EF000D3F8982022F48052C3F89820D3F8983051
:103F0000FFF762BF2D4BD3F8902042F48042C3F8F4
:103F10009020D3F8902022F48042C3F89020D3F868
:103F20009030C1695DF8044B4068FFF74DBF234BEB
:103F3000D3F8982042F48012C3F89820D3F8982040
:103F400022F48012C3F89820D3F89830E9E71B4B8D
:103F5000C169D3F89020406842F400425DF8044BF8
:103F6000C3F89020D3F8902022F40042C3F89020A8
:103F7000D3F89030FFF728BF104BC169D3F89820D1
:103F8000406842F400525DF8044BC3F89820D3F81F
:103F9000982022F40052C3F89820D3F89830FFF705
:103FA00013BF00BF14030024500300248C0300241B
:103FB000C8030024040400244004002400440258E0
:103FC00043685B7810B5002B50D190F82030014643
:103FD000DBB1836AD3E90040026822F00F0202607D
:103FE0000E22187ACB69824062605A6912F4604FDF
:103FF000FBD1496AD1E90040026822F00F02026059
:104000000E22097A8A40626024E0806A026813689E
:1040100023F01F0313601368DB07FCD490F80CC077
:104020003D22406802FA0CF2CB6902605A6912F430
:10403000604FFBD1486A01680A6822F01F020A60DB
:104040000A68D407FCD490F80CC03D22416802FAFB
:104050000CF20A601A6842F480621A601A689205CB
:10406000FCD44FF0FF3200209A6110BDFFF7D8FE5C
:10407000002010BD10B504460B4800F08DFF20460F
:10408000FFF7CEFE63689B680BB12046984730234C
:1040900083F311886FF0120104F1080001F00EFCA7
:1040A000002383F3118810BDA07100080B0700D412
:1040B0007047FFF7DFBF00BF11F00C0F00D1704752
:1040C000FFF7D8BF11F00C0F70B50D4604462DD187
:1040D0006668337893B1EA0603D573686BB12046FE
:1040E0009847AB0609D563685B6833B10422204664
:1040F000227098472378042B30D070BD2046FFF7FC
:104100005FFF73686BB304222046227098472378C0
:10411000042B26D0302383F31188002104F10800FA
:1041200001F0CCFB002383F3118870BD0E4800F032
:1041300033FF2046FFF774FE63689B680BB120468F
:104140009847302383F311886FF0120104F10800BF
:1041500001F0B4FB002383F31188B9E70323237034
:1041600070BD02232370D5E7A071000870B50D461D
:10417000090704462DD46668337893B16A0703D5DE
:1041800073686BB120469847AB0709D563685B68D5
:1041900033B104222046227098472378042B30D074
:1041A00070BD2046FFF70CFF73686BB304222046F6
:1041B000227098472378042B26D0302383F311886C
:1041C000002104F1080001F079FB002383F311883A
:1041D00070BD0F4800F0E0FE2046FFF721FE636847
:1041E0009B680BB120469847302383F311886FF00A
:1041F000120104F1080001F061FB002383F3118830
:10420000B9E70323237070BD02232370D5E700BFF5
:10421000A071000810B5164C164800F03FFFE26987
:10422000536911690B4093615B0606D4114800F095
:104230004DFFBDE8104001F059BD2046FFF7F0FDED
:1042400063689B680BB120469847302383F311883D
:104250006FF01201084801F031FB002383F311884D
:10426000044800F033FFBDE8104001F03FBD00BF3F
:1042700014030024E87100081C03002410B5164C38
:10428000164800F00BFFE269536911690B40936116
:104290005B0606D4114800F019FFBDE8104001F09C
:1042A00025BD2046FFF7BCFD63689B680BB1204627
:1042B0009847302383F311886FF01201084801F00A
:1042C000FDFA002383F31188044800F0FFFEBDE8E7
:1042D000104001F00BBD00BF50030024DC7100084A
:1042E0005803002410B5164C164800F0D7FEE269BA
:1042F000536911690B4093615B0606D4114800F0C5
:10430000E5FEBDE8104001F0F1BC2046FFF788FD56
:1043100063689B680BB120469847302383F311886C
:104320006FF01201084801F0C9FA002383F31188E5
:10433000044800F0CBFEBDE8104001F0D7BC00BF40
:104340008C030024D07100089403002410B5164C8F
:10435000164800F0A3FEE269536911690B409361AE
:104360005B0606D4114800F0B1FEBDE8104001F034
:10437000BDBC2046FFF754FD63689B680BB1204627
:104380009847302383F311886FF01201084801F039
:1043900095FA002383F31188044800F097FEBDE8E6
:1043A000104001F0A3BC00BFC8030024C471000882
:1043B000D003002410B5164C164800F06FFEE269D9
:1043C000536911690B4093615B0606D4114800F0F4
:1043D0007DFEBDE8104001F089BC2046FFF720FDBE
:1043E00063689B680BB120469847302383F311889C
:1043F0006FF01201084801F061FA002383F311887D
:10440000044800F063FEBDE8104001F06FBC00BF3F
:1044100004040024B87100080C04002410B5164CE4
:10442000164800F03BFEE269536911690B40936145
:104430005B0606D4114800F049FEBDE8104001F0CB
:1044400055BC2046FFF7ECFC63689B680BB1204627
:104450009847302383F311886FF01201084801F068
:104460002DFA002383F31188044800F02FFEBDE8E5
:10447000104001F03BBC00BF40040024AC710008B8
:10448000480400242DE9F041354D0024DFF8048173
:104490002846344FFCF74CFE334B85F820400A2168
:1044A000EB6123206C622F63304EC5E90A48304D22
:1044B000FDF748F92846FCF73BFE2E4B85F82040D7
:1044C0000A21EB6124206C622F63C5E90A482A4D5A
:1044D000FDF738F92846FCF72BFE284B85F82040DD
:1044E0000A21EB6133206C622F63C5E90A48244D31
:1044F000FDF728F92846FCF71BFE224B0A21542021
:10450000EB6185F820406C622F63C5E90A48FDF72E
:1045100019F93046FCF70CFE1B4D1C4B0A215520A7
:1045200086F82040F36174623763C6E90A48FDF7F4
:1045300009F92846FCF7FCFD0123154941F20A025E
:1045400085F8203041F21803E96156206C620A2197
:104550002B63C5E90A42BDE8F041FDF7F3B800BF9F
:10456000140300244600010000300140040400242C
:1045700050030024003800408C030024003C00401D
:10458000C8030024003401404004002400500140CE
:10459000001400581600010010B503784FF0FF32E8
:1045A0000446012B826320D0406894F820204369A0
:1045B00003F01F030133002A7BD1082BE26A00F2CB
:1045C0009D80236B22F4F04223F4F043017800290C
:1045D00000F08F8042F4847243F48473E169C4E98B
:1045E0000B23FFF7F1FB002010BDC84B984200F0F1
:1045F000A680C74B984200F01681C64B984200F047
:10460000D880C54B984200F04881C44B984200F0D6
:104610009381C34B984240F0C5810346C14A0A21A9
:104620000820FDF761FE6062002800F0C18123468A
:10463000BD4A0A210820FDF757FEA062002800F0BD
:10464000B4810B21606AFDF7CDFE0C21A06AFDF755
:10465000C9FEB64BD3F8F42042F02002C3F8F42090
:10466000D3F81C2142F02002C3F81C21D3F81C21EE
:10467000D3F89C2042F02002C3F89C20D3F89C2061
:1046800022F02002C3F89C20D3F89C30E26994F811
:10469000203002F1300160682032002B44D0636A80
:1046A0005B6899604369A16A03F01F03496801339D
:1046B0008A60082BE26A10D8236B22F4706223F41C
:1046C0007063017821B142F0240243F0240385E7AE
:1046D00022F0240223F0240380E7102B236B22F422
:1046E000706223F470631AD842F4A06243F4A063AA
:1046F000E7E722F4847223F484736FE7102B236BB3
:1047000022F4F04223F4F04304D842F4205243F45C
:1047100020535BE742F4A04243F4A04356E742F43F
:10472000206243F42063CCE7636A1B689960A16A46
:104730004369096803F01F038A6001333DE70346BC
:104740007B4A0A211020FEF74FF86062002800F033
:104750002F812346774A0A211020FEF745F8A062F0
:10476000002800F028812521606AFEF709F926213A
:10477000A06AFEF705F96D4BD3F8F02042F48052A1
:10478000C3F8F020D3F8182142F48052C3F818215E
:10479000D3F81821D3F8982042F48052C3F8982017
:1047A000D3F8982022F48052C3F89820D3F8983098
:1047B0006CE703465E4A0A211020FEF715F8606296
:1047C000002800F0F58023465A4A0A211020FEF7FF
:1047D0000BF8A062002800F0EE803D21606AFEF731
:1047E000CFF83E21A06AFEF7CBF8504BD3F8E82073
:1047F00042F40042C3F8E820D3F8102142F400420A
:10480000C3F81021D3F81021D3F8902042F40042CD
:10481000C3F89020D3F8902022F40042C3F89020EF
:10482000D3F8903032E70346414A0A211020FDF7C1
:10483000DBFF6062002800F0BB8023463D4A0A216E
:104840001020FDF7D1FFA062002800F0B4802721DE
:10485000606AFEF795F82821A06AFEF791F8334BBD
:10486000D3F8E82042F48042C3F8E820D3F81021BE
:1048700042F48042C3F81021D3F81021D3F89020DD
:1048800042F48042C3F89020D3F8902022F4804272
:10489000C3F89020D3F89030F8E60346244A0A2162
:1048A0001020FDF7A1FF6062002800F08180234600
:1048B000204A0A211020FDF797FFA06200287AD035
:1048C0005321606AFEF75CF85421A06AFEF758F89D
:1048D000164BD3F8F02042F40052C3F8F020D3F87E
:1048E000182142F40052C3F81821D3F81821D3F844
:1048F000982042F40052C3F89820D3F8982022F46C
:104900000052C3F89820D3F89830BFE6140300246F
:10491000500300248C030024C80300240404002452
:10492000400400246D410008AD40000800440258D6
:10493000C5400008B94000080346224A0A21102059
:10494000FDF752FF606298B323461F4A0A211020E8
:10495000FDF74AFFA06270B35521606AFEF710F8B8
:104960005621A06AFEF70CF8184BD3F8F02042F459
:104970008012C3F8F020D3F8182142F48012C3F853
:104980001821D3F81821D3F8982042F48012C3F8E4
:104990009820D3F8982022F48012C3F89820D3F8F6
:1049A000983073E66FF0140010BD606AFDF7F2FCFA
:1049B0006FF0100010BD606AFDF7ACFF6FF01000E3
:1049C00010BD00BFC5400008B940000800440258AF
:1049D00090F8203010B4446A13B3646800F13403D3
:1049E000E360C36A61602360836A5B68DA60026BBC
:1049F000596042F080021A60226842F0010222608F
:104A00001A6842F001021A6043685B7823B9C269F0
:104A1000136843F40073136000205DF8044B704783
:104A2000246800F13403E360C36A61602360836A31
:104A30001B68DA60026B596042F48062DBE700BFFA
:104A400090F8203010B4446A13B3C36A646843F02A
:104A50008003E26000F1380261602360836A5B6872
:104A6000DA60026B59601A60226842F0010222602B
:104A70001A6842F001021A6043685B7823B9C26980
:104A8000136843F40073136000205DF8044B704713
:104A9000C36A246843F48063E26000F13802616015
:104AA0002360836A1B68DBE7124A4FF080430021D2
:104AB000D2F8E80040F0010030B4C2F8E80042F259
:104AC0007F55D2F810010C4C40F00100C2F81001E3
:104AD0000120D2F81021E26B0243E2634FF0FF3273
:104AE0009D62DA6299615963D960596058611860B2
:104AF00030BC7047004402580010005C4FF0804208
:104B000008B51169D3680B40D9B29B076FEA010160
:104B1000116100D408BD302383F3118800F04CFAF2
:104B2000002383F3118808BD10B5054C2046FCF71F
:104B300047F80621034A01232174E261237610BD60
:104B40007C04002400040140C36970B51A6905465D
:104B5000DC681440E2B2A6076FEA02021A6103D5CC
:104B600043681B6903B19847600704D56B689B696C
:104B70000BB128469847210704D56B681B6A0BB117
:104B800028469847E20604D56B689B6A0BB1284615
:104B90009847E30706D56B689B681BB12846BDE8BC
:104BA0007040184770BD00BF024A136843F0C0034D
:104BB000136070470048004010B50D4C82B020468D
:104BC000FCF786FA04F10C00002310220949009436
:104BD000FBF73EFE084B1022084904F13000009418
:104BE000FBF7C6FE064A074BC4E9152302B010BD09
:104BF0009C040024FC040024A94B00080C0500249C
:104C000000480040006CDC022DE9F047456D064687
:104C1000EC6922072C6256D1E20548D4A00610D5D3
:104C20004FF03008002788F311886B6A304696F8F9
:104C30005C101940FCF758FA87F31188EC69A30659
:104C4000F1D4D5F800A01AF0800F1DD021061BD595
:104C500006F1300830274FF0000905E0A86289F31B
:104C60001188EC6922060FD587F311884046FBF7BF
:104C7000BBFE0028F2DA0821301D00F029FF2AF0DF
:104C8000800A002383F311881AF0400F0BD06306CB
:104C900009D5302383F31188D6E911239A422DD008
:104CA000002383F31188C5F800A0BDE8F087302306
:104CB00083F311884FF48061301D00F009FF002359
:104CC00083F31188AAE7C4F3C001E3074FF0300370
:104CD0004FEA012148BF41F02001A70748BF41F03A
:104CE0004001600748BF41F0800183F31188301D07
:104CF00000F0EEFE002383F311888DE7B36B002BE9
:104D0000CED01021301D2AF0400A00F0E1FEC7E7A6
:104D1000664A00236648D2F8881070B440F2FF74E7
:104D2000644D45F250562143C2F88810D2F88810DD
:104D300008406149C2F88800D2F88800D2F8E00043
:104D40002043C2F8E000D2F8080120435B4CC2F8CF
:104D50000801D2F808214FF68F724B608D604FF03A
:104D60005535CB604A61564A56480A62564A4A62ED
:104D7000564A0A604FF6FF71554A6360A2604BF6CF
:104D80007E72E3606261534A2262534A6262534A0E
:104D90002260534C43608460524CC36041610462A2
:104DA000514C524A4462524C046000F50060514C30
:104DB00053609460504CD3605161146204F1F84424
:104DC00004F5081454624D4C14606FF44054436071
:104DD00002F500628460A4F17E54C360A4F5CB1494
:104DE0004161A4F6331404624FF0CC344462444C65
:104DF0000460444C53609460434CD360516114622E
:104E000004F1F844A4F67744546204F15E44A4F536
:104E10009014A4F2AB5414603C4CC0F80438C0F8B1
:104E200008484FF6BF74C0F80C38C0F81448384C26
:104E3000C0F82048374CC0F82448374CC0F8004828
:104E40003648C2F80438C2F808084FF4A030344C91
:104E5000C2F80C084FF6E370C2F814084FF0804017
:104E6000C2F8200842F20420C2F824082D48C2F8F3
:104E700000084FF6CF7263602B48A160E360626167
:104E800026622A4A2A4E6362266043608360C560B8
:104E9000416103624362036053609360D560516176
:104EA00013625362136070BCFCF790BD004402585B
:104EB00000F8FFFFFC00F3AB0000025800040258AA
:104EC000B00B00B0000802580AAA0A006BD5AEAABF
:104ED000CACFA0FC226066000011B0CCBA7AAFAB9A
:104EE000FFCCFF03BCCCBB30CCCC0C00000C025878
:104EF000AABBAA023FF03FFACC0C0050EA9FEAAAF4
:104F0000AABAAAAAFFCFCFFFCCCCCC503F0FFFFF4D
:104F1000CC0CCC005C5055C5EA1A9AAA0540A100F9
:104F2000002002585ABDAEFF002402580028025843
:104F3000A955FFFF0120704700207047704700BF50
:104F400030B587B0114D00230122684604242A7031
:104F5000C5E9013300F0E0FC684600F0EDFC68466E
:104F600000F0F0FC013CF7D1009BAB6000F0DAFDF3
:104F700000F024FE00F046FE0549064800F046FB1E
:104F800002232B7084F3118807B030BDE00F00249A
:104F9000F87100082005002408B5044672B600F038
:104FA000ADF80349034B0322C1F8E4401A70FEE751
:104FB00020050024E00F002400F088B9034A51685E
:104FC00053685B1A9842FBD8704700BF001000E09E
:104FD000024AD36B1843D063704700BF20050024FA
:104FE00038B50C4CD4F8EC50FBF7B8FBD4F8EC30E7
:104FF00004F50F61084A686050681A6860F31F2260
:1050000043F8102B04F1F0028B4228BF1346C4F87A
:10501000EC3038BD20050024001000E002460749AE
:10502000002342F8081B426000EB03120133117A9F
:10503000802B6FF302011172F6D17047FFFF8000E1
:10504000094BB3F8E820D20700D57047027F10B4AF
:10505000D3F8EC40D30043F00103C4E9020123700C
:105060005DF8044BFFF7BCBF200500240A4BB3F8E2
:10507000E820920700D5704710B40A7FD3F8EC40BF
:10508000D300496B43F00203C4E9020123705DF8C9
:10509000044BFFF7A5BF00BF200500240A4AB2F861
:1050A000E83010B513F0040400D010BD302383F3B2
:1050B00011880321D2F8EC3019709860FFF790FF47
:1050C00084F3118810BD00BF200500240A4AB2F8FD
:1050D000E83010B513F0040400D010BD302383F382
:1050E00011880421D2F8EC3019709860FFF778FF2E
:1050F00084F3118810BD00BF20050024064BB3F8CF
:10510000E820120700D57047D3F8EC3005229860EC
:105110001A70FFF765BF00BF20050024F8B5154DD4
:105120000E462F6A05F11003E961BA42C0E9013267
:105130002B6938BF3A4603601446586028618818C6
:10514000FBF710FBFBF70AFB821B0346A24209D2C6
:105150002B6A9F4200D8F8BD2F620120BDE8F840BD
:10516000FFF736BF7C1C301927461E46FBF708FBAD
:10517000E8E700BF200500242DE9F843DFF8A490FC
:1051800007460E46FBF7EAFA4B46804653F8105F97
:105190009D423BD0D9F81C40AB68041B341928BF92
:1051A0003446A34215D89C4204D92D68E41AAB6852
:1051B000A342FAD36B684FF0FF32BC60C7E90053DB
:1051C0001F60AB686F601B1BAB60C9F81820BDE89F
:1051D000F883D9F82050AE4238BF2E4608EB0600BF
:1051E000FBF7CEFAFBF7BAFAA0EB0808464514D94C
:1051F000D9F820309D4203D8D9F81050AB68D2E7D7
:105200000120C9F82050FFF7E3FEF5E732460146DA
:105210003846BDE8F843FFF781BF013580462E468A
:10522000DCE700BF2005002403610023C260436166
:10523000FFF7A2BFF8B5244C236998420DD003684C
:10524000D0E9012113605A609A680A4400219A60EB
:105250004FF0FF330160A361F8BD026823460021CF
:1052600043F8102F5360016022699A4223D093685B
:1052700081680B449360FBF771FAE3692269054684
:10528000C11A96688E42E7D91E44276A361ABE4272
:1052900038BF3E46A819FBF773FAFBF75FFA451BC8
:1052A000AE420CD9236A9F42D6D927620120BDE8BD
:1052B000F840FFF78DBEBDE8F840FBF75BBA013759
:1052C00005463E46E6E700BF200500242DE9F84FDD
:1052D0003D4E00274FF0300906F1100809E087F332
:1052E0001188D4E903312046984789F3118863690E
:1052F000ABB93469FBF732FAF3690546A268C11A03
:105300008A422CD89D18D4E90010F56101604860EC
:10531000276033694345E2D1FBF72CFADFE7FBF75F
:105320001DFA6269A0EB050B82465A4530D33369FA
:1053300043453FD099688A4204D91B68521A99683C
:105340009142FAD35968A260C4E900310C609968AF
:105350005C60891A4FF0FF329960B261C9E7316928
:10536000414513D01344376AF0611B1ABB42A36056
:1053700038BF3B461C462819FBF702FAFBF7EEF94B
:10538000451BAC4212D9336A9F4209D8BDE8F88F59
:105390000220FFF71DFE3369434513D05A46C9E783
:1053A00037620120BDE8F84FFFF712BE013705460E
:1053B0003C46E0E72A44121A51462046BDE8F84F21
:1053C000FFF7ACBE0022F7E72005002410B530231C
:1053D0000C4683F311880B7F0C2B10D8DFE803F009
:1053E0002A0F0F260B070F0B0F0F0F0F0B004A6B27
:1053F000936801339360D4E9003213605A604FF030
:10540000FF3120466163FFF71BFE00222369A1687C
:1054100022771B689A688A42FBD25A68002123606F
:10542000626014605C6081F3118810BD4B6B0022D8
:105430001A60E4E7002383F3118810BD10B5044619
:10544000416BFFF7FDFD00222369A16822771B68ED
:105450009A688A42FBD25A682046236062601460D0
:105460005C6010BD0C4B4FF0010C10B5D96882B0D8
:105470001C68087722682046019153601A6084F8FE
:105480001CC0DC60FFF7F2FD0199204602B0BDE8C8
:105490001040FAF7B7BF00BF20050024F0B54B1C41
:1054A0001A4C89B00546E6681DD03346184A02A852
:1054B000FFF7BAFEE16801220D77256801912B689C
:1054C00028465C602A772360E560FFF7CFFD0199ED
:1054D0002846FAF797FF029B13B102A8FFF7AAFE2E
:1054E000706B09B0F0BD27680122307731463B6808
:1054F00038465C603A772360E760FFF7B7FD3846CF
:105500003146FAF77FFF706B09B0F0BD200500242B
:10551000CD53000870B51B4E05468268F4684163A0
:10552000A3689A421DD9616B2046FFF789FD0022CE
:105530002369A16822771B689A688A42FBD85A6857
:1055400021462846C4E90032146001225C602A77B3
:10555000F560FFF78BFD21462846BDE87040FAF75D
:1055600051BFFFF76DFD00222B69A9682A771B68E0
:105570009A688A42FBD25A68C5E9003215605D60BC
:1055800070BD00BF20050024044B1A68DB689068DA
:105590009B68984294BF002001207047200500249A
:1055A00038B5124B01211D68DC682A68204653601B
:1055B0001A602977616BDD60FFF742FD00222369E5
:1055C000A16822771B689A688A42FBD85A682146EC
:1055D00023602846626014605C60FFF747FD214647
:1055E0002846BDE83840FAF70DBF00BF200500246B
:1055F000044B1A68DB6892689B689A4201D9FFF7EE
:10560000CFBF704720050024FEE700BFF0B52A4B4E
:105610000025044689B085630E46016400F1300719
:10562000586000F029FB04F11003A560E563E56113
:10563000C4E904334FF0FF33A3610223C4E90C77BC
:105640002362C4E90044FBF789F801462B4604F1C4
:10565000E8000A46C4E90A23C4F8E450FFF7DEFC78
:10566000736801A904F194000293B368079403934B
:10567000124B01938023CDE90555049300F024F8E3
:10568000626B00F12403E06001A94762826213604B
:1056900063630123037704F144000493084B0794E8
:1056A0000593084C0695D6E90323CDE901420393FF
:1056B00000F066F809B0F0BDE00F00240C7200089D
:1056C0000956000814720008022310B4D1E90142FF
:1056D000C0E90542CC6883838A698460A2B1002353
:1056E000C4640124026100F13C02847709685DF81A
:1056F000044BC26301620264C0E90B33C0E9113399
:1057000000F1380383637047004AE8E7200500246E
:105710000223F0B4D1E90142C0E90542CC68838399
:105720008B69846033B3C464012400F138070361DA
:1057300084770C68046200F13C04D1E90465C0E997
:105740000F440021A2F16404C0E90B11C4605C6B3A
:105750008763C0E9111142E90965074D00F1240191
:1057600042F8045C03F13002C0E909242160596366
:10577000F0BC7047014BD6E71D040008200500244B
:1057800008B5FFF7C5FFBDE80840FFF757BE00BFEB
:10579000F0B54418022183B004F8441CA4F1280198
:1057A000089D44F84C0C44F8843C2048204B44F8B5
:1057B000281C012144F8805C002544F8640CA4F105
:1057C000C40044F8503CA4F1240304F8421C1949D5
:1057D00044F8540CA4F1600044F8484C44F8582CA8
:1057E00004F8435C44F81C5C44F8401C44E9093369
:1057F00044E90D55302344E9065283F3118854F8E7
:10580000503CA4F13C02294601905E6B03F1300745
:1058100044F8386C44F83C7C32605A63FFF77AFEF7
:1058200085F31188019803B0F0BD00BF1D04000886
:10583000200500241C72000838B5302383F311883A
:10584000104BDC6804F13805A36B60639D4206D100
:10585000A37F7BB10F20BDE83840FFF703BE1A6875
:105860001846A263FFF7EAFDA36BAB42F7D1A37F13
:10587000002BEFD1E36A002BECD1D4E9093213609D
:105880005A60E7E72005002408B50146302383F37A
:1058900011880820FFF702FE002383F3118808BD5A
:1058A000054A0346D26821B1026003205363FFF723
:1058B000F5BD4FF0FF307047200500240346006817
:1058C00020B100221A604163FFF7B8BD704700BFE6
:1058D000C0E90000704700BF084AD26859B10346CA
:1058E00010B4446810600420546022605DF8044BDA
:1058F0005A60FFF7D3BD4FF0FF30704720050024FA
:1059000003460068834205D002681A605360416311
:10591000FFF794BD704700BF9FED057B00234FF05C
:10592000FF32C0E90233C0E9002380ED047B7047F9
:105930000000000000000000014B5B6883607047BE
:10594000001000E00E4A0F4B81685B6810B4946849
:1059500002691B1BC4685B1A41690134D2180261D9
:1059600041F10001426841619342026888BF43608F
:105970009342C0E9023438BF03605DF8044B7047BE
:10598000E00F0024001000E00023C0E90000836065
:10599000704700BF70B52E4B04468068DD6828B3A1
:1059A000AA688368934206D2037F8260062B36D0B2
:1059B000072B20D09BB1234603E09968AA68914247
:1059C00002D31B689C42F8D15A6806202B606A609B
:1059D00015605D606C63BDE87040FFF743BDD0E9C2
:1059E000003213605A60FFF729FDE4E7AB6CC4E9AD
:1059F0000253AC6470BD466BD0E9003213605A604C
:105A0000334603E099688268914202D31B689E4244
:105A1000F8D15A68C0E9003210605860CBE7466B95
:105A2000D0E9003213605A60334603E09968826817
:105A3000914202D31B689E42F8D15A6803604260CB
:105A400010605860B068AA6883689342ACD3B2E72C
:105A50002005002408B5302383F31188FFF79AFF4F
:105A6000002383F3118808BD174A302310B5D4688A
:105A700083F311880268C3688242A3641DD0014683
:105A8000E06C4BB11A68934203D09268904238BFE1
:105A90001046DB68002BF5D1A0600868826C0368B3
:105AA0000B605960C1E902028164FFF7C7FCFFF790
:105AB0009FFD002383F3118810BD00239360002312
:105AC00083F3118810BD00BF2005002400607047DB
:105AD000F8B50468A04220D007460D46002604E031
