:020000040800F2
:10000000000480381D0400081F0400081F040008B5
:100010001F0400081F0400081F0400081F04000834
:100020001F0400081F0400081F040008E96B0008F3
:100030001F0400081F0400081F0400081F04000814
:100040001F0400081F0400081F0400081F04000804
:100050001F0400081F0400081F0400081F040008F4
:100060001F0400081F0400081F040008B92A000824
:10007000F12A00082D2B0008692B0008A52B000889
:10008000DD2B0008192C0008892600081F04000831
:100090001F0400081F0400081F0400081F040008B4
:1000A0001F0400081F0400081F0400081F040008A4
:1000B000091E00081F0400081F0400081F04000890
:1000C0001F0400081F0400081F040008C94D000891
:1000D000314E00081F0400081F040008E11D00083D
:1000E0001F0400081F0400081F040008291E000840
:1000F000451E00086D1E0008891E0008552C0008CA
:100100001F040008B91D00081F040008994E0008CC
:100110001F0400081F0400081F0400081F04000833
:10012000912C0008C92C0008052D0008412D00085D
:100130007D2D00081F0400081F0400081F0400088C
:100140001F0400081F0400081F0400081F04000803
:10015000B52D0008F12D00082D2E00081F04000801
:1001600041310008153300081F0400081F0400086F
:100170001F040008954100081F0400081F04000820
:100180001F0400081F0400081F0400081F040008C3
:10019000014F0008694F0008D14F00081F040008F4
:1001A0001F0400081F0400081F0400081F040008A3
:1001B0001F0400081F0400081F0400081F04000893
:1001C0001F0400081F0400081F0400081F04000883
:1001D0001F0400086D4100081F0400081F040008E8
:1001E0001F0400081F0400081F0400081F04000863
:1001F0001F0400081F0400081F0400081F04000853
:100200001F0400081F0400081F0400081F04000842
:100210001F0400081F0400081F0400081F04000832
:100220001F0400081F0400081F0400081F04000822
:100230001F0400081F0400081F040008B926000856
:100240001F04000899270008D12700080D2800087E
:100250004928000885280008C1280008FD28000852
:10026000392900081F0400081F0400081F040008A3
:100270001F0400081F0400081F0400081F040008D2
:100280001F0400081F0400081F0400081F040008C2
:100290001F0400081F0400081F0400081F040008B2
:1002A0001F0400081F0400081F0400081F040008A2
:1002B0001F0400081F0400081F0400081F04000892
:1002C0001F0400081F0400081F0400081F04000882
:1002D0001F0400081F0400081F0400081F04000872
:1003000072B6374880F30888364880F30988364843
:100310003649086040F20000CCF200004EF634711D
:10032000CEF200010860BFF34F8FBFF36F8F40F232
:100330000000C0F2F0004EF68851CEF200010860D5
:10034000BFF34F8FBFF36F8F4FF00000E1EE100A45
:100350004EF63C71CEF200010860022080F3148852
:10036000BFF36F8F00F06CFB05F032FB4FF05530A0
:100370001F491B4A91423CBF41F8040BFAE71D4953
:10038000184A91423CBF41F8040BFAE71A491B4A4C
:100390001B4B9A423EBF51F8040B42F8040BF8E79E
:1003A00000201849184A91423CBF41F8040BFAE773
:1003B00000F0A2FB00F09CFB144C154DAC4203DA9C
:1003C00054F8041B8847F9E706F082FC114C124DE3
:1003D000AC4203DA54F8041B8847F9E700F08ABB03
:1003E00000048038000880380000000808ED00E0B4
:1003F0000000803800048038D85D01080000002427
:10040000EC06002400070024C0610024E00200087C
:10041000E0020008E0020008E002000870E700F0D7
:1004200000F8FEE72DE9F04F2DED108AC1F80CD051
:10043000D0F80CD0BDEC108ABDE8F08F002383F318
:1004400011882846A047002006F082F8FEE705F054
:1004500007FF00DFFEE7000053B94AB9002908BFD3
:1004600000281CBF4FF0FF314FF0FF3000F00CB8F8
:10047000ADF1080C6DE904CE0EF004F8DDF804E0EF
:10048000DDE9022304B07047704700BF00000000A0
:10049000000000000000000000000000000000005C
:1004A000A2EB0300704700BF02780B78012A28BF37
:1004B0009A42F5D16DE9044540EA0104CDE90267AD
:1004C0006FF0000C4FEA447212B380EA010414F09A
:1004D000070F6AD100F0070420F0070004F00305BD
:1004E00021F007014FEAC505F0E8042314F0040FDA
:1004F000F1E804670CFA05F462EA040266EA04060D
:100500000AD063EA0403624667EA0407664603E02A
:10051000F0E80423F1E8046782FA4CF582EA060465
:10052000A4FA8CF46CBB83FA4CF583EA0705A5FAB0
:100530008CF595B950E9022351E9026782FA4CF52E
:1005400082EA0604A4FA8CF483FA4CF583EA0705E0
:10055000A5FA8CF52543DBD09CB92DBAB5FA85F404
:1005600024F0070427FA04F1DDE9026723FA04F313
:1005700003F0FF0001F0FF01FDE80445A0EB0100DE
:10058000704724BAB4FA84F424F0070426FA04F17C
:10059000DDE9026722FA04F202F0FF0001F0FF0138
:1005A000FDE80445A0EB0100704714F0030F3CD1B7
:1005B00010F0030428D150F8082B51F8083B82FAB8
:1005C0004CF582EA0305A5FA8CF55DB950F8042CC8
:1005D00051F8043C82FA4CF582EA0305A5FA8CF541
:1005E000002DE8D02DBAB5FA85F424F0070423FADB
:1005F00004F122FA04F202F0FF0001F0FF01FDE82D
:100600000445A0EB010070474FEAC40420F003004A
:1006100050F8082B21F0030151F8083B0CFA04F4C0
:1006200062EA040263EA0403C9E710F003041AD083
:10063000A1EB040120F00300E40750F8042B06D0DE
:100640000FD28B785FFAA2F4E41A06D12BB1CB78E3
:100650005FFAB2F4E41A00D11BB920465DF8104BE2
:10066000704701F1040150F8042BCC0721F003017D
:1006700051F8043B48D824D222F07F4482FA4CF54A
:1006800094EA1325A5FA8CF50AD165B951F8043B13
:1006900084EA0204B4EB036F0ED150F8042BEBE7AD
:1006A0004FEA132355E035F07F454DD10878FDE83A
:1006B0000445C0F1000070474FEA126203F0FF03E7
:1006C00047E002EA1C4482FA4CF594EA1345A5FA85
:1006D0008CF50AD165B951F8043B84EA0204B4EB05
:1006E000034F0CD150F8042BEBE74FEA134330E0F3
:1006F00015EA1C4528D10B884FEA124229E04FEA3F
:10070000124203EA1C4324E002F0FF0482FA4CF593
:1007100094EA1365A5FA8CF50AD165B951F8043B42
:1007200084EA0204B4EB032F09D150F8042BEBE761
:100730004FEA13630DE015F0FF0F05D10B684FEA88
:10074000122223F07F4304E04FF00000FDE804454F
:10075000704712BA1BBA82FA4CF482EA0304A4FA74
:100760008CF5B5FA85F402FA04F203FA04F34FEAC1
:100770001260FDE80445A0EB13607047844641EA2F
:10078000000313F003036DD1403A41D351F8043B09
:1007900040F8043B51F8043B40F8043B51F8043B5B
:1007A00040F8043B51F8043B40F8043B51F8043B4B
:1007B00040F8043B51F8043B40F8043B51F8043B3B
:1007C00040F8043B51F8043B40F8043B51F8043B2B
:1007D00040F8043B51F8043B40F8043B51F8043B1B
:1007E00040F8043B51F8043B40F8043B51F8043B0B
:1007F00040F8043B51F8043B40F8043B51F8043BFB
:1008000040F8043B51F8043B40F8043B403ABDD269
:10081000303211D351F8043B40F8043B51F8043B0B
:1008200040F8043B51F8043B40F8043B51F8043BCA
:1008300040F8043B103AEDD20C3205D351F8043B9A
:1008400040F8043B043AF9D2043208D0D2071CBF66
:1008500011F8013B00F8013B01D30B88038060468F
:10086000704700BF082A13D38B078DD010F0030305
:100870008AD0C3F10403D21ADB071CBF11F8013B75
:1008800000F8013B80D331F8023B20F8023B7BE7C4
:10089000043AD9D3013A11F8013B00F8013BF9D2EF
:1008A0000B7803704B7843708B7883706046704789
:1008B0000000000000000000000000000000000038
:1008C00090F800F06DE9024520F007016FF0000C90
:1008D00010F0070491F820F040F049804FF0000438
:1008E0006FF00700D1E9002391F840F000F1080013
:1008F00082FA4CF2A4FA8CF283FA4CF3A2FA8CF34B
:100900004BBBD1E9022382FA4CF200F10800A4FAB1
:100910008CF283FA4CF3A2FA8CF3E3B9D1E9042305
:1009200082FA4CF200F10800A4FA8CF283FA4CF33C
:10093000A2FA8CF37BB9D1E9062301F1200182FAF6
:100940004CF200F10800A4FA8CF283FA4CF3A2FAFC
:100950008CF3002BC6D0002A04BF04301A4612BA0A
:10096000B2FA82F2FDE8024500EBD2007047D1E90D
:10097000002304F00305C4F100004FEAC50514F09C
:10098000040F91F840F00CFA05F562EA05021CBF6D
:1009900063EA050362464FF00004A9E70000000087
:1009A00001F0FF01102A2BDB10F0070F08D010F820
:1009B000013B013A8B422DD010F0070F42B3F6D124
:1009C000F0B441EA012141EA014122F007047FF03D
:1009D00000070023F0E80256083C85EA010586EA94
:1009E000010685FA47F5A3FA87F586FA47F6A5FAD0
:1009F00087F68EB9EED1F0BC01F0FF0102F00702DC
:100A000032B110F8013B013A83EA010313B1F8D186
:100A10000020704701387047002D06BF3546033867
:100A2000073815F0010F07D1013015F4807F02BFA0
:100A3000013015F4C03F0130F0BC0138704700BFF1
:100A400010B584B001240DF039F82649264A4FF438
:100A500080736846ADF800400393CDE901120DF0B4
:100A60004BF804200DF038F8BFF34F8FBFF36F8FB2
:100A70001E480022C0F85022BFF34F8FBFF36F8F84
:100A8000436943F400334361BFF34F8FBFF36F8F6C
:100A9000C0F88420BFF34F8FD0F8803043F6E07465
:100AA000C3F34E3CC3F3C90E4FEA4C1C0CEA0401DD
:100AB000734641EA8372013BC0F860225A1CF8D1A8
:100AC000ACF1200C1CF1200FF0D1BFF34F8F436924
:100AD00043F480334361BFF34F8FBFF36F8F04B094
:100AE00010BD00BF000004300E00000300ED00E068
:100AF000704700BFFEE700BFF8B52B4D2B4F2C49C8
:100B000005F170042B482C4A88420DD2043A034662
:100B100052F8046F43F8046B8B42F9D34B1E1B1A37
:100B200023F0030304331844B84207D2013F0021E5
:100B30003F1A27F0030204320DF054FEA54205D0FF
:100B4000D5E90420D5E906171035DDE71B48002359
:100B5000C0F88430BFF34F8FD0F8805043F6E07672
:100B6000C5F34E34C5F3C905640104EA06012B46FA
:100B700041EA8372013BC0F86C225A1CF8D1203C38
:100B800014F1200FF1D1BFF34F8FBFF36F8FBFF37D
:100B90004F8FBFF36F8F0023C0F85032BFF34F8FDA
:100BA000BFF36F8FF8BD00BFBC490108C0610024CE
:100BB000C0610024C0610024C464010800ED00E0AD
:100BC00008B501F099F902F045FA00F007FA00F0D3
:100BD00049FA00F07DFA00F01BFD00F0C5FC00F0C2
:100BE00055FD00F0A9FD00F04FFD05F007F8BDE848
:100BF000084000F001B800BF04F030BD4FF0804362
:100C0000586A70474FF080430021022258631961EF
:100C1000DA6070474FF080430022DA60704700BF0F
:100C20004FF0804358637047F8B515468268044614
:100C30000B46AA4200D28568A1692669761AB54298
:100C400018D30AD82A461846FFF798FDE268A36829
:100C50002846A2615B1BA360F8BDAF1B3246184655
:100C6000FFF78CFD3A463044E168FFF787FDE26804
:100C70003A44ECE72A461846FFF780FDA2692A4469
:100C8000E5E700BF836893422DE9F04104468846BA
:100C900012D28568D4E90460361AB54212D318D846
:100CA0002A464146FFF76AFDE268A368284662616A
:100CB0005B1BA360BDE8F081D4E904601546361AD9
:100CC000B542ECD22A464146FFF758FD62692A44F4
:100CD000EBE7AF1B32464146FFF750FD3A4608EBC3
:100CE0000601E068FFF74AFDE2683A44DDE700BF2D
:100CF000F8B504460D461F46164605F0B1FC069BA6
:100D00002E44E76123620023C4E90356C4E9055574
:100D1000A360F8BDD0E90532934211D0826810B5C6
:100D200001325C1C826044611970D0E904329A423D
:100D300001D3C3684361002105F0AAFC002010BD67
:100D40008268002AEAD04FF0FF30704770B5302338
:100D500005460E4683F3118803E005F085FC002864
:100D600019DBAC6831462846002CF6D0AB68A9697F
:100D7000013B4A1CAB602B69AA619A420C7801D3F3
:100D8000EB68AB61EB690BB128469847002383F30E
:100D90001188204670BD84F3118870BD2DE9F04F95
:100DA00083B09A46C6693027019287F31188CAB189
:100DB00083460D46DDF804904FF000084A46294668
:100DC0005846FFF731FF0446584694B106B1B04784
:100DD00088F31188A9EB0409254487F31188B9F138
:100DE000000FEBD10198002383F3118803B0BDE815
:100DF000F08F514605F038FC0028DFD0019BA3EBB3
:100E00000900002383F3118803B0BDE8F08F00BF11
:100E1000F8B504460D4616461F4605F021FC069B14
:100E2000A6602E44E7612362C4E90356C4E9055570
:100E3000F8BD00BFF8B5302304460F46164683F3CD
:100E4000118803E005F010FC002819DBA568314685
:100E50002046002DF6D06269A368511C013B6161F8
:100E6000A3601770D4E904329A4201D3E368636146
:100E7000E3690BB120469847002080F31188F8BD44
:100E800085F31188F8BD00BFD0E905239A4210D040
:100E90008268591C013210B5816182601C78036937
:100EA000994201D3C3688361002105F0F1FB20461C
:100EB00010BD8268002AEBD04FF0FF30704700BFB2
:100EC0002DE9F04F83B09A46C6693027019287F327
:100ED0001188CAB183460D46DDF804904FF0000832
:100EE0004A4629465846FFF7CDFE0446584694B177
:100EF00006B1B04788F31188A9EB0409254487F3AC
:100F00001188B9F1000FEBD10198002383F3118808
:100F100003B0BDE8F08F514605F0A6FB0028DFD0F6
:100F2000019BA3EB0900002383F3118803B0BDE804
:100F3000F08F00BF01F01F0C012349090CF1010CD7
:100F4000B1EB521F03FA0CF310B503F1FF334FEA74
:100F5000521402F01F0E05D850F82400184020FA51
:100F60000EF010BD50F8211050F8242003EA0100C3
:100F7000CEF1200122FA0EF38840184310BD00BFC5
:100F8000C3689B0F08D08368C288180400F47C10E3
:100F90001043013080027047826840F6FC7341685C
:100FA00003EA8200C2F30342C1F3C23340EA917004
:100FB000093A0233013098409040704790F8D6309B
:100FC00090F8D7101B0490F8D42090F8D50003EBCC
:100FD0000163134403EB0020704700BF01F0FAB82F
:100FE00003460022012118305A611970C3E9012219
:100FF000C3E9032205F0ECBB10B53023044683F3AC
:101000001188416001F070F90023984214BF012259
:101010000222227083F3118810BD00BF10B5302367
:10102000044683F3118801F0FFF900230122636075
:10103000227083F3118810BD10B5302484F3118819
:10104000044682600322C0E9033104F8142B01F046
:1010500045FA4FF0FF31204605F0EAFA002383F30A
:10106000118810BD02F0B6B90346012100220C30F0
:1010700019705A6005F0ACBB10B53023044683F3F9
:101080001188416002F0C0F902230020237080F330
:10109000118810BD70B584B004464FF0300C089D27
:1010A0008CF311880A9E4FF0030C0296099ECDE93D
:1010B0000056002580F800C0856002F00FFA431C3E
:1010C00014BF02230523237085F3118804B070BD7B
:1010D00004F004BB0023012243600270C360037468
:1010E000704700BF0379052B06D1826A4FF4007365
:1010F0000020C1E9003270470120704770B5124EE0
:1011000082B004460D4611E003F0BCF903460A2004
:10111000BBB9019AC2F343213242A1F105020FD1BA
:1011200004290ED0022A0BD805F06CFA01AB0D2170
:101130002046A26B002DE7D103F08EF90346E6E7C7
:101140000123184602B070BD08E0FFFD03F1FF3C2B
:1011500038B58C44856A0446AC4505D9436B0120FB
:1011600043F08003636338BD4FF0060C80F804C081
:1011700003F0A6FB0523237138BD00BF03F1FF3C3C
:1011800038B58C44856A0446AC4505D9436B0120CB
:1011900043F08003636338BD4FF0070C80F804C050
:1011A00003F0B6FB0523237138BD00BF38B50579C0
:1011B000052D01D0012038BD08230446037103F03A
:1011C000CDFB257138BD00BF38B5302383F31188BE
:1011D0000379022B10D0042204460023027183F30A
:1011E00011880121FFF78AFF0546204603F010F918
:1011F00002232846237138BD002585F3118828462F
:1012000038BD00BF03232DE9F041037184B00446CB
:1012100003F0A0F800222046114603F011F903ABB9
:101220004FF4D5720821204603F02CF9E8B9039B4E
:101230000122C3F303232263934209D020460125F0
:1012400003F0E6F802232846237104B0BDE8F081DC
:10125000024603AB3721204603F014F90028EDD1F4
:10126000039AA64B13408BB1E8E703AB002237216A
:10127000204603F007F9002835D1039B9F4A1A4006
:101280008ABB11462046226303F0DAF8236B03F091
:101290000F03022B29D09A4F64259A4ADFF85C820B
:1012A000012B18BF174610E0039E16EA080FC5D1A0
:1012B00003F0D2F803466420002BBFD1039B002B20
:1012C00028DB013DBAD005F09DF903AB00223721A0
:1012D000204603F0D7F8064603AB3A4629212046BC
:1012E000002EE1D0AAE7022323636425864E06E0A0
:1012F000039B002B0EDB013DA0D005F083F903AB6F
:1013000032460121204603F0A7F803466420002B53
:10131000EED093E75A0003D5236B43F01003236309
:1013200004F1080300220221204603F0C1F800283E
:1013300084D1024604F138030321204603F0A2F8C9
:1013400000287FF47BAF04F11806A26B0921204628
:10135000334603F0ADF800287FF470AF02ABA26B08
:101360000721204603F08EF8054600287FF466AF7B
:10137000236B03F00F03022B65D07E227F213046C2
:10138000E76BFFF7D7FD70B10623402239462046B0
:10139000009503F0A9F800287FF450AFBB895BBA31
:1013A0009B0700F194800021204602F0F7FF002106
:1013B0002046FFF7A3FE054600287FF43FAF236BCE
:1013C00003F00F03022B6BD03046FFF7D9FDA0626C
:1013D00002AB4FF400721021204603F053F805468B
:1013E00000287FF42BAF029B444E33427FF426AF9C
:1013F000236B13F00E0F03F00F0233D1E36A197859
:10140000F9B101297FF41AAF204603F007F803ABC6
:10141000A26B3721204603F035F800287FF40EAF89
:10142000039B33427FF40AAF03AB0222062120461E
:1014300003F028F800287FF401AF039B33427FF4C8
:10144000FDAE0523FFE603AB304A0621204603F03C
:1014500019F80028A7D1039B28491940B1FA81F156
:101460004909A1E7022A7FF4E9AEE36A1978012964
:1014700041D002293DD00029E3D0254E204602F07C
:10148000CDFF03AB32460621204602F0FBFF0028C9
:101490007FF4D4AE039A194B1340002BD1D0CDE684
:1014A0007E227F213046FFF745FD01288CD9E66B6F
:1014B00008234FF4007220463146009503F014F8DB
:1014C00000287FF4BBAE3046FFF778FD7FE7114B75
:1014D0004022394620460093062303F005F80028F1
:1014E0007FF4ACAE397C01F00F010F3918BF012138
:1014F0005AE7094EC2E7094EC0E700BF08E0FFFD0A
:101500000080FF50000010800080FFC00001B90380
:101510000000B703F1FFFF800002B7030001B7032B
:1015200030B5104D83B0044603E0022A16D805F00A
:1015300069F801ABA26B0D21204602F0A3FF034620
:101540000A2043B9019AC2F343212A42A1F10502BC
:1015500004D10429E9D1184603B030BD012318464F
:1015600003B030BD08E0FFFD02F0AEBE0023044929
:101570000122016002714363C0E90A33704700BF72
:101580003C4A010810B53023044683F31188C16238
:1015900002F0B4FE02230020237180F3118810BDF5
:1015A0003022034682F311880022406B5A6382F393
:1015B000118870470C30FFF7F1BB00BF4FF0FF33CD
:1015C0000C30FFF7EBBB00BF3030FFF779BC00BF3A
:1015D0004FF0FF333030FFF773BC00BF0C30FFF724
:1015E000B5BB00BF4FF0FF310C30FFF7AFBB00BF02
:1015F0003030FFF71FBC00BF4FF0FF323030FFF735
:1016000019BC00BF012914BF6FF013000020704700
:1016100004F0ACB8044B10B5044640F8043B05F0A8
:1016200079F90123237210BD604A010810B53023F7
:10163000044683F3118804F0C1F8022300202372CA
:1016400080F3118810BD00BF38B5436904460D46CC
:101650003BB1294604F10C00FFF75CFB00280BDBD3
:1016600038BD0421084405F057F9294604F10C005F
:10167000FFF750FB0028F3DA201D4FF40061BDE8AE
:10168000384005F049B900BF704700BF03F0D4BC33
:101690000346002201210C301970C3E9012205F034
:1016A00097B800BF10B53023044683F3118841601A
:1016B00003F04CFD0023984214BF01220222227045
:1016C00083F3118810BD00BF10B53023044683F3A7
:1016D00011880323037003F055FF10B92378032BFF
:1016E00003D0002383F3118810BD4FF0FF3104F1C4
:1016F000080004F09DFF002383F3118810BD00BF94
:1017000010B53023044683F311880323037003F0DC
:1017100071FF10B92378032B03D0002383F31188C2
:1017200010BD4FF0FF3104F1080004F081FF0023E9
:1017300083F3118810BD00BF01F0BABF012340221E
:10174000002110B5044600F8303B0DF04BF80023A3
:10175000C4E9013310BD00BF10B5302204460B466A
:1017600082F311882422636000210C300DF03AF8D6
:10177000204601F0BBFF02230020237080F3118874
:1017800010BD00BF00EB810C5369CCF80C204BB1AD
:101790004FF0000CC3F800C0C3F804C0C3F808C081
:1017A000C3F80CC0936923B100221A605A609A6092
:1017B000DA6002F0B9B800BF30B500EB810C01244B
:1017C000DCF80C508C40B0F80AC0AD6944EA0C0C4F
:1017D000A0F80AC0AA600022C5E90032BDE8304086
:1017E00002F070B930B500EB810C0124DCF80C502C
:1017F0008C40B0F808C06D6944EA0C0CA0F808C031
:10180000AA600022C5E90032BDE8304002F0EAB922
:1018100070B5022300250446242203702946C0F82F
:1018200088500C3040F8045C0CF0DCFF204684F853
:10183000705002F005F863681B6823B12946204602
:10184000BDE87040184770BD0378052B0DD0052109
:10185000426880F88C300170136810B504460BB1F3
:10186000042198470023A36010BD70470178052923
:1018700000D0704790F88CC0426880F800C01368B0
:10188000002BF6D0184700BF70B590F870300446B2
:1018900013B1002380F8703004F18002204602F07A
:1018A00007F963689B6853B32046984738B3A56F20
:1018B00094F88030B4F88620AA422CBF2A46A2674A
:1018C000190600F1DA80002A00F08D8015223023FD
:1018D00084F8702083F3118862892046E36842F01F
:1018E00001029B696281D4E91D51002419609D6049
:1018F00021465C6002F0E6F884F3118870BD94F82C
:10190000803013F0600618461CD194F8812003F053
:101910007F0545EA022540F20232954200F05181EE
:1019200040D8B5F5807F00F008811DD9B5F5817FDD
:1019300000F01281B5F5407F04D194F88230012B7C
:1019400000F0D3800021204602F044FC0021204614
:1019500002F034FC63681B6813B1062120469847E7
:10196000062384F8703070BD012D61D0022D51D155
:1019700094F98430204694F88410002B01F00F0174
:10198000C0F2AC8002F078F8012800F0AC800228A8
:10199000D8D19A4902230022C4E91D13E26794F8C2
:1019A000803087E7B5F5006F00F0038147D9B5F5C2
:1019B000106F39D12378042B00F0A18094F8823085
:1019C0004BB10421626884F88B302170136813B125
:1019D000022120469847002394F88000C4E91D3373
:1019E000E367030663D40B22302384F8702083F36B
:1019F000118822890025E368204642F00102294629
:101A00005B6922819D60C3E9005502F0EBF885F324
:101A1000118870BD002D95D1022204F18801E5677F
:101A200061671546A26745E740F60242954289D1B3
:101A3000022573490022C4E91D15E2673AE7B5F5AE
:101A4000A06F00F09F80A5F5C065012D3FF67AAF2D
:101A500061682046B4F884304D6894F8822094F888
:101A60008310A84700283FF46DAF94F88030D0E988
:101A70000052E667C4E91D251CE7C2B109223023E4
:101A800084F8702083F3118822892046E36842F0AD
:101A900001025B692281D4E91D51002419609D6017
:101AA00021465C6002F09EF884F3118870BD142218
:101AB000302384F8702083F3118862890025E3685D
:101AC000204642F0010229469B6962819D60C3E97C
:101AD000005501F0F7FF85F3118870BD01F0DAFFC2
:101AE00001287FF454AF474954E7B4F88830E667DB
:101AF00043F00203C4E91D66A4F8883071E730237F
:101B000083F31188A3682022314604F1100003F00A
:101B10000113A3600CF066FE204601F0A5FF86F3DA
:101B200011880321636884F88B6021701B68002B87
:101B30003FF444AF2046984740E794F88230012BA9
:101B40007FF400AFB4F88830E66723F00203C4E9FD
:101B50001D66A4F8883044E794F88230002B7FF4A7
:101B6000F1AE94F8843013F00F0106D01E06204623
:101B700039D402F03BFB94F880000023C4E91D3304
:101B8000E3672EE7B4F88030B3F5A06FF5D194F891
:101B90008230204684F88A3001F0B8FE63681B6802
:101BA00013B1012120469847032394F88000237045
:101BB000E3E7012204F18B01E6671546C4E91D1233
:101BC00078E694F88230002B7FF4BCAE94F8843031
:101BD00013F00F01D1D01D06204609D402F0EEFA11
:101BE00094F88000C9E702F00DFB94F88000C4E788
:101BF00002F0F0FA94F88000BFE700BF884A0108BD
:101C0000904A01088C4A010838B590F870300446B3
:101C1000152B27D8DFE803F0272626262626272699
:101C2000260B103826262626262626262727856FC9
:101C3000B0F886309D422ED31422302384F87020D1
:101C400083F3118862890025E368204642F001028F
:101C500029469B6962819D60C3E9005501F032FF0E
:101C600085F3118838BD002102F0B4FA0021204626
:101C700002F0A4FA63681B6813B106212046984756
:101C8000062384F8703038BDC36F03B19847002332
:101C900084F8703038BDC3681B8AB5FBF3F203FBD0
:101CA0001255002DC8D1302383F3118802892946AB
:101CB000C36842F001025B6902819D60C3E900557F
:101CC00001F090FF85F311880A2384F8703038BD45
:101CD00038B590F870300446152B21D8DFE803F0B2
:101CE00021202020202021202021212120202020EF
:101CF00020202020320B0B22302380F8702083F329
:101D0000118802890025C36842F0010229465B69F7
:101D100002819D60C3E9005501F064FF85F31188DD
:101D200038BD002102F056FA0021204602F046FAA2
:101D300063681B6813B1062120469847062384F880
:101D4000703038BDC3689B695B68002BE8D1C36FF6
:101D500003B19847002384F8703038BD0A4A09015E
:101D60004FEA501C0123C9B200B500F01F0E104409
:101D700003FA0EF380F8001302EB8C01C1F88031F6
:101D800042F82C305DF804FB00E100E000F01F0C8D
:101D90000122084B002102FA0CF24FEA501C1844B1
:101DA00003EB8C03C3F88020C3F8802180F8001374
:101DB000704700BF00E100E010B5074C204603F07B
:101DC000CDFF064802F0CCFD204603F0DFFFBDE862
:101DD000104004F053BF00BFDC4A0108C4090024CE
:101DE00010B5074C204603F0B9FF064803F06CFD20
:101DF000204603F0CBFFBDE8104004F03FBF00BF1A
:101E0000D04A01089C0B002408B5064803F0A6FF41
:101E100003F04EFC034803F0B9FFBDE8084004F0AE
:101E20002DBF00BFC44A010808B5054803F096FF5E
:101E3000034803F0ABFFBDE8084004F01FBF00BF3C
:101E4000B84A010810B5074C204603F087FF064842
:101E500003F054FC204603F099FFBDE8104004F065
:101E60000DBF00BFAC4A01087C0B002408B5054833
:101E700003F074FF034803F089FFBDE8084004F055
:101E8000FDBE00BFA04A010810B5074C204603F074
:101E900065FF064803F032FC204603F077FFBDE8FB
:101EA000104004F0EBBE00BF944A01087C0B0024F4
:101EB00008B509217A20FFF751FF09213120FFF7EA
:101EC0004DFF07211C20FFF749FF07212B20FFF7BB
:101ED00045FF07212C20FFF741FF07212D20FFF7A9
:101EE0003DFF07212E20FFF739FF0C212720BDE8F9
:101EF0000840FFF733BF00BF38B5364B00224FF024
:101F0000FF31354CD3F88000344D60F00040C3F809
:101F10008000D3F8800000F00040C3F88000D3F8C0
:101F20008000D3F88400C3F88410D3F88400C3F889
:101F30008420D3F88400D86F2043D867DC6F28480A
:101F40002C40DC67DC6FD3F888402043C3F888005E
:101F5000D3F88800C0F30A00C3F88800D3F88800DB
:101F6000D3F89000C3F89010D3F89000C3F89020F5
:101F7000D3F89000D3F89400C3F89410D3F89400E9
:101F8000C3F89420D3F89400D3F89800C3F89810BD
:101F9000D3F89800C3F89820D3F89800D3F88C00B1
:101FA000C3F88C10D3F88C00C3F88C20D3F88C00C5
:101FB000D3F89C00C3F89C10D3F89C10C3F89C2065
:101FC000D3F89C3000F0D6FC00F04EFFBDE838405E
:101FD000FFF76EBF00440258FFEFFF7F0010008044
:101FE00000F8FFFF6F4B02206F4AD3F8F410014353
:101FF00010B4C3F8F410D3F81C110143C3F81C113A
:10200000D3F81C31D06053689804FCD5674800238E
:102010000121674C10604FF440409160D4606549E5
:1020200013619061604ACB6293699904FCD513688F
:102030005C4943F4807313600B6F03F44073B3F592
:10204000007F04D04FF4803200230A670B675549A4
:102050000B6843F001030B600B685B07FCD50023A2
:10206000504A0B61136913F03803FBD101204FF084
:1020700080414FF00054106051604F484F49D46088
:102080005367D06211611368464843F4A02313607C
:1020900003689C03FCD50368424943F48053036002
:1020A0000B689804FCD50B683E4A43F080030B6034
:1020B0001368D905FCD5516F3A4B41F001015167C6
:1020C0005A6F9207FCD500223D483E49986242F281
:1020D000E8605A631963A1F57F31DA632F393A4A10
:1020E0003A4C9C6358641964DA6219682D4A41F0CD
:1020F000A8511960136803F02853B3F1285FF9D190
:1021000048244FF4886340204FF0005194618224AA
:10211000D3614FF4801310624FF01070D1641465D6
:102120002B495365312390650B600B6803F00F0357
:10213000012BFAD11B4A136943F00303136113699E
:1021400003F03803182BFAD1D2F8DC305DF8044BD9
:1021500043F00053C2F8DC30D2F8043143F00053AE
:10216000C2F80431D2F80431D2F8DC3043F08043B5
:10217000C2F8DC30D2F8043143F08043C2F80431B5
:10218000D2F80431D2F8DC3043F00043C2F8DC303E
:10219000D2F8043143F00043C2F80431D2F80431DC
:1021A000704700BF004402580048025800C000F0C9
:1021B00002000001000400580000FF010088100820
:1021C000222020005F0207039B0BFF018F1E0303E9
:1021D00000200052F8B53C4C00253C4E20463C4FB8
:1021E000FEF7FEFE3B4B67630521A3621220C4E9A4
:1021F0000B65394CFFF7B2FD2046FEF7F1FE374B79
:1022000025630521364D7F206763C4E90A35FFF752
:10221000A5FD344B4FF44031D3F8D82042F02002D2
:10222000C3F8D820D3F8002142F02002C3F80021DF
:10223000D3F80021D3F8802042F02002C3F8802098
:10224000D3F8802022F02002C3F88020D3F8802029
:10225000B160D3F8D82022F02002C3F8D820D3F8F8
:10226000002122F02002C3F80021D3F80021D3F886
:10227000E02042F08072C3F8E020D3F8082142F059
:102280008072C3F80821D3F80821D3F8882042F0DF
:102290008072C3F88820D3F8882022F08072C3F8B7
:1022A0008820D3F88820A960D3F8E02022F080723B
:1022B000C3F8E020D3F8082122F08072C3F8082187
:1022C000D3F80831F8BD00BF000700240023024006
:1022D000162C02000020024038070024006002583B
:1022E000006302580044025838B543680446002B86
:1022F00038D02378012B01D0002038BD434DAC42AB
:1023000067D0434B9C4230D0A36A4FF080524FF4C9
:10231000F0609A6003F0B2FCA26A63689168586842
:102320003C4B0B4093603C4B916803400B439360E4
:10233000936843F0004393609368002BFCDBAC424E
:102340000CD0334B9C4209D001231360936843F0B7
:10235000010393601368DB07FCD5CDE7A36A996896
:102360009960F1E72D4B4360C3E723462C4A0521D2
:10237000102000F09FFD2063002843D0294B7321DB
:10238000D3F8E02042F08072C3F8E020D3F80821AF
:1023900042F08072C3F80821D3F80821D3F88820CE
:1023A00042F08072C3F88820D3F8882022F080722F
:1023B000C3F88820D3F8883000F048FEA36A226B67
:1023C00003F140011268916062681268C3F8C0208E
:1023D0009AE72346124A0521102000F06BFD206386
:1023E00080B1104B0921D3F8D82042F02002C3F865
:1023F000D820D3F8002142F02002C3F80021D3F8FE
:102400000031D9E76FF0100038BD00BF000700248D
:1024100038070024FFFFFEBF00000140004B010809
:10242000E92600080044025838B50378022B00D092
:1024300038BD826A05469368590706D5936843F00C
:10244000100393609368DB06FCD40023D361936888
:1024500043F002039360946814F00204FBD11C4B18
:102460004FF000519D4291601AD01A4B9D42DFD12E
:10247000286B00F0B5FD184BEA6A4FF440312C632D
:102480009160D3F8E02022F08072C3F8E020D3F806
:10249000082122F08072C3F80821D3F8083138BD32
:1024A000286B00F09DFD0C4BEA6A4FF440312C6321
:1024B0009160D3F8D82022F02002C3F8D820D3F8B6
:1024C000002122F02002C3F80021D3F8003138BDEA
:1024D0000007002438070024004402582F4B0269EB
:1024E0009842F0B43BD02E4B984238D0516800242B
:1024F000836A18681860D06810B14FF4647058602F
:10250000506901391861D069D861106A1862506A3F
:102510005862906AC3F8B000D06AC3F8B400106B78
:10252000C3F8B800506BC3F8BC00906BC3F8A000B0
:10253000D06BC3F8A400106C5861506C9861906C1B
:102540000143D06C19635863D2E914129963DA63BA
:10255000DC609A6842F00402F0BC9A60704711781F
:10256000466B146981B944F00104C5681F6B996812
:102570003B68D960516801FB05F55D601E601D6810
:1025800045F001051D60B3E7C56844F00304012D63
:1025900094BF46F4807646F48476E7E7000700248B
:1025A00038070024174B984221D0174B98420DD082
:1025B000826A9368590706D5936843F010039360C5
:1025C0009368DB06FCD40023D3617047016B0A6873
:1025D000136823F01F0313601368DB07FCD491F822
:1025E0000CC03D234A6803FA0CF31360E0E7016B6B
:1025F0000A68136823F01F0313601368DB07FCD419
:10260000EDE700BF000700243807002470B5066915
:1026100076B311F01005044606D00578A5F1030540
:10262000B5FA85F56D096D000B0648BF45F0040548
:10263000C8051ED58A0545F0080501D545F01005E9
:102640002046FFF7AFFFF368C3B105222946227089
:1026500098472378052B11D0302383F311884FF04E
:10266000FF3104F1140003F0F1FF002383F311881C
:1026700070BD8B05E2D4002DE2D170BD0222002393
:1026800022702361E8E700BF10B5084C204603F034
:1026900065FB074B074819681960FFF7B7FF20462D
:1026A00003F074FBBDE8104004F0E8BAF44A0108F6
:1026B000002002400007002410B5084C204603F01B
:1026C0004DFB074B074819681960FFF79FFF20462D
:1026D00003F05CFBBDE8104004F0D0BAE84A010802
:1026E000006002583807002411F00C0F70B5044642
:1026F0000ED105695DB18A0623D52B7873B3AB681B
:102700002BB10422027098472378042B3CD070BD73
:10271000FFF748FF0369DB68DBB105220121027086
:1027200098472378052B14D0302383F311884FF07A
:10273000FF3104F1140003F089FF002383F31188B3
:1027400070BDCB06E3D5AB68002BE0D0BDE8704090
:1027500018470222002322702361E5E7FFF722FFDA
:10276000AB68A3B10422027098472378042B0ED0E3
:10277000302383F31188002104F1140003F066FF75
:10278000002383F3118870BD0323237070BD0222E0
:10279000002322702361EBE70A4808B503F0DEFA54
:1027A000094B0A481968426801F00E0159600AB1E4
:1027B00080689047034803F0E9FABDE8084004F058
:1027C0005DBA00BF5C4B010800540258700700243A
:1027D0000B4810B503F0C2FA0A4B0B481968C268DF
:1027E000090901F00E010C015C600AB10069904713
:1027F000034803F0CBFABDE8104004F03FBA00BF35
:10280000504B010800540258700700240B4810B5C3
:1028100003F0A4FA0A4B0B4819684269090A01F04F
:102820000E010C025C600AB180699047034803F016
:10283000ADFABDE8104004F021BA00BF444B0108D6
:1028400000540258700700240B4810B503F086FAB4
:102850000A4B0B481968C269090B01F00E010C0301
:102860005C600AB1006A9047034803F08FFABDE844
:10287000104004F003BA00BF384B0108005402585E
:10288000700700240B4810B503F068FA0A4B0B4898
:102890001968426A090C01F00E010C045C600AB16F
:1028A000806A9047034803F071FABDE8104004F0D5
:1028B000E5B900BF2C4B01080054025870070024F2
:1028C0000B4810B503F04AFA0A4B0B481968C26A64
:1028D000090D01F00E010C055C600AB1006B904718
:1028E000034803F053FABDE8104004F0C7B900BF35
:1028F000204B010800540258700700240B4810B503
:1029000003F02CFA0A4B0B481968426B090E01F0D0
:102910000E010C065C600AB1806B9047034803F01F
:1029200035FABDE8104004F0A9B900BF144B010806
:1029300000540258700700240B4810B503F00EFA3B
:102940000A4B0B481968C26B090F01F00E010C0706
:102950005C600AB1006C9047034803F017FABDE8C9
:10296000104004F08BB900BF084B01080054025816
:10297000700700240B4800220B4B0146026003F154
:10298000A00C0A4801E053F8140C143302604A60AA
:10299000634541F8082FF6D1054B4FF0FF325A60DE
:1029A000704700BF70070024804B0108085402588C
:1029B000005402580728F8B5044606D9082815D14E
:1029C00001204FF0070C002402E00120A446A040A3
:1029D000204E356805420CD04FF0010E01E0054253
:1029E00007D00134A4450EFA04F0F8D20025284699
:1029F000F8BD0543184F356006EBC40604EB8405AB
:102A0000C6E90123154BA60007EB8505D3F8E000C6
:102A100040F40010C3F8E000D3F8080140F40010BF
:102A2000C3F80801D3F8083112B1687CFFF796F9B2
:102A300033190E22002007EB830157F823404B681F
:102A4000097A8A40196821F00F01196062601860E4
:102A50002846F8BD70070024684B0108004402585E
:102A600010B50446407CFFF791F90F49237C012003
:102A70000A680024984001EBC30322EA0002C3E97C
:102A80000144D3B20A6073B9084BD3F8E02022F4B2
:102A90000012C3F8E020D3F8082122F40012C3F892
:102AA0000821D3F8083110BD7007002400440258F3
:102AB000C3681960704700BF0A4808B503F04EF9B3
:102AC000094B0A481968426801F03D0199600AB152
:102AD00080689047034803F059F9BDE8084004F0C6
:102AE000CDB800BF5C4C010800000240B4070024D0
:102AF0000B4810B503F032F90A4B0B481968C2684D
:102B0000890901F03D018C019C600AB10069904780
:102B1000034803F03BF9BDE8104004F0AFB800BF34
:102B2000504C010800000240B40700240B4810B5C7
:102B300003F014F90A4B0B4819684269090C01F0BB
:102B40003D010C049C600AB180699047034803F082
:102B50001DF9BDE8104004F091B800BF444C0108D5
:102B600000000240B40700240B4810B503F0F6F84B
:102B70000A4B0B481968C269890D01F03D018C05AB
:102B80009C600AB1006A9047034803F0FFF8BDE873
:102B9000104004F073B800BF384C01080000024038
:102BA000B40700240A4808B503F0D8F8094B0A48CE
:102BB0005968426A01F03D01D9600AB1806A9047C4
:102BC000034803F0E3F8BDE8084004F057B800BF3D
:102BD0002C4C010800000240B40700240B4810B53B
:102BE00003F0BCF80A4B0B485968C26A890901F026
:102BF0003D018C01DC600AB1006B9047034803F093
:102C0000C5F8BDE8104004F039B800BF204C0108F9
:102C100000000240B40700240B4810B503F09EF8F2
:102C20000A4B0B485968426B090C01F03D010C043A
:102C3000DC600AB1806B9047034803F0A7F8BDE859
:102C4000104004F01BB800BFBC4C0108000002405B
:102C5000B40700240B4810B503F080F80A4B0B486A
:102C60005968C26B890D01F03D018C05DC600AB129
:102C7000006C9047034803F089F8BDE8104003F06A
:102C8000FDBF00BFB04C010800000240B4070024A3
:102C90000A4808B503F062F8094B0A481968426C03
:102CA00001F03D0199600AB1806C9047034803F040
:102CB0006DF8BDE8084003F0E1BF00BFA44C010877
:102CC00000040240B40700240B4810B503F046F896
:102CD0000A4B0B481968C26C890901F03D018C014F
:102CE0009C600AB1006D9047034803F04FF8BDE8BF
:102CF000104003F0C3BF00BF984C0108000402401D
:102D0000B40700240B4810B503F028F80A4B0B4811
:102D10001968426D090C01F03D010C049C600AB178
:102D2000806D9047034803F031F8BDE8104003F090
:102D3000A5BF00BF8C4C010800040240B40700246A
:102D40000B4810B503F00AF80A4B0B481968C26D1E
:102D5000890D01F03D018C059C600AB1006E904721
:102D6000034803F013F8BDE8104003F087BF00BF2D
:102D7000804C010800040240B40700240A4808B54A
:102D800002F0ECFF094B0A485968426E01F03D0120
:102D9000D9600AB1806E9047034802F0F7FFBDE8A2
:102DA000084003F06BBF00BF744C010800040240F0
:102DB000B40700240B4810B502F0D0FF0A4B0B48B3
:102DC0005968C26E890901F03D018C01DC600AB1CD
:102DD000006F9047034802F0D9FFBDE8104003F0B0
:102DE0004DBF00BF684C010800040240B407002436
:102DF0000B4810B502F0B2FF0A4B0B485968426FFE
:102E0000090C01F03D010C04DC600AB1806F9047B1
:102E1000034802F0BBFFBDE8104003F02FBF00BF26
:102E2000144C010800040240B40700240B4810B5FC
:102E300002F094FF0A4B0B485968C26F890D01F0EC
:102E40003D018C05DC6012B1D0F88000904703484A
:102E500002F09CFFBDE8104003F010BF084C0108D1
:102E600000040240B407002400220D4830B40D4C89
:102E700013460D4D226001E055F8330004EB830149
:102E800002330260202B4A60F6D14FF0FF3307492E
:102E9000074A8B60CB609360D36030BC704700BF43
:102EA00010000240B4070024C84C01080000024092
:102EB00000040240F8B5122820D8DFE800F00A0A22
:102EC0000A0A0A0A0A0A0A0A0A0A0A0A0A0A6F7493
:102ED00079004FF0010C05460CFA00FC374E3468BF
:102EE00014EA0C0F0DD04FF0010E02E014EA0C0FA3
:102EF00007D00130A8420EFA00FCF7D90025284679
:102F0000F8BD44EA0C04346006EBC0062C4CC6E95C
:102F100001235FFA8CF3060104EB001573B1294B12
:102F2000D3F8D80040F00100C3F8D800D3F800016E
:102F300040F00100C3F80001D3F800311CF47F4FCA
:102F40001CD1A059036823F01F030360036813F02A
:102F50000103FBD134443D264FF0210E94F80CC000
:102F6000676806FA0CF63E600360C0F814E0002AB9
:102F7000C5D0A07BFEF7F2FE2846F8BD114BD3F872
:102F8000D80040F00200C3F8D800D3F8000140F0A8
:102F90000200C3F80001D3F80031D2E74FF0010C72
:102FA0000F2500209AE74FF0010C0725002095E738
:102FB0004FF0800C0F25072090E700BFB4070024D6
:102FC000C84C01080044025808B54FF0300C8CF38F
:102FD0001188FFF76FFF002383F3118808BD00BF3E
:102FE00010B50446807BFEF7D1FE1649607B0122B6
:102FF0000B68824023EA0203DAB20B6072B9124A0C
:10300000D2F8D81021F00101C2F8D810D2F800117E
:1030100021F00101C2F80011D2F8002113F47F4F12
:103020000ED1094BD3F8D82022F00202C3F8D820E1
:10303000D3F8002122F00202C3F80021D3F80031B6
:1030400010BD00BFB4070024004402588368196013
:10305000704700BF704700BF2DE9F04F02F0030931
:10306000C2F34114C2F38006C2F3C105C2F3C31711
:10307000CE4600224FF00F0BA04616E00368072A49
:103080000AEA030343EA0E0303604AD8036A23EA09
:10309000040343EA0C030362490840D0760001327E
:1030A000AD004FEA88084FEA8E0ECB07F4D5012415
:1030B0004368B9F1020F04FA02F423EA04034FF063
:1030C000030443EA060343604FEA420304FA03F3AE
:1030D000846824EA03046FEA030A44EA050484606E
:1030E000C46824EA030C02F007044CEA08034FEA20
:1030F0008404C36007FA04FC0BFA04F4BED1072A67
:1031000016D8036A23EA040343EA0C030362036844
:1031100049080AEA030343EA0E030360BED1BDE88F
:10312000F08F436A23EA040343EA0C034362B3E7E4
:10313000436A23EA040343EA0C034362E7E700BF60
:1031400070B5704D7048AB6B9C6902F007FEAA6BBE
:1031500004F0FE0314F01001D3614AD120062CD4F0
:10316000610623D52B78032B00F08D80286B016836
:103170000B6823F01F030B600B68DB07FCD4047B98
:103180003D234168A3400B605368302143F48043E2
:103190005360136823F04003136081F3118800210A
:1031A0005A4803F053FA002383F31188564802F07B
:1031B000EDFDBDE8704003F061BD2B78032B52D0CC
:1031C0002B6B1B685B68FF2B00F28C801B0468680C
:1031D0005468806803434E48204003434A480B43E9
:1031E00043F48063536002F0D1FDBDE8704003F00A
:1031F00045BD286B01680B6823F01F030B600B684B
:10320000DC07FCD4047B3D234168A340686B0B6062
:1032100001680B6823F01F030B600C6814F00104B5
:10322000FBD141683D23007B83400B605368A96854
:1032300043F4804341F00401A960302153601368D6
:1032400023F04603136081F311886FF001012F48CA
:1032500003F0FCF984F311882B4802F097FDBDE8D8
:10326000704003F00BBD6B6B1B685868FF283ED89D
:1032700000046B6856689C68254B33402343034326
:103280000B43536092E7686B01680B6823F01F03E0
:103290000B600B6813F00103FBD144683D21007BF8
:1032A00081402160296B0968486800283FF46CAFB1
:1032B0004868FF2820D800046C685668A46820433A
:1032C000134C344020430343042043F48063536091
:1032D0000B6843F001030B605368287043F40053FC
:1032E000536063E74FF47F034FF080716FE74FF453
:1032F0007F004FF08071BCE74FF47F004FF0807388
:10330000DAE700BF38080024D44D0108540800242F
:10331000FFFF00FE38B52C4C2C48A36B9D6902F0D2
:103320001DFD216BA36B05F47C52DA610A681368FA
:1033300023F01F0313601368DB07FCD4087B3D23D5
:103340004A688340616B13600A68136823F01F03A7
:1033500013601368D807FCD4087B3D234A68E9054D
:1033600003FA00F31360A36844BF43F00103A360B2
:10337000AA0502D543F00203A360680519D543F0FE
:103380000803E904A36002D543F02003A3603023BF
:1033900083F311886FF001010D4803F057F9002302
:1033A00083F31188094802F0F1FCBDE8384003F0CE
:1033B00065BCEA04E8D4002BE9D1044802F0E6FC3D
:1033C000BDE8384003F05ABC38080024C84D010855
:1033D0005408002410B50A4C2046FDF745FE002392
:1033E000084A05214820E361A263C4E90C33FEF7D3
:1033F000B5FC05214920BDE81040FEF7AFBC00BF79
:1034000038080024005C004038B5856B04462B6802
:1034100023F001032B600378012B16D0626805F1BD
:103420002400D4E90C3154681B68096898604CF298
:103430009003126805F12800234388602B602A61FD
:103440002B6843F001032B6038BD224B40F25641FC
:1034500040F216429842C0E90A21DFD11E490023FA
:103460001020D1F8902042F40002C1F89020D1F849
:10347000902022F40002C1F89020D1F89020D1F8D9
:10348000E82042F40002C1F8E820D1F8102142F40B
:103490000002C1F810211A46D1F810110521FFF7DA
:1034A00009FD0023206305211A461020FFF702FDC5
:1034B00049216063206BD4E90A2342F4403243F48B
:1034C0004033A262E362FFF7C1FD4A21606BFFF760
:1034D000BDFDA3E738080024004402582DE9F84355
:1034E000002480468946089F856B846084F3118898
:1034F000416BD8F82C600868D8F83010096806606D
:103500003026C2604360D8F828300B60099BCF603A
:103510004B60FDF773FB86F31188AB69190412D574
:10352000074606E084F3118886F31188AB691B0413
:1035300009D5FDF763FBC31BB3F5FA7FF2D34FF058
:10354000FF30BDE8F883D8F80430D8F838409968DF
:103550000A0547D5D8F83430C4F804901868426892
:10356000FF2A48D8120400276668254B33400B43D6
:103570000A993B4313436360036843F0010303600C
:1035800008F11C002B6843F040032B606B6843F488
:1035900000536B6003F04CF8441CD2D16B68D8F830
:1035A000304043F4804322686B60136823F01F03AC
:1035B00013601368D907FCD4227B3D23D8F834105C
:1035C000934064680A682360136823F01F03136044
:1035D0001368DB07FCD40C7B3D234A68A3401360CF
:1035E000BDE8F8834FEA49036360D8F834301868BF
:1035F0004268FF2AB6D94FF47F024FF08077B3E7D5
:10360000FFFF00FED0F8943000F1080100224FF0D7
:10361000010C9B6870B500F10C0ED0F890500EEBC9
:10362000830E51F8044F02F110030CFA02F001323C
:10363000A6690CFA03F326B1D5F81C683343C5F824
:103640001C38636923B1D5F81C381843C5F81C0829
:103650007145E6D170BD00BF70B400224FF0FF3459
:103660008E6800EB421102F1010CD1F800590B46B3
:10367000002D05DAD1F8005945F08045C1F8005910
:10368000D1F8005B002D05DAD1F8005B45F08045EC
:10369000C1F8005BB242C3F808496246C3F8084B60
:1036A000DFD14FF0011370BCC0F81C38704700BF69
:1036B00038B5084D084C2846FEF740F8074A084B35
:1036C0002046C5E92423FEF739F8064A064BC4E92B
:1036D000242338BD74080024100900240000084089
:1036E0001C4E010800000440284E01080378012BFD
:1036F00000D070474B4B984270B50546D0F89060AB
:103700006FD0494B984235D03446C0230022C6F8CA
:10371000002E33604FF40413B3632369002BFCDAEB
:1037200001230C20236102F0A9FA2369DB07FCD4F2
:10373000122002F0A3FA2369002BFCDA0024D5E959
:103740002401B460FFF788FF6B68C6F81048DB6897
:10375000C6F81448C6F81C484BB1344BB3614FF05F
:10376000FF337361B36843F00103B36070BD304B46
:10377000B361F4E72F4B0E214D20D3F8D82042F04F
:103780000072C3F8D820D3F8002142F00072C3F8C9
:103790000021D3F80021D3F8802042F00072C3F852
:1037A0008020D3F8802022F00072C3F88020D3F864
:1037B0008020D3F8D82022F08062C3F8D820D3F834
:1037C000002122F08062C3F80021D3F80031FEF717
:1037D000C5FA194A194BD5F89040F260C6F800387E
:1037E00093E7144B0E216520D3F8D82042F00062F5
:1037F000C3F8D820D3F8002142F00062C3F80021BA
:10380000D3F80021D3F8802042F00062C3F8802072
:10381000D3F8802022F00062C3F88020D3F88030F3
:10382000D5E700BF7408002410090024083C30C00C
:10383000003C30C000440258401400400300200205
:10384000F8B52023D0F8905007462B612C6914F06E
:103850002004FBD112204FF0006602F00FFAD7F8D7
:1038600094C04FF001134FF0FF31DCF80800C5F8A9
:103870003448C5F81C3805EB4413844204F10104B4
:10388000C3F80069C3F8006BC3F80819C3F8081B34
:10389000F1D1DCF800301021D7F89020C7F898302B
:1038A0006B621161146914F01004FBD1122002F054
:1038B000E5F9D5F80028124B22F4FE621149C5F84B
:1038C0000028AA6913430922AB61C5F81028D7F86C
:1038D0009830C5F81428F9604FF0C0410A4AC5F87D
:1038E000101B03F1100143F48013C5F8002BC5F839
:1038F0001049C5F80029C7F89810AB62F8BD00BFA1
:1039000010000C00F84D010840800010D0F8902005
:1039100090F88A10D2F8003823F4FE6343EA0113CA
:10392000C2F80038704700BF00EB8103DB681A68FB
:1039300002F003022DE9F0410D460FFA81F8511E05
:10394000D0F89040464F064602294FF0000198BF3C
:1039500007EB824704EB4512C2F8101B69019A6914
:10396000002A47D0588A05F1580238435201A05026
:1039700005F1100001228240D4F81C080243C4F86B
:103980001C2862180021C2F810195A69002A45D073
:10399000998B05F13F001A8A012904EB80004FEA58
:1039A0009203D6F8982088BF4B43A90103EB020C81
:1039B00041F0200142EA0342C6F898C0426021610A
:1039C00023699A06FCD406EB8806122002F056F909
:1039D00005F14802F36852011B8A43EA85533B43D1
:1039E000A3500123D4F81C28AB401343C4F81C385F
:1039F000BDE8F08104EB481205F1100C012000FA3B
:103A00000CF0D2F800CB2CF4004CC2F800CBD4F868
:103A10001C2822EA0002C4F81C28B2E705F13F0383
:103A2000104A04EB83035A60AB0143F02003236187
:103A300023699B06FCD404EB4818122002F01EF9FF
:103A40000122D8F80039AA4023F40043C8F800390D
:103A5000D4F81C3823EA0203C4F81C38BDE8F0810E
:103A600000800010000400020346D0E924010A6827
:103A7000C3F89820FFF7F0BD5831D0F890304901D5
:103A80005B5813F4004004D013F4001F0CBF022055
:103A9000012070474831D0F8903049015B5813F449
:103AA000004004D013F4001F0CBF02200120704717
:103AB00000EB8101CB681B6A19685B681160536079
:103AC000704700BF00EB8103DA68936910B41C688B
:103AD000DC6009B9402C26D8538A1268D0F89000CF
:103AE00002F0030C5A1E2244BCF1010FB2FBF3F2A8
:103AF00002FB03F303F1030323F0030343EAC2438E
:103B000000EB411243F0C043C2F8103B0ED009B2A3
:103B100000EB41105DF8044BD0F8003B43F0044348
:103B2000C0F8003B704740241C60D5E7D0F8083847
:103B300000EB411209B213F4807FD2F8003B14BFAE
:103B400043F0805343F00053C2F8003BE0E700BF6E
:103B50002DE9F041D0F8906007460C4606EB411382
:103B6000D3F8085B2A07C3F8085B03D5D6F81438E6
:103B70001B0731D4EA072DD5D6F81438DB0729D531
:103B800007EB8403D9688A6954B9488A5368B3FB40
:103B9000F0F500FB15331BB91068D36898420DD3BC
:103BA00001227B89CD68A24023EA02037B818DB18B
:103BB000214638462B46BDE8F04118471B1A546091
:103BC0003021136081F3118821463846FFF77AFFD0
:103BD00084F31188BDE8F08100EB8103DB685B684A
:103BE0009847C7E700EB810310B4DC68626913688B
:103BF000D360FBB9D0F890204FF4002002EB4113C2
:103C0000C3F81009236803F00303012B2BD008B27B
:103C100002EB40100123D0F800498B4044F00444EB
:103C2000C0F80049D2F834185DF8044B0B43C2F8D1
:103C30003438704709B9402B26D8B4F810C0D0F8F2
:103C400090200CF1FF301844B0FBFCF043EAC04375
:103C500002EB411043F00053C0F81039236803F021
:103C60000303012BD3D1D2F8083808B213F4807FB4
:103C700002EB4113D3F8004914BF44F0805444F0E0
:103C80000054C3F80049C3E740231360D5E700BFE1
:103C90002DE9F84FD0F8906081460C464FEA411B61
:103CA00006EB4113D3F80859EF07C3F8085903D5B9
:103CB000D6F81038DA070CD42B0608D54FF00108D7
:103CC000D6F8343808FA04F813EA080F15D1BDE81D
:103CD000F88F00EB8103DF687B69D3F800C0DA68F6
:103CE000944546D301220389BF688A4023EA020330
:103CF0000381002FE0D0B847DEE709EB8403DB68DF
:103D00005E69D6E90075AF4240D9611CD9F890A030
:103D1000B3F81090C9B20AEB0B0E0AEB0131A7EB16
:103D2000050CDEF81839CC459BB228BFCC46BCEB5D
:103D3000830FCCD8B468BCF1040F23680B600BD997
:103D4000ACF10500234620F003000430204453F872
:103D5000042F98420A60FAD165446444BD42C6E922
:103D60000154DCD3DAF8343823EA0803CAF83438CB
:103D7000ADE7A2EB0C0200271A605F60302383F3EB
:103D80001188FFF72FFF87F3118895E7D9F890A0E6
:103D9000E8E700BF2DE9F84F4FF04009DFF8C8A36E
:103DA0000546D0F8907070E0320500F19180B304C0
:103DB0000CD5D7F8083813F0060FFB6823F47053BE
:103DC0000CBF43F4105343F4A053FB60340710D5E9
:103DD0006B68DB68002B00F07E812B78052B00F0F0
:103DE00082812846FFF70EFC6B68DB680BB1284622
:103DF0009847F00274D4B10200F1B4803303D7F8CD
:103E000018481AD5E00300F13981A10300F131818E
:103E1000620300F12981230300F12181E00200F116
:103E20001981A10200F11181620200F109812302CE
:103E300000F10181E00100F1F48071031AD5E2077D
:103E400000F14481A30700F13C81600700F1348157
:103E5000210700F12C81E20600F12481A30600F184
:103E60001C81600600F11481210600F10C81E2053D
:103E700000F1DC80F30600F1A28016EA0A0F00F0E0
:103E8000CE80B9F1010900F0CA807E69BB691E408D
:103E900016F480587E6140F06281002E84DAD7F8F3
:103EA000003E990705D0D7F8003E23F00303C7F87A
:103EB000003E2846FFF7A6FBD7F80438284623F033
:103EC0000103C7F80438FDF7D1FC32057FF56FAF69
:103ED000D5E92401FFF7C0FB2846FDF7B5FC66E7EE
:103EE0000020D5F890B0044608E00134D5F89430AD
:103EF000E4B29B689C4220463FF67DAF0BEB441139
:103F0000D1F8003903F44023B3F5802FEDD1D1F877
:103F10000039002BE9DAD1F8003943F09043C1F8B9
:103F20000039D1F80039002BFBDB8001D5F8901067
:103F300040F0200008610B699A06FCD4122001F0C1
:103F40009DFE0123298903FA04F005EB8403DB6855
:103F500021EA00019B682981002BC6D02146284612
:103F60009847C2E7D5F890B00024012207E0013459
:103F7000D5F89430E4B29B689C423FF63FAF0BEB20
:103F80004411D1F8003B03F44023B3F5802FEED168
:103F9000D1F8003B05EB840002FA04FE002BE6DAC0
:103FA000C3682146B5F80AC02846DB682CEA0E0C27
:103FB000A5F80AC0002BDAD098470122D7E7D5F838
:103FC0009040236A03F4F011C3F30A1203F00F03C5
:103FD000B1F5802F00F09180B1F5402F7FF44DAF07
:103FE00005EB8303DB68186A002A3FF446AF04F54B
:103FF0008054002313F0030F014601D1D4F8008050
:10400000072B03F1010304D801F8018B4FEA1828AC
:1040100008469A42EED116EA0A0F7FF432AFBDE8A5
:10402000F88F08212846FFF793FD06E70821284668
:10403000FFF72EFE1EE707212846FFF789FDF9E668
:1040400006212846FFF784FDF1E605212846FFF703
:104050007FFDE9E604212846FFF77AFDE1E603212A
:104060002846FFF775FDD9E602212846FFF770FDC7
:10407000D1E601212846FFF76BFDC9E6002128465D
:10408000FFF766FDC1E607212846FFF701FEEEE6D1
:1040900006212846FFF7FCFDE6E605212846FFF746
:1040A000F7FDDEE604212846FFF7F2FDD6E6032100
:1040B0002846FFF7EDFDCEE602212846FFF7E8FD92
:1040C000C6E601212846FFF7E3FDBEE600212846AB
:1040D000FFF7DEFDB6E6BB6923F00803BB612B7872
:1040E000052B7FF47EAED7F8003E284623F003036D
:1040F000C7F8003EFDF7BAFB73E605EB8300C16825
:104100008B69D3E9001BD3F808C0A1EB0B0EBAB141
:1041100004F58054002313F0030F614601D1D4F855
:1041200000809E4503F1010304D901F8018B4FEA99
:1041300018288C469A42EED1C3689B69D3E901BC2A
:10414000724505D20CEB02015A44C3E9012194E601
:104150000CEB0E020EEB0B01C3E901128DE62846B3
:10416000BDE8F84FFDF754BB3000000410B5074C14
:10417000204601F0F3FD0648FFF70CFE204601F053
:1041800005FEBDE8104002F079BD00BFEC4D01080E
:104190007408002410B5074C204601F0DFFD0648E6
:1041A000FFF7F8FD204601F0F1FDBDE8104002F0F8
:1041B00065BD00BFE04D010810090024D0F8903023
:1041C00003EB4111D1F8003B43F40013C1F8003B6D
:1041D000704700BFD0F8903003EB4111D1F800399F
:1041E00043F40013C1F80039704700BFD0F8903095
:1041F00003EB4111D1F8003B23F40013C1F8003B5D
:10420000704700BFD0F8903003EB4111D1F800396E
:1042100023F40013C1F80039704700BF01F0010317
:104220008A0748BF43F002034A0748BF43F0080328
:104230000A0748BF43F00403CA0648BF43F010030F
:104240008A06426B48BF43F020031A43426370471B
:10425000F8B5302305460F46164683F31188446CA3
:10426000E36BA3B900232365E363E362606B10F49F
:10427000807008D04FF0FF32A26383F31188012FC2
:104280000CD81846F8BD80F311880120F8BD4FF016
:10429000FF31403002F0CCF96C6CE3E76A6C41F21C
:1042A0000C119360D160516B11F04503FBD0936307
:1042B00011F0050303D1526918463260F8BD284653
:1042C000FFF7ACFF0120F8BD10B5074C2046FDF705
:1042D0004DF9064B00200649064AA164E263C4E991
:1042E0001003054BE36410BDC409002400700052A4
:1042F000006CDC020000002000020020C36A83B1D1
:104300000379012B02D1104B98420DD0436C00224F
:104310004FF0FF311A65DA621A605A605A62996387
:1043200070470A4BC362EBE7094BD3F8D42042F441
:104330008032C3F8D420D3F8FC2042F48032C3F892
:10434000FC20D3F8FC30E1E7C4090024344E010816
:10435000004402580E4BD0E9112110B4994213D9F0
:104360000C4BC46A0B440C4861681B0AA0FB030396
:1043700001EB13135360642013685DF8044B43F0A2
:104380000303136002F03EB9C36A5B68F2E700BF43
:10439000801A0600FF340C00598B4F010129164B7F
:1043A000816C30B4446C17D0144A6568914203EABA
:1043B00005030ED9124AC56A0A4412486968A0FB6F
:1043C000020201EB1262134343F48053636030BC7A
:1043D0007047C26A5268F6E70B4A6568914203EA81
:1043E0000503F6D9094AC56A0A4406486968A0FB6C
:1043F000020201EB5262E6E700ECFFFF40787D012C
:104400007FF0FA02893BE65580F0FA02FFE0F505FD
:104410000022436C5A601A60704700BF426C012949
:10442000536823F4404307D0022901D011B17047EB
:1044300043F400435360704743F480435360704734
:10444000406C41F480518260C160436B1B06FCD517
:1044500080238363704700BF10B541F48851446CDA
:10446000A260E160616B11F04502FBD0A26311F024
:10447000040203D161691046196010BDFFF7CEFE3A
:10448000012010BD10B541F48851446CA260E16078
:10449000616B11F04502FBD0A26311F0050203D15C
:1044A00061691046196010BDFFF7B8FE012010BD0C
:1044B00010B541F49851446CA260E160616B11F059
:1044C0004502FBD0A26311F03F0209D1216A1046D8
:1044D0001960E2695A60A2699A606269DA6010BD87
:1044E000FFF79CFE012010BD2DE9F84316469846C3
:1044F0000F4637490546D0E911245368C3F3090331
:1045000001335B00B4FBF3F4A1FB041442F210731B
:10451000A40903FB04F45462FDF702F800282ED12D
:104520006C6C012248F488538146A76522654FF0E0
:10453000FF32E86CA2634FF49572E26342F2070225
:10454000A662E262089AA260E360616B11F0450323
:10455000FBD011F0050FA36329D162691D4B0260E6
:10456000134073B1616B00234FF001092846A1632A
:104570002365E362FFF752FE4846BDE8F8836C6CA2
:10458000F0E7302383F311886B6CDA6BBAB9002241
:104590001A65DA63DA62596B11F480710BD04FF04F
:1045A000FF31996382F311884846BDE8F8832846B5
:1045B000FFF734FED6E781F311886C6CD2E74FF039
:1045C000FF3105F1400002F033F86B6CDFE700BF0C
:1045D000D34D621008E0FFFD2DE9F84316469846DA
:1045E000DFF864C10D4642F210710746D0E911248C
:1045F0005368C3F3090301335B00B4FBF3F4ACFB72
:1046000004C4A40901FB04F45462FCF789FF814649
:1046100010B14846BDE8F8837C6C0123A66523658C
:104620004FF0FF33FE6CA3634FF49573E3634FEADF
:104630004823A3623B6BDB0658BF6D02B8F1010F44
:10464000A56024D941F21213E360616B11F04503B8
:10465000FBD011F0050FA3633FD16369394D33607F
:104660001D40002D3CD142F293033246414638466C
:10467000E362FFF7EDFD0028CBD07C6C3846FE6C82
:10468000616BA1632565E562FFF7C8FD30E041F28B
:104690001113E360616B11F04503FBD011F0050FBE
:1046A000A36339D16369274D33601D40002D36D196
:1046B00042F29303324641463846E362FFF7C8FDB3
:1046C00003460028A5D07A6C38469946516B916311
:1046D0001565D562FFF7A2FD9BE73846FFF79EFD03
:1046E000616B00233846A1632365E362FFF796FD03
:1046F000002241F20C13A260E360616B11F04503EC
:10470000FBD011F0050FA36316D163694FF00109C7
:1047100033604846BDE8F8833846FFF77FFD616B9C
:1047200000234FF001093846A1632365E362FFF7D8
:1047300075FD4846BDE8F88338464FF00109FFF79C
:104740006DFD66E708E0FFFDD34D62102DE9F843EB
:1047500016469846DFF864C10D4642F210710746CE
:10476000D0E911245368C3F3090301335B00B4FBA0
:10477000F3F4ACFB04C4A40901FB04F45462FCF799
:10478000CFFE814610B14846BDE8F8837C6C01231A
:10479000A66523654FF0FF33FE6CA3634FF48D7362
:1047A000E3634FEA4823A3623B6BDB0658BF6D020D
:1047B000B8F1010FA56024D941F21913E360616BD0
:1047C00011F04503FBD011F0050FA3633FD16369DE
:1047D000394D33601D40002D3CD142F291033246E9
:1047E00041463846E362FFF733FD0028CBD07C6CAE
:1047F0003846FE6C616BA1632565E562FFF70EFD2F
:1048000030E041F21813E360616B11F04503FBD017
:1048100011F0050FA36339D16369274D33601D4043
:10482000002D36D142F29103324641463846E362CA
:10483000FFF70EFD03460028A5D07A6C384699464E
:10484000516B91631565D562FFF7E8FC9BE738462D
:10485000FFF7E4FC616B00233846A1632365E36244
:10486000FFF7DCFC002241F20C13A260E360616BF5
:1048700011F04503FBD011F0050FA36316D1636956
:104880004FF0010933604846BDE8F8833846FFF72A
:10489000C5FC616B00234FF001093846A163236515
:1048A000E362FFF7BBFC4846BDE8F88338464FF0AB
:1048B0000109FFF7B3FC66E708E0FFFDD34D621086
:1048C00012F0030F22D02DE9F0411F46D3B1064666
:1048D00015460C460F4404E0F16BFBF74FFFA7426F
:1048E00010D021460123F26B3046FFF775FE4FF4DE
:1048F00000720346013428461544002BECD01846BC
:10490000BDE8F08100231846BDE8F081FFF764BEE2
:1049100012F0030F1FD02DE9F0411F46C3B1064628
:1049200015460C460F4401E0A74211D04FF4007227
:104930002946F06B1544FBF721FF21460123F26B5A
:1049400030460134FFF702FF0028EDD0BDE8F081CA
:104950000020BDE8F081FFF7F9BE00BF00207047DE
:10496000302310B583F311880024436C4030214676
:10497000DC6301F06BFE84F3118810BD0022134B41
:104980000A604A60426910B41340402442780C61C6
:1049900043F440434FF0FF348C618B604AB183692C
:1049A0005DF8044B23F4C023CB6040F201130B608D
:1049B00070478269064B5DF8044B134043F0015386
:1049C000CB6040F201130B60704700BF1F3EFFFF3A
:1049D000FFFFB9DF90F8203010B4002B38D0836A85
:1049E000D3E900410A6822F00F020A60197A0E2307
:1049F000426A03FA01F161605468216821F00F01F5
:104A00002160117A12688B405360534B98423ED01C
:104A1000524B984250D0524B984272D0514B9842D0
:104A200000F08480504B98425BD0504B984252D15A
:104A30004F4BD3F89C2042F02002C3F89C20D3F8BF
:104A40009C2022F02002C3F89C20D3F89C3042E046
:104A5000846A2268136823F01F0313601368D90760
:104A6000FCD4227B3D23416A934064680A6823603A
:104A7000136823F01F0313601368DB07FCD40C7B5F
:104A80003D234A68A3401360334B9842C0D1384B52
:104A9000C169D3F89820406842F480525DF8044B15
:104AA000C3F89820D3F8982022F48052C3F89820B5
:104AB000D3F89830FFF762BF2D4BD3F8902042F423
:104AC0008042C3F89020D3F8902022F48042C3F8AB
:104AD0009020D3F89030C1695DF8044B4068FFF72F
:104AE0004DBF234BD3F8982042F48012C3F898208E
:104AF000D3F8982022F48012C3F89820D3F8983085
:104B0000E9E71B4BC169D3F89020406842F40042AA
:104B10005DF8044BC3F89020D3F8902022F40042B3
:104B2000C3F89020D3F89030FFF728BF104BC1692D
:104B3000D3F89820406842F400525DF8044BC3F863
:104B40009820D3F8982022F40052C3F89820D3F884
:104B50009830FFF713BF00BF140A0024500A002446
:104B60008C0A0024C80A0024040B0024400B0024F3
:104B70000044025843685B7810B5002B50D190F880
:104B800020300146DBB1836AD3E90040026822F09D
:104B90000F0202600E22187ACB69824062605A6965
:104BA00012F4604FFBD1496AD1E90040026822F05B
:104BB0000F0202600E22097A8A40626024E0806A55
:104BC0000268136823F01F0313601368DB07FCD42B
:104BD00090F80CC03D22406802FA0CF2CB690260EA
:104BE0005A6912F4604FFBD1486A01680A6822F0E2
:104BF0001F020A600A68D407FCD490F80CC03D225A
:104C0000416802FA0CF20A601A6842F480621A6083
:104C10001A689205FCD44FF0FF3200209A6110BD53
:104C2000FFF7D8FE002010BD10B504460B4801F078
:104C300013F82046FFF7CEFE63689B680BB1204651
:104C40009847302383F311886FF0120104F10800B4
:104C500001F0FCFC002383F3118810BD3C4E0108D9
:104C60000B0700D47047FFF7DFBF00BF11F00C0F38
:104C700000D17047FFF7D8BF11F00C0F70B50D468B
:104C800004462DD16668337893B1EA0603D573687C
:104C90006BB120469847AB0609D563685B6833B1B2
:104CA00004222046227098472378042B30D070BD10
:104CB0002046FFF75FFF73686BB304222046227023
:104CC00098472378042B26D0302383F311880021C2
:104CD00004F1080001F0BAFC002383F3118870BDD1
:104CE0000E4800F0B9FF2046FFF774FE63689B682A
:104CF0000BB120469847302383F311886FF01201DF
:104D000004F1080001F0A2FC002383F31188B9E745
:104D10000323237070BD02232370D5E73C4E0108A6
:104D200070B50D46090704462DD46668337893B1F3
:104D30006A0703D573686BB120469847AB0709D55E
:104D400063685B6833B10422204622709847237859
:104D5000042B30D070BD2046FFF70CFF73686BB397
:104D600004222046227098472378042B26D0302333
:104D700083F31188002104F1080001F067FC00238F
:104D800083F3118870BD0F4800F066FF2046FFF7DF
:104D900021FE63689B680BB120469847302383F35C
:104DA00011886FF0120104F1080001F04FFC00239C
:104DB00083F31188B9E70323237070BD02232370A6
:104DC000D5E700BF3C4E010810B5164C164800F060
:104DD000C5FFE269536911690B4093615B0606D414
:104DE000114800F0D3FFBDE8104001F047BF204656
:104DF000FFF7F0FD63689B680BB1204698473023AE
:104E000083F311886FF01201084801F01FFC0023A2
:104E100083F31188044800F0B9FFBDE8104001F0A9
:104E20002DBF00BF140A0024844E01081C0A002470
:104E300010B5164C164800F091FFE26953691169EC
:104E40000B4093615B0606D4114800F09FFFBDE85C
:104E5000104001F013BF2046FFF7BCFD63689B685C
:104E60000BB120469847302383F311886FF012016D
:104E7000084801F0EBFB002383F31188044800F09D
:104E800085FFBDE8104001F0F9BE00BF500A0024C4
:104E9000784E0108580A002410B5164C164800F048
:104EA0005DFFE269536911690B4093615B0606D4AB
:104EB000114800F06BFFBDE8104001F0DFBE204656
:104EC000FFF788FD63689B680BB120469847302345
:104ED00083F311886FF01201084801F0B7FB00233B
:104EE00083F31188044800F051FFBDE8104001F041
:104EF000C5BE00BF8C0A00246C4E0108940A002431
:104F000010B5164C164800F029FFE2695369116983
:104F10000B4093615B0606D4114800F037FFBDE8F3
:104F2000104001F0ABBE2046FFF754FD63689B685C
:104F30000BB120469847302383F311886FF012019C
:104F4000084801F083FB002383F31188044800F034
:104F50001DFFBDE8104001F091BE00BFC80A00244B
:104F6000604E0108D00A002410B5164C164800F017
:104F7000F5FEE269536911690B4093615B0606D443
:104F8000114800F003FFBDE8104001F077BE204655
:104F9000FFF720FD63689B680BB1204698473023DC
:104FA00083F311886FF01201084801F04FFB0023D2
:104FB00083F31188044800F0E9FEBDE8104001F0D9
:104FC0005DBE00BF040B0024544E01080C0B0024EE
:104FD00010B5164C164800F0C1FEE269536911691C
:104FE0000B4093615B0606D4114800F0CFFEBDE88C
:104FF000104001F043BE2046FFF7ECFC63689B685D
:105000000BB120469847302383F311886FF01201CB
:10501000084801F01BFB002383F31188044800F0CB
:10502000B5FEBDE8104001F029BE00BF400B0024D2
:10503000484E0108480B00242DE9F041354D00246D
:10504000DFF804812846344FFCF722FB334B85F808
:1050500020400A21EB6123206C622F63304EC5E9AA
:105060000A48304DFCF77AFE2846FCF711FB2E4B20
:1050700085F820400A21EB6124206C622F63C5E98A
:105080000A482A4DFCF76AFE2846FCF701FB284B2C
:1050900085F820400A21EB6133206C622F63C5E95B
:1050A0000A48244DFCF75AFE2846FCF7F1FA224B39
:1050B0000A215420EB6185F820406C622F63C5E91A
:1050C0000A48FCF74BFE3046FCF7E2FA1B4D1C4B3E
:1050D0000A21552086F82040F36174623763C6E9DF
:1050E0000A48FCF73BFE2846FCF7D2FA0123154993
:1050F00041F20A0285F8203041F21803E961562096
:105100006C620A212B63C5E90A42BDE8F041FCF755
:1051100025BE00BF140A00244600010000300140F3
:10512000040B0024500A0024003800408C0A00249C
:10513000003C0040C80A002400340140400B002419
:1051400000500140001400581600010010B503780B
:105150004FF0FF320446012B826320D0406894F860
:105160002020436903F01F030133002A7BD1082B61
:10517000E26A00F29D80236B22F4F04223F4F043B4
:105180000178002900F08F8042F4847243F4847324
:10519000E169C4E90B23FFF7F1FB002010BDC84B08
:1051A000984200F0A680C74B984200F01681C64B8B
:1051B000984200F0D880C54B984200F04881C44B1B
:1051C000984200F09381C34B984240F0C58103465A
:1051D000C14A0A210820FDF7EDFB6062002800F0BB
:1051E000C1812346BD4A0A210820FDF7E3FBA062E6
:1051F000002800F0B4810B21606AFDF759FC0C21F6
:10520000A06AFDF755FCB64BD3F8F42042F020021B
:10521000C3F8F420D3F81C2142F02002C3F81C216B
:10522000D3F81C21D3F89C2042F02002C3F89C2024
:10523000D3F89C2022F02002C3F89C20D3F89C30A5
:10524000E26994F8203002F1300160682032002BCE
:1052500044D0636A5B6899604369A16A03F01F03E5
:10526000496801338A60082BE26A10D8236B22F464
:10527000706223F47063017821B142F0240243F09C
:10528000240385E722F0240223F0240380E7102B77
:10529000236B22F4706223F470631AD842F4A06284
:1052A00043F4A063E7E722F4847223F484736FE786
:1052B000102B236B22F4F04223F4F04304D842F481
:1052C000205243F420535BE742F4A04243F4A0434E
:1052D00056E742F4206243F42063CCE7636A1B681C
:1052E0009960A16A4369096803F01F038A6001336A
:1052F0003DE703467B4A0A211020FDF7DBFD606293
:10530000002800F02F812346774A0A211020FDF75C
:10531000D1FDA062002800F028812521606AFDF7F8
:1053200095FE2621A06AFDF791FE6D4BD3F8F02083
:1053300042F48052C3F8F020D3F8182142F480528E
:10534000C3F81821D3F81821D3F8982042F48052DA
:10535000C3F89820D3F8982022F48052C3F89820FC
:10536000D3F898306CE703465E4A0A211020FDF717
:10537000A1FD6062002800F0F58023465A4A0A2108
:105380001020FDF797FDA062002800F0EE803D217F
:10539000606AFDF75BFE3E21A06AFDF757FE504BA9
:1053A000D3F8E82042F40042C3F8E820D3F81021F3
:1053B00042F40042C3F81021D3F81021D3F8902012
:1053C00042F40042C3F89020D3F8902022F4004227
:1053D000C3F89020D3F8903032E70346414A0A21BF
:1053E0001020FDF767FD6062002800F0BB802346B7
:1053F0003D4A0A211020FDF75DFDA062002800F063
:10540000B4802721606AFDF721FE2821A06AFDF7FC
:105410001DFE334BD3F8E82042F48042C3F8E82065
:10542000D3F8102142F48042C3F81021D3F81021A0
:10543000D3F8902042F48042C3F89020D3F8902013
:1054400022F48042C3F89020D3F89030F8E6034667
:10545000244A0A211020FDF72DFD6062002800F08B
:1054600081802346204A0A211020FDF723FDA062F7
:1054700000287AD05321606AFDF7E8FD5421A06A24
:10548000FDF7E4FD164BD3F8F02042F40052C3F8C8
:10549000F020D3F8182142F40052C3F81821D3F8B1
:1054A0001821D3F8982042F40052C3F89820D3F87A
:1054B000982022F40052C3F89820D3F89830BFE621
:1054C000140A0024500A00248C0A0024C80A00246C
:1054D000040B0024400B0024214D0008614C0008FF
:1054E00000440258794C00086D4C00080346224ADB
:1054F0000A211020FDF7DEFC606298B323461F4AA4
:105500000A211020FDF7D6FCA06270B35521606A15
:10551000FDF79CFD5621A06AFDF798FD184BD3F8C6
:10552000F02042F48012C3F8F020D3F8182142F49E
:105530008012C3F81821D3F81821D3F8982042F428
:105540008012C3F89820D3F8982022F48012C3F870
:105550009820D3F8983073E66FF0140010BD606A9D
:10556000FDF77EFA6FF0100010BD606AFDF738FDA0
:105570006FF0100010BD00BF794C00086D4C0008A2
:105580000044025890F8203010B4446A13B36468A1
:1055900000F13403E360C36A61602360836A5B687F
:1055A000DA60026B596042F080021A60226842F0B1
:1055B000010222601A6842F001021A6043685B78B7
:1055C00023B9C269136843F40073136000205DF8C7
:1055D000044B7047246800F13403E360C36A6160E0
:1055E0002360836A1B68DA60026B596042F4806250
:1055F000DBE700BF90F8203010B4446A13B3C36AED
:10560000646843F08003E26000F138026160236067
:10561000836A5B68DA60026B59601A60226842F044
:10562000010222601A6842F001021A6043685B7846
:1056300023B9C269136843F40073136000205DF856
:10564000044B7047C36A246843F48063E26000F14E
:10565000380261602360836A1B68DBE7124A4FF0FF
:1056600080430021D2F8E80040F0010030B4C2F8D5
:10567000E80042F27F55D2F810010C4C40F00100D6
:10568000C2F810010120D2F81021E26B0243E2635C
:105690004FF0FF329D62DA6299615963D9605960B7
:1056A0005861186030BC7047004402580010005C1C
:1056B0004FF0804208B51169D3680B40D9B29B07FF
:1056C0006FEA0101116100D408BD302383F3118812
:1056D00000F0D2FA002383F3118808BD10B5054C01
:1056E0002046FBF7F7FC0621034A01232174E261FF
:1056F000237610BD7C0B002400040140C36970B503
:105700001A690546DC681440E2B2A6076FEA020295
:105710001A6103D543681B6903B19847600704D534
:105720006B689B690BB128469847210704D56B68C5
:105730001B6A0BB128469847E20604D56B689B6A42
:105740000BB128469847E30706D56B689B681BB1E9
:105750002846BDE87040184770BD00BF024A136874
:1057600043F0C003136070470048004010B50D4C73
:1057700082B02046FBF74EFF04F10C0000231022FC
:1057800009490094FBF7B4FA084B1022084904F1C8
:1057900030000094FBF73CFB064A074BC4E9152395
:1057A00002B010BD9C0B0024FC0B00245D570008C8
:1057B0000C0C002400480040006CDC022DE9F04194
:1057C000002936D0037A40F22D16D1E900C2D1E982
:1057D0000275012B46EA02064FEA5C0347F04007D8
:1057E00045F0010502F4004E02F4806145D0846D5D
:1057F0002344446DB3FBFCF3BEF1000F05D023F04E
:10580000070C03F0070343EA4C03E3604FF0FF3358
:105810006760A5602660236209B312F0102247D0AA
:10582000B2F1805F14BFFF233F2380F85C30BDE8F6
:10583000F081057A012D17D0836D40241F4903F5AF
:105840009643426DA1FB031340F22D111B0BD36055
:105850000123546093604FF0FF3311601362FF2304
:1058600080F85C30BDE8F08140F22D1640278E466E
:105870000A464FF496434FF4164C114CA042B6D151
:10588000104CD4F8E88048F48028C4F8E880D4F8B4
:10589000108148F48028C4F81081D4F81041846D38
:1058A0002344446DB3FBFCF3BEF1000FA7D1ACE77A
:1058B0007F2380F85C30BDE8F08100BFB5814E1BCE
:1058C0009C0B0024004402582DE9F047456D064624
:1058D000EC6922072C6256D1E20548D4A00610D507
:1058E0004FF03008002788F311886B6A304696F82D
:1058F0005C101940FBF7A8FE87F31188EC69A3063A
:10590000F1D4D5F800A01AF0800F1DD021061BD5C8
:1059100006F1300830274FF0000905E0A86289F34E
:105920001188EC6922060FD587F311884046FBF7F2
:10593000ABFA0028F2DA0821301D00F0EDFF2AF062
:10594000800A002383F311881AF0400F0BD06306FE
:1059500009D5302383F31188D6E911239A422DD03B
:10596000002383F31188C5F800A0BDE8F087302339
:1059700083F311884FF48061301D00F0CDFF0023C8
:1059800083F31188AAE7C4F3C001E3074FF03003A3
:105990004FEA012148BF41F02001A70748BF41F06D
:1059A0004001600748BF41F0800183F31188301D3A
:1059B00000F0B2FF002383F311888DE7B36B002B57
:1059C000CED01021301D2AF0400A00F0A5FFC7E715
:1059D000664A00236648D2F8881070B440F2FF741B
:1059E000644D45F250562143C2F88810D2F8881011
:1059F00008406149C2F88800D2F88800D2F8E00077
:105A00002043C2F8E000D2F8080120435B4CC2F802
:105A10000801D2F808214FF68F724B608D604FF06D
:105A20005535CB604A61564A56480A62564A4A6220
:105A3000564A0A604FF6FF71554A6360A2604BF602
:105A40007E72E3606261534A2262534A6262534A41
:105A50002260534C43608460524CC36041610462D5
:105A6000514C524A4462524C046000F50060514C63
:105A700053609460504CD3605161146204F1F84457
:105A800004F5081454624D4C14606FF440544360A4
:105A900002F500628460A4F17E54C360A4F5CB14C7
:105AA0004161A4F6331404624FF0CC344462444C98
:105AB0000460444C53609460434CD3605161146261
:105AC00004F1F844A4F67744546204F15E44A4F56A
:105AD0009014A4F2AB5414603C4CC0F80438C0F8E5
:105AE00008484FF6BF74C0F80C38C0F81448384C5A
:105AF000C0F82048374CC0F82448374CC0F800485C
