:020000040800F2
:1000000000040020FD030008FF030008FF030008B0
:10001000FF030008FF030008FF030008FF030008B8
:10002000FF030008FF030008FF030008B1480008B1
:10003000FF030008FF030008FF030008FF03000898
:10004000FF030008FF030008FF030008FF03000888
:10005000FF030008FF030008FF030008FF03000878
:10006000FF030008FF030008FF030008F91D000854
:10007000311E00086D1E0008A91E0008E51E0008BC
:100080001D1F0008591F0008C9190008FF030008B8
:10009000FF030008FF030008FF030008FF03000838
:1000A000FF030008FF030008FF030008FF03000828
:1000B000FD110008FF030008FF030008FF0300080C
:1000C000FF030008FF030008FF030008BD2F00081E
:1000D00025300008FF030008FF030008D5110008C1
:1000E000FF030008FF030008FF0300081D120008BB
:1000F00039120008611200087D120008951F0008DF
:10010000FF030008AD110008FF0300088D30000850
:10011000FF030008FF030008FF030008FF030008B7
:10012000D11F000809200008452000088120000890
:10013000BD200008FF030008FF030008FF030008BC
:10014000FF030008FF030008FF030008FF03000887
:10015000F5200008312100086D210008FF03000888
:10016000FF030008FF030008FF030008FF03000867
:10017000FF030008FF030008FF030008FF03000857
:10018000FF030008FF030008FF030008FF03000847
:10019000F53000085D310008C5310008FF03000894
:1001A000FF030008FF030008FF030008FF03000827
:1001B000FF030008FF030008FF030008FF03000817
:1001C000FF030008FF030008FF030008FF03000807
:1001D000FF030008FF030008FF030008FF030008F7
:1001E000FF030008FF030008FF030008FF030008E7
:1001F000FF030008FF030008FF030008FF030008D7
:10020000FF030008FF030008FF030008FF030008C6
:10021000FF030008FF030008FF030008FF030008B6
:10022000FF030008FF030008FF030008FF030008A6
:10023000FF030008FF030008FF030008F919000886
:10024000FF030008D91A0008111B00084D1B000805
:10025000891B0008C51B0008011C00083D1C000884
:10026000791C0008FF030008FF030008FF030008D3
:10027000FF030008FF030008FF030008FF03000856
:10028000FF030008FF030008FF030008FF03000846
:10029000FF030008FF030008FF030008FF03000836
:1002A000FF030008FF030008FF030008FF03000826
:1002B000FF030008FF030008FF030008FF03000816
:1002C000FF030008FF030008FF030008FF03000806
:1002D000FF030008FF030008FF030008FF030008F6
:1002E00072B6374880F30888364880F30988364864
:1002F0003649086040F20000CCF200004EF634713E
:10030000CEF200010860BFF34F8FBFF36F8F40F252
:100310000000C0F2F0004EF68851CEF200010860F5
:10032000BFF34F8FBFF36F8F4FF00000E1EE100A65
:100330004EF63C71CEF200010860022080F3148872
:10034000BFF36F8F00F012F903F0B6FB4FF055309A
:100350001F491B4A91423CBF41F8040BFAE71D4973
:10036000184A91423CBF41F8040BFAE71A491B4A6C
:100370001B4B9A423EBF51F8040B42F8040BF8E7BE
:1003800000201849184A91423CBF41F8040BFAE793
:1003900000F030F900F02AF9144C154DAC4203DAA4
:1003A00054F8041B8847F9E704F0F6FA114C124D93
:1003B000AC4203DA54F8041B8847F9E700F018B997
:1003C00000040020000800200000000808ED00E004
:1003D0000000002000040020005A00080000002453
:1003E0000000002400000024601F0024E002000838
:1003F000E0020008E0020008E002000870E700F0F8
:1004000000F8FEE72DE9F04F2DED108AC1F80CD071
:10041000D0F80CD0BDEC108ABDE8F08F002383F338
:1004200011882846A047002004F0CEF8FEE703F02C
:100430008BFF00DFFEE70000844641EA000313F073
:1004400003036DD1403A41D351F8043B40F8043BDB
:1004500051F8043B40F8043B51F8043B40F8043B9E
:1004600051F8043B40F8043B51F8043B40F8043B8E
:1004700051F8043B40F8043B51F8043B40F8043B7E
:1004800051F8043B40F8043B51F8043B40F8043B6E
:1004900051F8043B40F8043B51F8043B40F8043B5E
:1004A00051F8043B40F8043B51F8043B40F8043B4E
:1004B00051F8043B40F8043B51F8043B40F8043B3E
:1004C00051F8043B40F8043B403ABDD2303211D3DE
:1004D00051F8043B40F8043B51F8043B40F8043B1E
:1004E00051F8043B40F8043B51F8043B40F8043B0E
:1004F000103AEDD20C3205D351F8043B40F8043BDE
:10050000043AF9D2043208D0D2071CBF11F8013BDB
:1005100000F8013B01D30B8803806046704700BFA1
:10052000082A13D38B078DD010F003038AD0C3F1B0
:100530000403D21ADB071CBF11F8013B00F8013B92
:1005400080D331F8023B20F8023B7BE7043AD9D351
:10055000013A11F8013B00F8013BF9D20B78037026
:100560004B7843708B7883706046704710B5BFF34B
:100570004F8FBFF36F8F1C480022C0F85022BFF38B
:100580004F8FBFF36F8F436943F400334361BFF371
:100590004F8FBFF36F8FC0F88420BFF34F8FD0F819
:1005A000803043F6E074C3F34E3CC3F3C90E4FEA08
:1005B0004C1C0CEA0401734641EA8372013BC0F80B
:1005C00060225A1CF8D1ACF1200C1CF1200FF0D1A4
:1005D000BFF34F8F436943F480334361BFF34F8FC1
:1005E000BFF36F8F10BD00BF00ED00E0704700BF8C
:1005F000FEE700BFF8B52B4D2B4F2C4905F17004D9
:100600002B482C4A88420DD2043A034652F8046F14
:1006100043F8046B8B42F9D34B1E1B1A23F00303E0
:1006200004331844B84207D2013F00213F1A27F093
:100630000302043204F0FAFDA54205D0D5E90420F6
:10064000D5E906171035DDE71B480023C0F88430D4
:10065000BFF34F8FD0F8805043F6E076C5F34E34A9
:10066000C5F3C905640104EA06012B4641EA837219
:10067000013BC0F86C225A1CF8D1203C14F1200F29
:10068000F1D1BFF34F8FBFF36F8FBFF34F8FBFF326
:100690006F8F0023C0F85032BFF34F8FBFF36F8FBF
:1006A000F8BD00BFD4520008601F0024601F002462
:1006B000601F0024005A000800ED00E008B500F0BB
:1006C00015FE01F05BFE00F001FA00F035FA00F0D3
:1006D000BBFC00F07DFC00F0E5FC03F003FBBDE893
:1006E000084000F001B800BF03F0B2B84FF08043FB
:1006F000586A70474FF08043002102225863196105
:10070000DA6070474FF080430022DA60704700BF24
:100710004FF0804358637047F8B515468268044629
:100720000B46AA4200D28568A1692669761AB542AD
:1007300018D30AD82A461846FFF77EFEE268A36857
:100740002846A2615B1BA360F8BDAF1B324618466A
:10075000FFF772FE3A463044E168FFF76DFEE2684B
:100760003A44ECE72A461846FFF766FEA2692A4497
:10077000E5E700BF836893422DE9F04104468846CF
:1007800012D28568D4E90460361AB54212D318D85B
:100790002A464146FFF750FEE268A3682846626198
:1007A0005B1BA360BDE8F081D4E904601546361AEE
:1007B000B542ECD22A464146FFF73EFE62692A4422
:1007C000EBE7AF1B32464146FFF736FE3A4608EBF1
:1007D0000601E068FFF730FEE2683A44DDE700BF5B
:1007E000F8B504460D461F46164603F039FF069B32
:1007F0002E44E76123620023C4E90356C4E905558A
:10080000A360F8BDD0E90532934211D0826810B5DB
:1008100001325C1C826044611970D0E904329A4252
:1008200001D3C3684361002103F032FF002010BDF3
:100830008268002AEAD04FF0FF30704770B530234D
:1008400005460E4683F3118803E003F00DFF0028F0
:1008500019DBAC6831462846002CF6D0AB68A96994
:10086000013B4A1CAB602B69AA619A420C7801D308
:10087000EB68AB61EB690BB128469847002383F323
:100880001188204670BD84F3118870BD2DE9F04FAA
:1008900083B09A46C6693027019287F31188CAB19E
:1008A00083460D46DDF804904FF000084A4629467D
:1008B0005846FFF731FF0446584694B106B1B04799
:1008C00088F31188A9EB0409254487F31188B9F14D
:1008D000000FEBD10198002383F3118803B0BDE82A
:1008E000F08F514603F0C0FE0028DFD0019BA3EB40
:1008F0000900002383F3118803B0BDE8F08F00BF27
:10090000F8B504460D4616461F4603F0A9FE069BA1
:10091000A6602E44E7612362C4E90356C4E9055585
:10092000F8BD00BFF8B5302304460F46164683F3E2
:10093000118803E003F098FE002819DBA568314612
:100940002046002DF6D06269A368511C013B61610D
:10095000A3601770D4E904329A4201D3E36863615B
:10096000E3690BB120469847002080F31188F8BD59
:1009700085F31188F8BD00BFD0E905239A4210D055
:100980008268591C013210B5816182601C7803694C
:10099000994201D3C3688361002103F079FE2046A8
:1009A00010BD8268002AEBD04FF0FF30704700BFC7
:1009B0002DE9F04F83B09A46C6693027019287F33C
:1009C0001188CAB183460D46DDF804904FF0000847
:1009D0004A4629465846FFF7CDFE0446584694B18C
:1009E00006B1B04788F31188A9EB0409254487F3C1
:1009F0001188B9F1000FEBD10198002383F311881E
:100A000003B0BDE8F08F514603F02EFE0028DFD082
:100A1000019BA3EB0900002383F3118803B0BDE819
:100A2000F08F00BF01F01F0C012349090CF1010CEC
:100A3000B1EB521F03FA0CF310B503F1FF334FEA89
:100A4000521402F01F0E05D850F82400184020FA66
:100A50000EF010BD50F8211050F8242003EA0100D8
:100A6000CEF1200122FA0EF38840184310BD00BFDA
:100A7000C3689B0F08D08368C288180400F47C10F8
:100A80001043013080027047826840F6FC73416871
:100A900003EA8200C2F30342C1F3C23340EA917019
:100AA000093A0233013098409040704790F8D630B0
:100AB00090F8D7101B0490F8D42090F8D50003EBE1
:100AC0000163134403EB0020704700BF00F07CBDBE
:100AD00003460022012118305A611970C3E901222E
:100AE000C3E9032203F018BE10B53023044683F394
:100AF0001188416000F0F2FD0023984214BF0122EA
:100B00000222227083F3118810BD00BF10B530247B
:100B100084F31188044682600322C0E9033104F89B
:100B2000142B00F07BFE4FF0FF31204603F080FDD8
:100B3000002383F3118810BD02F0CABE00230122F6
:100B400043600270C3600374704700BF0379052BD4
:100B500006D1826A4FF400730020C1E90032704769
:100B60000120704770B5124E82B004460D4611E068
:100B700001F082FD03460A20BBB9019AC2F343216A
:100B80003242A1F105020FD104290ED0022A0BD85E
:100B900003F042FD01AB0D212046A26B002DE7D1F1
:100BA00001F054FD0346E6E70123184602B070BD8C
:100BB00008E0FFFD03F1FF3C38B58C44856A04462C
:100BC000AC4505D9436B012043F08003636338BD16
:100BD0004FF0060C80F804C001F06CFF0523237170
:100BE00038BD00BF03F1FF3C38B58C44856A04462C
:100BF000AC4505D9436B012043F08003636338BDE6
:100C00004FF0070C80F804C001F07CFF052323712E
:100C100038BD00BF38B50579052D01D0012038BD9C
:100C200008230446037101F093FF257138BD00BF0E
:100C300038B5302383F311880379022B10D00422B6
:100C400004460023027183F311880121FFF78AFF14
:100C50000546204601F0D6FC02232846237138BD04
:100C6000002585F31188284638BD00BF03232DE9F0
:100C7000F041037184B0044601F066FC0022204676
:100C8000114601F0D7FC03AB4FF4D5720821204682
:100C900001F0F2FCE8B9039B0122C3F303232263B2
:100CA000934209D02046012501F0ACFC02232846DE
:100CB000237104B0BDE8F081024603AB3721204622
:100CC00001F0DAFC0028EDD1039AA64B13408BB15A
:100CD000E8E703AB00223721204601F0CDFC0028D5
:100CE00035D1039B9F4A1A408ABB11462046226396
:100CF00001F0A0FC236B03F00F03022B29D09A4FC5
:100D000064259A4ADFF85C82012B18BF174610E071
:100D1000039E16EA080FC5D101F098FC0346642033
:100D2000002BBFD1039B002B28DB013DBAD003F081
:100D300073FC03AB00223721204601F09DFC0646E0
:100D400003AB3A4629212046002EE1D0AAE7022330
:100D500023636425864E06E0039B002B0EDB013DDA
:100D6000A0D003F059FC03AB32460121204601F02C
:100D70006DFC03466420002BEED093E75A0003D5A8
:100D8000236B43F01003236304F1080300220221C4
:100D9000204601F087FC002884D1024604F1380384
:100DA0000321204601F068FC00287FF47BAF04F1AA
:100DB0001806A26B09212046334601F073FC002877
:100DC0007FF470AF02ABA26B0721204601F054FC08
:100DD000054600287FF466AF236B03F00F03022B58
:100DE00065D07E227F213046E76BFFF71BFE70B196
:100DF0000623402239462046009501F06FFC00286A
:100E00007FF450AFBB895BBA9B0700F1948000214F
:100E1000204601F0BDFB00212046FFF7A3FE05465A
:100E200000287FF43FAF236B03F00F03022B6BD03E
:100E30003046FFF71DFEA06202AB4FF40072102196
:100E4000204601F019FC054600287FF42BAF029BD9
:100E5000444E33427FF426AF236B13F00E0F03F0A2
:100E60000F0233D1E36A1978F9B101297FF41AAF7F
:100E7000204601F0CDFB03ABA26B3721204601F0E9
:100E8000FBFB00287FF40EAF039B33427FF40AAFD5
:100E900003AB02220621204601F0EEFB00287FF47E
:100EA00001AF039B33427FF4FDAE0523FFE603ABA6
:100EB000304A0621204601F0DFFB0028A7D1039B22
:100EC00028491940B1FA81F14909A1E7022A7FF4C2
:100ED000E9AEE36A1978012941D002293DD0002901
:100EE000E3D0254E204601F093FB03AB32460621AA
:100EF000204601F0C1FB00287FF4D4AE039A194BC1
:100F00001340002BD1D0CDE67E227F213046FFF763
:100F100089FD01288CD9E66B08234FF40072204626
:100F20003146009501F0DAFB00287FF4BBAE304675
:100F3000FFF7BCFD7FE7114B402239462046009366
:100F4000062301F0CBFB00287FF4ACAE397C01F026
:100F50000F010F3918BF01215AE7094EC2E7094EA8
:100F6000C0E700BF08E0FFFD0080FF5000001080D8
:100F70000080FFC00001B9030000B703F1FFFF804C
:100F80000002B7030001B70330B5104D83B004462B
:100F900003E0022A16D803F03FFB01ABA26B0D2140
:100FA000204601F069FB03460A2043B9019AC2F3C7
:100FB00043212A42A1F1050204D10429E9D11846AE
:100FC00003B030BD0123184603B030BD08E0FFFD7B
:100FD00001F0A0BA002304490122016002714363B9
:100FE000C0E90A33704700BF545300080C30FFF7C4
:100FF0004DBC00BF4FF0FF330C30FFF747BC00BFC4
:101000003030FFF7D5BC00BF4FF0FF333030FFF773
:10101000CFBC00BF0C30FFF711BC00BF4FF0FF3159
:101020000C30FFF70BBC00BF3030FFF77BBC00BFBC
:101030004FF0FF323030FFF775BC00BF012914BFFD
:101040006FF013000020704702F08ABC044B10B50B
:10105000044640F8043B03F065FB0123237210BDF6
:101060007853000838B5436904460D463BB129461C
:1010700004F10C00FFF7C6FB00280BDB38BD042190
:10108000084403F051FB294604F10C00FFF7BAFBBA
:101090000028F3DA201D4FF40061BDE8384003F06A
:1010A00043BB00BF02F0C2B80346002201210C304E
:1010B0001970C3E9012203F02FBB00BF10B5302324
:1010C000044683F31188416002F03AF90023984204
:1010D00014BF01220222227083F3118810BD00BFC9
:1010E00010B53023044683F311880323037002F004
:1010F00043FB10B92378032B03D0002383F311881B
:1011000010BD4FF0FF3104F1080003F091FA002305
:1011100083F3118810BD00BF10B53023044683F35C
:1011200011880323037002F05FFB10B92378032BAF
:1011300003D0002383F3118810BD4FF0FF3104F179
:10114000080003F075FA002383F3118810BD00BF77
:101150000A4A09014FEA501C0123C9B200B500F048
:101160001F0E104403FA0EF380F8001302EB8C01FB
:10117000C1F8803142F82C305DF804FB00E100E05A
:1011800000F01F0C0122084B002102FA0CF24FEA7A
:10119000501C184403EB8C03C3F88020C3F8802153
:1011A00080F80013704700BF00E100E010B5074C65
:1011B000204602F047FE064801F0CCFC204602F033
:1011C00059FEBDE8104003F0BDBB00BFE853000866
:1011D0003801002410B5074C204602F033FE0648C3
:1011E00002F0E6FB204602F045FEBDE8104003F0A9
:1011F000A9BB00BFDC5300081003002408B5064853
:1012000002F020FE02F04EFB034802F033FEBDE880
:10121000084003F097BB00BFD053000808B505484D
:1012200002F010FE034802F025FEBDE8084003F07E
:1012300089BB00BFC453000810B5074C204602F01C
:1012400001FE064802F054FB204602F013FEBDE802
:10125000104003F077BB00BFB8530008F002002431
:1012600008B5054802F0EEFD034802F003FEBDE8B4
:10127000084003F067BB00BFAC53000810B5074C33
:10128000204602F0DFFD064802F032FB204602F065
:10129000F1FDBDE8104003F055BB00BFA0530008AE
:1012A000F002002408B509217A20FFF751FF092137
:1012B0003120FFF74DFF07211C20FFF749FF0721D1
:1012C0002B20FFF745FF07212C20FFF741FF0721C7
:1012D0002D20FFF73DFF07212E20FFF739FF0C21BE
:1012E0002720BDE80840FFF733BF00BF38B5364BB5
:1012F00000224FF0FF31354CD3F88000344D60F0C0
:101300000040C3F88000D3F8800000F00040C3F82C
:101310008000D3F88000D3F88400C3F88410D3F899
:101320008400C3F88420D3F88400D86F2043D867A2
:10133000DC6F28482C40DC67DC6FD3F88840204302
:10134000C3F88800D3F88800C0F30A00C3F8880007
:10135000D3F88800D3F89000C3F89010D3F8900029
:10136000C3F89020D3F89000D3F89400C3F89410F9
:10137000D3F89400C3F89420D3F89400D3F89800DD
:10138000C3F89810D3F89800C3F89820D3F89800C1
:10139000D3F88C00C3F88C10D3F88C00C3F88C20E1
:1013A000D3F88C00D3F89C00C3F89C10D3F89C10A1
:1013B000C3F89C20D3F89C3000F07CFC00F0F4FED5
:1013C000BDE83840FFF76EBF00440258FFEFFF7FD3
:1013D0000010008000F8FFFF6F4B02206F4AD3F827
:1013E000F410014310B4C3F8F410D3F81C110143F6
:1013F000C3F81C11D3F81C31D06053689804FCD595
:10140000674800230121674C10604FF44040916011
:10141000D460654913619061604ACB629369990415
:10142000FCD513685C4943F4807313600B6F03F4BD
:101430004073B3F5007F04D04FF4803200230A6775
:101440000B6755490B6843F001030B600B685B07A2
:10145000FCD50023504A0B61136913F03803FBD10C
:1014600001204FF080414FF00054106051604F4810
:101470004F49D4605367D06211611368464843F402
:10148000A023136003689C03FCD50368424943F41E
:10149000805303600B689804FCD50B683E4A43F008
:1014A00080030B601368D905FCD5516F3A4B41F0AE
:1014B000010151675A6F9207FCD500223D483E4911
:1014C000986242F2E8605A631963A1F57F31DA63EA
:1014D0002F393A4A3A4C9C6358641964DA621968A5
:1014E0002D4A41F0A8511960136803F02853B3F155
:1014F000285FF9D148244FF4886340204FF0005111
:1015000094618224D3614FF4801310624FF0107005
:10151000D16414652B495365312390650B600B68CA
:1015200003F00F03012BFAD11B4A136943F00303A5
:101530001361136903F03803182BFAD1D2F8DC30A9
:101540005DF8044B43F00053C2F8DC30D2F80431AC
:1015500043F00053C2F80431D2F80431D2F8DC3041
:1015600043F08043C2F8DC30D2F8043143F08043CA
:10157000C2F80431D2F80431D2F8DC3043F0004331
:10158000C2F8DC30D2F8043143F00043C2F8043131
:10159000D2F80431704700BF004402580048025896
:1015A00000C000F002000001000400580000FF012C
:1015B00000881008222020005F0207039B0BFF0118
:1015C0008F1E030300200052F8B53C4C00253C4E12
:1015D00020463C4FFFF77CFA3B4B67630521A36233
:1015E0001220C4E90B65394CFFF7B2FD2046FFF726
:1015F0006FFA374B25630521364D7F206763C4E9B9
:101600000A35FFF7A5FD344B4FF44031D3F8D8200D
:1016100042F02002C3F8D820D3F8002142F0200283
:10162000C3F80021D3F80021D3F8802042F0200233
:10163000C3F88020D3F8802022F02002C3F8802055
:10164000D3F88020B160D3F8D82022F02002C3F86C
:10165000D820D3F8002122F02002C3F80021D3F8CB
:101660000021D3F8E02042F08072C3F8E020D3F8E4
:10167000082142F08072C3F80821D3F80821D3F87A
:10168000882042F08072C3F88820D3F8882022F0A6
:101690008072C3F88820D3F88820A960D3F8E020AE
:1016A00022F08072C3F8E020D3F8082122F0807283
:1016B000C3F80821D3F80831F8BD00BF00000024AA
:1016C00000230240162C02000020024038000024B3
:1016D00000600258006302580044025838B543685D
:1016E0000446002B38D02378012B01D0002038BDD0
:1016F000434DAC4267D0434B9C4230D0A36A4FF07D
:1017000080524FF4F0609A6002F02CFBA26A63688A
:10171000916858683C4B0B4093603C4B9168034088
:101720000B439360936843F0004393609368002BEE
:10173000FCDBAC420CD0334B9C4209D0012313603C
:10174000936843F0010393601368DB07FCD5CDE792
:10175000A36A99689960F1E72D4B4360C3E723467C
:101760002C4A0521102000F045FD2063002843D0BD
:10177000294B7321D3F8E02042F08072C3F8E020B7
:10178000D3F8082142F08072C3F80821D3F8082169
:10179000D3F8882042F08072C3F88820D3F88820DC
:1017A00022F08072C3F88820D3F8883000F0E2FD80
:1017B000A36A226B03F140011268916062681268AB
:1017C000C3F8C0209AE72346124A0521102000F0F2
:1017D00011FD206380B1104B0921D3F8D82042F0CD
:1017E0002002C3F8D820D3F8002142F02002C3F829
:1017F0000021D3F80031D9E76FF0100038BD00BFE9
:101800000000002438000024FFFFFEBF000001405C
:101810000C540008291A0008004402582F4B026992
:101820009842F0B43BD02E4B984238D051680024F7
:10183000836A18681860D06810B14FF464705860FB
:10184000506901391861D069D861106A1862506A0C
:101850005862906AC3F8B000D06AC3F8B400106B45
:10186000C3F8B800506BC3F8BC00906BC3F8A0007D
:10187000D06BC3F8A400106C5861506C9861906CE8
:101880000143D06C19635863D2E914129963DA6387
:10189000DC609A6842F00402F0BC9A6070471178EC
:1018A000466B146981B944F00104C5681F6B9968DF
:1018B0003B68D960516801FB05F55D601E601D68DD
:1018C00045F001051D60B3E7C56844F00304012D30
:1018D00094BF46F4807646F48476E7E7000000245F
:1018E00038000024174B984221D0174B98420DD056
:1018F000826A9368590706D5936843F01003936092
:101900009368DB06FCD40023D3617047016B0A683F
:10191000136823F01F0313601368DB07FCD491F8EE
:101920000CC03D234A6803FA0CF31360E0E7016B37
:101930000A68136823F01F0313601368DB07FCD4E5
:10194000EDE700BF000000243800002470B50669F0
:1019500076B311F01005044606D00578A5F103050D
:10196000B5FA85F56D096D000B0648BF45F0040515
:10197000C8051ED58A0545F0080501D545F01005B6
:101980002046FFF7AFFFF368C3B105222946227056
:1019900098472378052B11D0302383F311884FF01B
:1019A000FF3104F1140002F051FE002383F311888B
:1019B00070BD8B05E2D4002DE2D170BD0222002360
:1019C00022702361E8E700BF10B5084C204602F002
:1019D00039FA074B074819681960FFF7B7FF204627
:1019E00002F048FABDE8104002F0ACBF0054000815
:1019F000002002400000002410B5084C204602F0F0
:101A000021FA074B074819681960FFF79FFF204626
:101A100002F030FABDE8104002F094BFF453000821
:101A2000006002583800002411F00C0F70B5044615
:101A30000ED105695DB18A0623D52B7873B3AB68E7
:101A40002BB10422027098472378042B3CD070BD40
:101A5000FFF748FF0369DB68DBB105220121027053
:101A600098472378052B14D0302383F311884FF047
:101A7000FF3104F1140002F0E9FD002383F3118823
:101A800070BDCB06E3D5AB68002BE0D0BDE870405D
:101A900018470222002322702361E5E7FFF722FFA7
:101AA000AB68A3B10422027098472378042B0ED0B0
:101AB000302383F31188002104F1140002F0C6FDE5
:101AC000002383F3118870BD0323237070BD0222AD
:101AD000002322702361EBE70A4808B502F0B2F94F
:101AE000094B0A481968426801F00E0159600AB1B1
:101AF00080689047034802F0BDF9BDE8084002F055
:101B000021BF00BF68540008005402587000002430
:101B10000B4810B502F096F90A4B0B481968C268D9
:101B2000090901F00E010C015C600AB100699047DF
:101B3000034802F09FF9BDE8104002F003BF00BF68
:101B40005C54000800540258700000240B4810B583
:101B500002F078F90A4B0B4819684269090A01F04A
:101B60000E010C025C600AB180699047034802F0E4
:101B700081F9BDE8104002F0E5BE00BF50540008F6
:101B800000540258700000240B4810B502F05AF9B6
:101B90000A4B0B481968C269090B01F00E010C03CE
:101BA0005C600AB1006A9047034802F063F9BDE83F
:101BB000104002F0C7BE00BF445400080054025851
:101BC000700000240B4810B502F03CF90A4B0B489A
:101BD0001968426A090C01F00E010C045C600AB13C
:101BE000806A9047034802F045F9BDE8104002F0D2
:101BF000A9BE00BF385400080054025870000024E9
:101C00000B4810B502F01EF90A4B0B481968C26A5E
:101C1000090D01F00E010C055C600AB1006B9047E4
:101C2000034802F027F9BDE8104002F08BBE00BF68
:101C30002C54000800540258700000240B4810B5C2
:101C400002F000F90A4B0B481968426B090E01F0CB
:101C50000E010C065C600AB1806B9047034802F0ED
:101C600009F9BDE8104002F06DBE00BF2054000825
:101C700000540258700000240B4810B502F0E2F83E
:101C80000A4B0B481968C26B090F01F00E010C07D3
:101C90005C600AB1006C9047034802F0EBF8BDE8C5
:101CA000104002F04FBE00BF145400080054025808
:101CB000700000240B4800220B4B0146026003F128
:101CC000A00C0A4801E053F8140C143302604A6077
:101CD000634541F8082FF6D1054B4FF0FF325A60AB
:101CE000704700BF700000248C540008085402584C
:101CF000005402580728F8B5044606D9082815D11B
:101D000001204FF0070C002402E00120A446A0406F
:101D1000204E356805420CD04FF0010E01E005421F
:101D200007D00134A4450EFA04F0F8D20025284665
:101D3000F8BD0543184F356006EBC40604EB840577
:101D4000C6E90123154BA60007EB8505D3F8E00093
:101D500040F40010C3F8E000D3F8080140F400108C
:101D6000C3F80801D3F8083112B1687CFFF7F0F925
:101D700033190E22002007EB830157F823404B68EC
:101D8000097A8A40196821F00F01196062601860B1
:101D90002846F8BD7000002474540008004402581E
:101DA00010B50446407CFFF7EBF90F49237C012076
:101DB0000A680024984001EBC30322EA0002C3E949
:101DC0000144D3B20A6073B9084BD3F8E02022F47F
:101DD0000012C3F8E020D3F8082122F40012C3F85F
:101DE0000821D3F8083110BD7000002400440258C7
:101DF000C3681960704700BF0A4808B502F022F8AE
:101E0000094B0A481968426801F03D0199600AB11E
:101E100080689047034802F02DF8BDE8084002F0C2
:101E200091BD00BF6855000800000240B4000024C6
:101E30000B4810B502F006F80A4B0B481968C26847
:101E4000890901F03D018C019C600AB1006990474D
:101E5000034802F00FF8BDE8104002F073BD00BF68
:101E60005C55000800000240B40000240B4810B587
:101E700001F0E8FF0A4B0B4819684269090C01F0B0
:101E80003D010C049C600AB180699047034801F051
:101E9000F1FFBDE8104002F055BD00BF50550008ED
:101EA00000000240B40000240B4810B501F0CAFF46
:101EB0000A4B0B481968C269890D01F03D018C0578
:101EC0009C600AB1006A9047034801F0D3FFBDE867
:101ED000104002F037BD00BF44550008000002402A
:101EE000B40000240A4808B501F0ACFF094B0A48C9
:101EF0005968426A01F03D01D9600AB1806A904791
:101F0000034801F0B7FFBDE8084002F01BBD00BF69
:101F10003855000800000240B40000240B4810B5FA
:101F200001F090FF0A4B0B485968C26A890901F019
:101F30003D018C01DC600AB1006B9047034801F061
:101F400099FFBDE8104002F0FDBC00BF2C55000811
:101F500000000240B40000240B4810B501F072FFED
:101F60000A4B0B485968426B090C01F03D010C0407
:101F7000DC600AB1806B9047034801F07BFFBDE84D
:101F8000104002F0DFBC00BFC8550008000002404E
:101F9000B40000240B4810B501F054FF0A4B0B4865
:101FA0005968C26B890D01F03D018C05DC600AB1F6
:101FB000006C9047034801F05DFFBDE8104002F05F
:101FC000C1BC00BFBC55000800000240B4000024A2
:101FD0000A4808B501F036FF094B0A481968426CF7
:101FE00001F03D0199600AB1806C9047034801F00F
:101FF00041FFBDE8084002F0A5BC00BFB055000895
:1020000000040240B40000240B4810B501F01AFF90
:102010000A4B0B481968C26C890901F03D018C011B
:102020009C600AB1006D9047034801F023FFBDE8B2
:10203000104002F087BC00BFA45500080004024015
:10204000B40000240B4810B501F0FCFE0A4B0B480D
:102050001968426D090C01F03D010C049C600AB145
:10206000806D9047034801F005FFBDE8104002F085
:1020700069BC00BF9855000800040240B400002469
:102080000B4810B501F0DEFE0A4B0B481968C26D13
:10209000890D01F03D018C059C600AB1006E9047EE
:1020A000034801F0E7FEBDE8104002F04BBC00BF62
:1020B0008C55000800040240B40000240A4808B50A
:1020C00001F0C0FE094B0A485968426E01F03D011B
:1020D000D9600AB1806E9047034801F0CBFEBDE89D
:1020E000084002F02FBC00BF8055000800040240E9
:1020F000B40000240B4810B501F0A4FE0A4B0B48B5
:102100005968C26E890901F03D018C01DC600AB199
:10211000006F9047034801F0ADFEBDE8104002F0AB
:1021200011BC00BF7455000800040240B400002434
:102130000B4810B501F086FE0A4B0B485968426FF8
:10214000090C01F03D010C04DC600AB1806F90477E
:10215000034801F08FFEBDE8104002F0F3BB00BF62
:102160002055000800040240B40000240B4810B5BC
:1021700001F068FE0A4B0B485968C26F890D01F0E7
:102180003D018C05DC6012B1D0F880009047034817
:1021900001F070FEBDE8104002F0D4BB14550008F9
:1021A00000040240B400002400220D4830B40D4C5D
:1021B00013460D4D226001E055F8330004EB830116
:1021C00002330260202B4A60F6D14FF0FF330749FB
:1021D000074A8B60CB609360D36030BC704700BF10
:1021E00010000240B4000024D45500080000024052
:1021F00000040240F8B5122820D8DFE800F00A0AEF
:102200000A0A0A0A0A0A0A0A0A0A0A0A0A0A6F745F
:1022100079004FF0010C05460CFA00FC374E34688B
:1022200014EA0C0F0DD04FF0010E02E014EA0C0F6F
:1022300007D00130A8420EFA00FCF7D90025284645
:10224000F8BD44EA0C04346006EBC0062C4CC6E929
:1022500001235FFA8CF3060104EB001573B1294BDF
:10226000D3F8D80040F00100C3F8D800D3F800013B
:1022700040F00100C3F80001D3F800311CF47F4F97
:102280001CD1A059036823F01F030360036813F0F7
:102290000103FBD134443D264FF0210E94F80CC0CD
:1022A000676806FA0CF63E600360C0F814E0002A86
:1022B000C5D0A07BFEF74CFF2846F8BD114BD3F8E4
:1022C000D80040F00200C3F8D800D3F8000140F075
:1022D0000200C3F80001D3F80031D2E74FF0010C3F
:1022E0000F2500209AE74FF0010C0725002095E705
:1022F0004FF0800C0F25072090E700BFB4000024AA
:10230000D45500080044025810B50446807BFEF7FF
:1023100037FF1649607B01220B68824023EA0203E3
:10232000DAB20B6072B9124AD2F8D81021F001016A
:10233000C2F8D810D2F8001121F00101C2F8001142
:10234000D2F8002113F47F4F0ED1094BD3F8D820D7
:1023500022F00202C3F8D820D3F8002122F00202B2
:10236000C3F80021D3F8003110BD00BFB400002431
:102370000044025883681960704700BF704700BF6F
:102380002DE9F04F02F00309C2F34114C2F38006B5
:10239000C2F3C105C2F3C317CE4600224FF00F0BA4
:1023A000A04616E00368072A0AEA030343EA0E037D
:1023B00003604AD8036A23EA040343EA0C03036276
:1023C000490840D076000132AD004FEA88084FEA54
:1023D0008E0ECB07F4D501244368B9F1020F04FA3D
:1023E00002F423EA04034FF0030443EA06034360C4
:1023F0004FEA420304FA03F3846824EA03046FEA11
:10240000030A44EA05048460C46824EA030C02F069
:1024100007044CEA08034FEA8404C36007FA04FC8B
:102420000BFA04F4BED1072A16D8036A23EA040380
:1024300043EA0C030362036849080AEA030343EA18
:102440000E030360BED1BDE8F08F436A23EA0403A4
:1024500043EA0C034362B3E7436A23EA040343EA13
:102460000C034362E7E700BF01F001038A0748BF9E
:1024700043F002034A0748BF43F008030A0748BF76
:1024800043F00403CA0648BF43F010038A06426BB8
:1024900048BF43F020031A4342637047F8B5302326
:1024A00005460F46164683F31188446CE36BA3B9C7
:1024B00000232365E363E362606B10F4807008D04F
:1024C0004FF0FF32A26383F31188012F0CD8184616
:1024D000F8BD80F311880120F8BD4FF0FF31403086
:1024E00002F0A6F86C6CE3E76A6C41F20C119360A1
:1024F000D160516B11F04503FBD0936311F00503DC
:1025000003D1526918463260F8BD2846FFF7ACFF88
:102510000120F8BD10B5074C2046FEF75BFD064BC9
:1025200000200649064AA164E263C4E91003054B92
:10253000E36410BD3801002400700052006CDC021E
:1025400000000430000204300E4BD0E9112110B419
:10255000994213D90C4BC46A0B440C4861681B0A9E
:10256000A0FB030301EB13135360642013685DF8B1
:10257000044B43F00303136002F04EB8C36A5B6878
:10258000F2E700BF801A0600FF340C00598B4F01A0
:102590000129164B816C30B4446C17D0144A65681D
:1025A000914203EA05030ED9124AC56A0A44124849
:1025B0006968A0FB020201EB1262134343F48053EB
:1025C000636030BC7047C26A5268F6E70B4A6568C0
:1025D000914203EA0503F6D9094AC56A0A44064846
:1025E0006968A0FB020201EB5262E6E700ECFFFF24
:1025F00040787D017FF0FA02893BE65580F0FA02CF
:10260000FFE0F5050022436C5A601A60704700BF76
:10261000426C0129536823F4404307D0022901D0BA
:1026200011B1704743F400435360704743F4804353
:1026300053607047406C41F480518260C160436BCD
:102640001B06FCD580238363704700BF10B541F49F
:102650008851446CA260E160616B11F04502FBD0CF
:10266000A26311F0040203D161691046196010BD24
:10267000FFF7FAFE012010BD10B541F48851446CFB
:10268000A260E160616B11F04502FBD0A26311F022
:10269000050203D161691046196010BDFFF7E4FE21
:1026A000012010BD10B541F49851446CA260E16066
:1026B000616B11F04502FBD0A26311F03F0209D11A
:1026C000216A10461960E2695A60A2699A606269DB
:1026D000DA6010BDFFF7C8FE012010BD2DE9F843F8
:1026E000164698460F4637490546D0E911245368E7
:1026F000C3F3090301335B00B4FBF3F4A1FB04143F
:1027000042F21073A40903FB04F45462FEF73CFC8C
:1027100000282ED16C6C012248F488538146A765AD
:1027200022654FF0FF32E86CA2634FF49572E263CA
:1027300042F20702A662E262089AA260E360616B5D
:1027400011F04503FBD011F0050FA36329D1626995
:102750001D4B0260134073B1616B00234FF0010900
:102760002846A1632365E362FFF77EFE4846BDE885
:10277000F8836C6CF0E7302383F311886B6CDA6BB1
:10278000BAB900221A65DA63DA62596B11F4807102
:102790000BD04FF0FF31996382F311884846BDE8B2
:1027A000F8832846FFF760FED6E781F311886C6C4A
:1027B000D2E74FF0FF3105F1400001F039FF6B6CBB
:1027C000DFE700BFD34D621008E0FFFD2DE9F843BD
:1027D00016469846DFF864C10D4642F2107107466E
:1027E000D0E911245368C3F3090301335B00B4FB40
:1027F000F3F4ACFB04C4A40901FB04F45462FEF737
:10280000C3FB814610B14846BDE8F8837C6C0123C8
:10281000A66523654FF0FF33FE6CA3634FF49573F9
:10282000E3634FEA4823A3623B6BDB0658BF6D02AC
:10283000B8F1010FA56024D941F21213E360616B76
:1028400011F04503FBD011F0050FA3633FD163697D
:10285000394D33601D40002D3CD142F29303324686
:1028600041463846E362FFF719FE0028CBD07C6C66
:102870003846FE6C616BA1632565E562FFF7F4FDE8
:1028800030E041F21113E360616B11F04503FBD0BE
:1028900011F0050FA36339D16369274D33601D40E3
:1028A000002D36D142F29303324641463846E36268
:1028B000FFF7F4FD03460028A5D07A6C3846994608
:1028C000516B91631565D562FFF7CEFD9BE73846E6
:1028D000FFF7CAFD616B00233846A1632365E362FD
:1028E000FFF7C2FD002241F20C13A260E360616BAE
:1028F00011F04503FBD011F0050FA36316D16369F6
:102900004FF0010933604846BDE8F8833846FFF7C9
:10291000ABFD616B00234FF001093846A1632365CD
:10292000E362FFF7A1FD4846BDE8F88338464FF063
:102930000109FFF799FD66E708E0FFFDD34D62103E
:102940002DE9F84316469846DFF864C10D4642F279
:1029500010710746D0E911245368C3F3090301330A
:102960005B00B4FBF3F4ACFB04C4A40901FB04F466
:102970005462FEF709FB814610B14846BDE8F88372
:102980007C6C0123A66523654FF0FF33FE6CA363C7
:102990004FF48D73E3634FEA4823A3623B6BDB067E
:1029A00058BF6D02B8F1010FA56024D941F2191387
:1029B000E360616B11F04503FBD011F0050FA363D9
:1029C0003FD16369394D33601D40002D3CD142F247
:1029D0009103324641463846E362FFF75FFD002827
:1029E000CBD07C6C3846FE6C616BA1632565E562DB
:1029F000FFF73AFD30E041F21813E360616B11F02C
:102A00004503FBD011F0050FA36339D16369274D4E
:102A100033601D40002D36D142F2910332464146CB
:102A20003846E362FFF73AFD03460028A5D07A6CEA
:102A300038469946516B91631565D562FFF714FDD1
:102A40009BE73846FFF710FD616B00233846A16312
:102A50002365E362FFF708FD002241F20C13A26038
:102A6000E360616B11F04503FBD011F0050FA36328
:102A700016D163694FF0010933604846BDE8F88319
:102A80003846FFF7F1FC616B00234FF0010938462F
:102A9000A1632365E362FFF7E7FC4846BDE8F883DE
:102AA00038464FF00109FFF7DFFC66E708E0FFFD5D
:102AB000D34D621012F0030F22D02DE9F0411F46D2
:102AC000D3B1064615460C460F4404E0F16BFDF702
:102AD000B3FCA74210D021460123F26B3046FFF72A
:102AE00075FE4FF400720346013428461544002B4E
:102AF000ECD01846BDE8F08100231846BDE8F0810F
:102B0000FFF764BE12F0030F1FD02DE9F0411F46FE
:102B1000C3B1064615460C460F4401E0A74211D04A
:102B20004FF400722946F06B1544FDF785FC2146F1
:102B30000123F26B30460134FFF702FF0028EDD08D
:102B4000BDE8F0810020BDE8F081FFF7F9BE00BFCD
:102B500000207047302310B583F311880024436CA4
:102B600040302146DC6301F071FD84F3118810BD13
:102B70000022134B0A604A60426910B4134040249B
:102B800042780C6143F440434FF0FF348C618B601A
:102B90004AB183695DF8044B23F4C023CB6040F253
:102BA00001130B6070478269064B5DF8044B1340BC
:102BB00043F00153CB6040F201130B60704700BF3C
:102BC0001F3EFFFFFFFFB9DF90F8203010B4002B4D
:102BD00038D0836AD3E900410A6822F00F020A6004
:102BE000197A0E23426A03FA01F161605468216880
:102BF00021F00F012160117A12688B405360534B12
:102C000098423ED0524B984250D0524B984272D08C
:102C1000514B984200F08480504B98425BD0504B0F
:102C2000984252D14F4BD3F89C2042F02002C3F877
:102C30009C20D3F89C2022F02002C3F89C20D3F8DB
:102C40009C3042E0846A2268136823F01F031360FB
:102C50001368D907FCD4227B3D23416A9340646802
:102C60000A682360136823F01F0313601368DB07EF
:102C7000FCD40C7B3D234A68A3401360334B98423D
:102C8000C0D1384BC169D3F89820406842F48052D3
:102C90005DF8044BC3F89820D3F8982022F48052B2
:102CA000C3F89820D3F89830FFF762BF2D4BD3F8C4
:102CB000902042F48042C3F89020D3F8902022F470
:102CC0008042C3F89020D3F89030C1695DF8044B7E
:102CD0004068FFF74DBF234BD3F8982042F4801291
:102CE000C3F89820D3F8982022F48012C3F89820D3
:102CF000D3F89830E9E71B4BC169D3F890204068BE
:102D000042F400425DF8044BC3F89020D3F89020C1
:102D100022F40042C3F89020D3F89030FFF728BF88
:102D2000104BC169D3F89820406842F400525DF816
:102D3000044BC3F89820D3F8982022F40052C3F82B
:102D40009820D3F89830FFF713BF00BF8801002404
:102D5000C4010024000200243C0200247802002464
:102D6000B40200240044025843685B7810B5002B7D
:102D700050D190F820300146DBB1836AD3E900409E
:102D8000026822F00F0202600E22187ACB6982409C
:102D900062605A6912F4604FFBD1496AD1E9004080
:102DA000026822F00F0202600E22097A8A406260F5
:102DB00024E0806A0268136823F01F03136013681D
:102DC000DB07FCD490F80CC03D22406802FA0CF2FC
:102DD000CB6902605A6912F4604FFBD1486A0168FE
:102DE0000A6822F01F020A600A68D407FCD490F82F
:102DF0000CC03D22416802FA0CF20A601A6842F4E3
:102E000080621A601A689205FCD44FF0FF320020ED
:102E10009A6110BDFFF7D8FE002010BD10B5044622
:102E20000B4800F08DFF2046FFF7CEFE63689B68DD
:102E30000BB120469847302383F311886FF01201BD
:102E400004F1080001F002FC002383F3118810BD97
:102E5000D45600080B0700D47047FFF7DFBF00BF50
:102E600011F00C0F00D17047FFF7D8BF11F00C0F15
:102E700070B50D4604462DD16668337893B1EA06E5
:102E800003D573686BB120469847AB0609D56368D4
:102E90005B6833B104222046227098472378042BC4
:102EA00030D070BD2046FFF75FFF73686BB304221C
:102EB0002046227098472378042B26D0302383F3B2
:102EC0001188002104F1080001F0C0FB002383F306
:102ED000118870BD0E4800F033FF2046FFF774FEE6
:102EE00063689B680BB120469847302383F31188B1
:102EF0006FF0120104F1080001F0A8FB002383F336
:102F00001188B9E70323237070BD02232370D5E72E
:102F1000D456000870B50D46090704462DD46668DE
:102F2000337893B16A0703D573686BB1204698472D
:102F3000AB0709D563685B6833B104222046227071
:102F400098472378042B30D070BD2046FFF70CFF44
:102F500073686BB304222046227098472378042BB1
:102F600026D0302383F31188002104F1080001F0FA
:102F70006DFB002383F3118870BD0F4800F0E0FE65
:102F80002046FFF721FE63689B680BB120469847F7
:102F9000302383F311886FF0120104F1080001F06F
:102FA00055FB002383F31188B9E70323237070BD19
:102FB00002232370D5E700BFD456000810B5164C85
:102FC000164800F03FFFE269536911690B409361B5
:102FD0005B0606D4114800F04DFFBDE8104001F03B
:102FE000B1BC2046FFF7F0FD63689B680BB120463B
:102FF0009847302383F311886FF01201084801F0DD
:1030000025FB002383F31188044800F033FFBDE85B
:10301000104001F097BC00BF880100241C57000835
:103020009001002410B5164C164800F00BFFE26921
:10303000536911690B4093615B0606D4114800F097
:1030400019FFBDE8104001F07DBC2046FFF7BCFD34
:1030500063689B680BB120469847302383F311883F
:103060006FF01201084801F0F1FA002383F3118890
:10307000044800F0FFFEBDE8104001F063BC00BF53
:10308000C401002410570008CC01002410B5164CD0
:10309000164800F0D7FEE269536911690B4093614D
:1030A0005B0606D4114800F0E5FEBDE8104001F0D3
:1030B00049BC2046FFF788FD63689B680BB120463A
:1030C0009847302383F311886FF01201084801F00C
:1030D000BDFA002383F31188044800F0CBFEBDE85D
:1030E000104001F02FBC00BF00020024045700086C
:1030F0000802002410B5164C164800F0A3FEE26941
:10310000536911690B4093615B0606D4114800F0C6
:10311000B1FEBDE8104001F015BC2046FFF754FD9C
:1031200063689B680BB120469847302383F311886E
:103130006FF01201084801F089FA002383F3118827
:10314000044800F097FEBDE8104001F0FBBB00BF53
:103150003C020024F85600084402002410B5164C26
:10316000164800F06FFEE269536911690B409361E4
:103170005B0606D4114800F07DFEBDE8104001F06A
:10318000E1BB2046FFF720FD63689B680BB120463A
:103190009847302383F311886FF01201084801F03B
:1031A00055FA002383F31188044800F063FEBDE85C
:1031B000104001F0C7BB00BF78020024EC560008A5
:1031C0008002002410B5164C164800F03BFEE26960
:1031D000536911690B4093615B0606D4114800F0F6
:1031E00049FEBDE8104001F0ADBB2046FFF7ECFC06
:1031F00063689B680BB120469847302383F311889E
:103200006FF01201084801F021FA002383F31188BE
:10321000044800F02FFEBDE8104001F093BB00BF52
:10322000B4020024E0560008BC0200242DE9F0415D
:10323000354D0024DFF804812846344FFDF734FF74
:10324000334B85F820400A21EB6123206C622F6309
:10325000304EC5E90A48304DFDF77AFF2846FDF7A4
:1032600023FF2E4B85F820400A21EB6124206C625D
:103270002F63C5E90A482A4DFDF76AFF2846FDF786
:1032800013FF284B85F820400A21EB6133206C6244
:103290002F63C5E90A48244DFDF75AFF2846FDF77C
:1032A00003FF224B0A215420EB6185F820406C6219
:1032B0002F63C5E90A48FDF74BFF3046FDF7F4FEE2
:1032C0001B4D1C4B0A21552086F82040F361746287
:1032D0003763C6E90A48FDF73BFF2846FDF7E4FEE1
:1032E0000123154941F20A0285F8203041F2180302
:1032F000E96156206C620A212B63C5E90A42BDE8E8
:10330000F041FDF725BF00BF880100244600010001
:103310000030014078020024C4010024003800403D
:1033200000020024003C00403C0200240034014024
:10333000B40200240050014000140058160001009F
:1033400010B503784FF0FF320446012B826320D082
:10335000406894F82020436903F01F030133002ADA
:103360007BD1082BE26A00F29D80236B22F4F042AD
:1033700023F4F0430178002900F08F8042F4847236
:1033800043F48473E169C4E90B23FFF7F1FB0020E8
:1033900010BDC84B984200F0A680C74B984200F081
:1033A0001681C64B984200F0D880C54B984200F079
:1033B0004881C44B984200F09381C34B984240F03F
:1033C000C5810346C14A0A210820FEF793FC6062CA
:1033D000002800F0C1812346BD4A0A210820FEF7DB
:1033E00089FCA062002800F0B4810B21606AFEF71E
:1033F000FFFC0C21A06AFEF7FBFCB64BD3F8F420CF
:1034000042F02002C3F8F420D3F81C2142F020023D
:10341000C3F81C21D3F81C21D3F89C2042F02002D1
:10342000C3F89C20D3F89C2022F02002C3F89C20F3
:10343000D3F89C30E26994F8203002F130016068E2
:103440002032002B44D0636A5B6899604369A16AAB
:1034500003F01F03496801338A60082BE26A10D821
:10346000236B22F4706223F47063017821B142F07F
:10347000240243F0240385E722F0240223F02403EE
:1034800080E7102B236B22F4706223F470631AD848
:1034900042F4A06243F4A063E7E722F4847223F4C9
:1034A00084736FE7102B236B22F4F04223F4F04374
:1034B00004D842F4205243F420535BE742F4A04284
:1034C00043F4A04356E742F4206243F42063CCE780
:1034D000636A1B689960A16A4369096803F01F0366
:1034E0008A6001333DE703467B4A0A211020FEF73C
:1034F00081FE6062002800F02F812346774A0A216E
:103500001020FEF777FEA062002800F02881252118
:10351000606AFEF72FFF2621A06AFEF72BFF6D4B96
:10352000D3F8F02042F48052C3F8F020D3F81821E9
:1035300042F48052C3F81821D3F81821D3F8982008
:1035400042F48052C3F89820D3F8982022F4805295
:10355000C3F89820D3F898306CE703465E4A0A21F6
:103560001020FEF747FE6062002800F0F580234639
:103570005A4A0A211020FEF73DFEA062002800F002
:10358000EE803D21606AFEF7F5FE3E21A06AFEF75F
:10359000F1FE504BD3F8E82042F40042C3F8E82093
:1035A000D3F8102142F40042C3F81021D3F81021BF
:1035B000D3F8902042F40042C3F89020D3F8902032
:1035C00022F40042C3F89020D3F8903032E703464B
:1035D000414A0A211020FEF70DFE6062002800F02B
:1035E000BB8023463D4A0A211020FEF703FEA0625D
:1035F000002800F0B4802721606AFEF7BBFE282176
:10360000A06AFEF7B7FE334BD3F8E82042F48042BD
:10361000C3F8E820D3F8102142F48042C3F8102107
:10362000D3F81021D3F8902042F48042C3F89020C0
:10363000D3F8902022F48042C3F89020D3F8903041
:10364000F8E60346244A0A211020FEF7D3FD606203
:10365000002800F081802346204A0A211020FEF72E
:10366000C9FDA06200287AD05321606AFEF782FE6D
:103670005421A06AFEF77EFE164BD3F8F02042F4E8
:103680000052C3F8F020D3F8182142F40052C3F8D6
:103690001821D3F81821D3F8982042F40052C3F827
:1036A0009820D3F8982022F40052C3F89820D3F839
:1036B0009830BFE688010024C401002400020024E1
:1036C0003C02002478020024B4020024152F0008D4
:1036D000552E0008004402586D2E0008612E000887
:1036E0000346224A0A211020FEF784FD606298B347
:1036F00023461F4A0A211020FEF77CFDA06270B30A
:103700005521606AFEF736FE5621A06AFEF732FEAA
:10371000184BD3F8F02042F48012C3F8F020D3F80D
:10372000182142F48012C3F81821D3F81821D3F8D5
:10373000982042F48012C3F89820D3F8982022F4FD
:103740008012C3F89820D3F8983073E66FF0140015
:1037500010BD606AFEF724FB6FF0100010BD606AB8
:10376000FEF7D2FD6FF0100010BD00BF6D2E0008F7
:10377000612E00080044025890F8203010B4446ACA
:1037800013B3646800F13403E360C36A61602360CB
:10379000836A5B68DA60026B596042F080021A60EB
:1037A000226842F0010222601A6842F001021A60A7
:1037B00043685B7823B9C269136843F400731360EC
:1037C00000205DF8044B7047246800F13403E36087
:1037D000C36A61602360836A1B68DA60026B5960A8
:1037E00042F48062DBE700BF90F8203010B4446AF6
:1037F00013B3C36A646843F08003E26000F13802E7
:1038000061602360836A5B68DA60026B59601A60EA
:10381000226842F0010222601A6842F001021A6036
:1038200043685B7823B9C269136843F4007313607B
:1038300000205DF8044B7047C36A246843F480633A
:10384000E26000F1380261602360836A1B68DBE795
:10385000124A4FF080430021D2F8E80040F0010006
:1038600030B4C2F8E80042F27F55D2F810010C4C97
:1038700040F00100C2F810010120D2F81021E26BE3
:103880000243E2634FF0FF329D62DA62996159634D
:10389000D96059605861186030BC704700440258C4
:1038A0000010005C4FF0804208B51169D3680B40EE
:1038B000D9B29B076FEA0101116100D408BD302322
:1038C00083F3118800F04CFA002383F3118808BDBC
:1038D00010B5054C2046FDF731F90621034A0123B6
:1038E0002174E261237610BDF0020024000401403F
:1038F000C36970B51A690546DC681440E2B2A607D0
:103900006FEA02021A6103D543681B6903B1984745
:10391000600704D56B689B690BB12846984721075F
:1039200004D56B681B6A0BB128469847E20604D59C
:103930006B689B6A0BB128469847E30706D56B680E
:103940009B681BB12846BDE87040184770BD00BF9A
:10395000024A136843F0C0031360704700480040F8
:1039600010B50D4C82B02046FDF770FB04F10C0041
:103970000023102209490094FCF732FF084B102263
:10398000084904F130000094FCF7BAFF064A074BDF
:10399000C4E9152302B010BD1003002470030024F5
:1039A000513900088003002400480040006CDC020C
:1039B0002DE9F047456D0646EC6922072C6256D189
:1039C000E20548D4A00610D54FF03008002788F350
:1039D00011886B6A304696F85C101940FDF742FB7F
:1039E00087F31188EC69A306F1D4D5F800A01AF08A
:1039F000800F1DD021061BD506F1300830274FF06F
:103A0000000905E0A86289F31188EC6922060FD548
:103A100087F311884046FCF7AFFF0028F2DA08214F
:103A2000301D00F081FE2AF0800A002383F3118804
:103A30001AF0400F0BD0630609D5302383F31188A9
:103A4000D6E911239A422DD0002383F31188C5F8BB
:103A500000A0BDE8F087302383F311884FF4806124
:103A6000301D00F061FE002383F31188AAE7C4F340
:103A7000C001E3074FF030034FEA012148BF41F096
:103A80002001A70748BF41F04001600748BF41F04F
:103A9000800183F31188301D00F046FE002383F37C
:103AA00011888DE7B36B002BCED01021301D2AF08A
:103AB000400A00F039FEC7E7664A00236648D2F89C
:103AC000881070B440F2FF74644D45F250562143A3
:103AD000C2F88810D2F8881008406149C2F88800FE
:103AE000D2F88800D2F8E0002043C2F8E000D2F813
:103AF000080120435B4CC2F80801D2F808214FF6B8
:103B00008F724B608D604FF05535CB604A61564ADD
:103B100056480A62564A4A62564A0A604FF6FF7190
:103B2000554A6360A2604BF67E72E3606261534A5D
:103B30002262534A6262534A2260534C436084605B
:103B4000524CC36041610462514C524A4462524C2F
:103B5000046000F50060514C53609460504CD36099
:103B60005161146204F1F84404F5081454624D4C98
:103B700014606FF44054436002F500628460A4F165
:103B80007E54C360A4F5CB144161A4F633140462DF
:103B90004FF0CC344462444C0460444C5360946015
:103BA000434CD3605161146204F1F844A4F67744A5
:103BB000546204F15E44A4F59014A4F2AB54146072
:103BC0003C4CC0F80438C0F808484FF6BF74C0F841
:103BD0000C38C0F81448384CC0F82048374CC0F8AE
:103BE0002448374CC0F800483648C2F80438C2F8B8
:103BF00008084FF4A030344CC2F80C084FF6E370BC
:103C0000C2F814084FF08040C2F8200842F20420A5
:103C1000C2F824082D48C2F800084FF6CF7263603E
:103C20002B48A160E360626126622A4A2A4E6362E1
:103C3000266043608360C560416103624362036044
:103C400053609360D560516113625362136070BC1E
:103C5000FDF7C2BB0044025800F8FFFFFC00F3ABC5
:103C60000000025800040258B00B00B000080258CF
:103C70000AAA0A006BD5AEAACACFA0FC22606600D1
:103C80000011B0CCBA7AAFABFFCCFF03BCCCBB30D9
:103C9000CCCC0C00000C0258AABBAA023FF03FFAA1
:103CA000CC0C0050EA9FEAAAAABAAAAAFFCFCFFF7B
:103CB000CCCCCC503F0FFFFFCC0CCC005C5055C59A
:103CC000EA1A9AAA0540A100002002585ABDAEFF88
:103CD0000024025800280258A955FFFF0120704710
:103CE00000207047704700BF30B587B0114D0023EA
:103CF0000122684604242A70C5E9013300F0D4FC8F
:103D0000684600F0E1FC684600F0E4FC013CF7D1B5
:103D1000009BAB6000F032FD00F07CFD00F09EFDEA
:103D20000549064800F03AFB02232B7084F3118802
:103D300007B030BD400E00242C570008900300242B
:103D400008B5044672B600F0ADF80349034B0322F0
:103D5000C1F8E4401A70FEE790030024400E0024EE
:103D600000F088B9034A516853685B1A9842FBD83F
:103D7000704700BF001000E0024AD36B1843D063C5
:103D8000704700BF9003002438B50C4CD4F8EC50B9
:103D9000FCF7ACFCD4F8EC3004F50F61084A68601D
:103DA00050681A6860F31F2243F8102B04F1F002E8
:103DB0008B4228BF1346C4F8EC3038BD9003002472
:103DC000001000E002460749002342F8081B426049
:103DD00000EB03120133117A802B6FF30201117291
:103DE000F6D17047FFFF8000094BB3F8E820D207F7
:103DF00000D57047027F10B4D3F8EC40D30043F0F5
:103E00000103C4E9020123705DF8044BFFF7BCBF56
:103E1000900300240A4BB3F8E820920700D57047BE
:103E200010B40A7FD3F8EC40D300496B43F002038F
:103E3000C4E9020123705DF8044BFFF7A5BF00BF82
:103E4000900300240A4AB2F8E83010B513F00404D5
:103E500000D010BD302383F311880321D2F8EC3059
:103E600019709860FFF790FF84F3118810BD00BFB0
:103E7000900300240A4AB2F8E83010B513F00404A5
:103E800000D010BD302383F311880421D2F8EC3028
:103E900019709860FFF778FF84F3118810BD00BF98
:103EA00090030024064BB3F8E820120700D57047B2
:103EB000D3F8EC30052298601A70FFF765BF00BF99
:103EC00090030024F8B5154D0E462F6A05F1100336
:103ED000E961BA42C0E901322B6938BF3A46036052
:103EE0001446586028618818FCF704FCFCF7FEFBB8
:103EF000821B0346A24209D22B6A9F4200D8F8BD1A
:103F00002F620120BDE8F840FFF736BF7C1C301956
:103F100027461E46FCF7FCFBE8E700BF90030024A1
:103F20002DE9F843DFF8A49007460E46FCF7DEFBC8
:103F30004B46804653F8105F9D423BD0D9F81C4059
:103F4000AB68041B341928BF3446A34215D89C42E1
:103F500004D92D68E41AAB68A342FAD36B684FF01A
:103F6000FF32BC60C7E900531F60AB686F601B1B6A
:103F7000AB60C9F81820BDE8F883D9F82050AE42EC
:103F800038BF2E4608EB0600FCF7C2FBFCF7AEFB81
:103F9000A0EB0808464514D9D9F820309D4203D833
:103FA000D9F81050AB68D2E70120C9F82050FFF7CC
:103FB000E3FEF5E7324601463846BDE8F843FFF731
:103FC00081BF013580462E46DCE700BF9003002408
:103FD00003610023C2604361FFF7A2BFF8B5244C20
:103FE000236998420DD00368D0E9012113605A601B
:103FF0009A680A4400219A604FF0FF330160A36180
:10400000F8BD02682346002143F8102F5360016079
:1040100022699A4223D0936881680B449360FCF72D
:1040200065FBE36922690546C11A96688E42E7D9A5
:104030001E44276A361ABE4238BF3E46A819FCF70E
:1040400067FBFCF753FB451BAE420CD9236A9F422A
:10405000D6D927620120BDE8F840FFF78DBEBDE844
:10406000F840FCF74FBB013705463E46E6E700BF88
:10407000900300242DE9F84F3D4E00274FF0300902
:1040800006F1100809E087F31188D4E903312046CE
:10409000984789F311886369ABB93469FCF726FB4B
:1040A000F3690546A268C11A8A422CD89D18D4E942
:1040B0000010F56101604860276033694345E2D133
:1040C000FCF720FBDFE7FCF711FB6269A0EB050BB7
:1040D00082465A4530D3336943453FD099688A4276
:1040E00004D91B68521A99689142FAD35968A260A0
:1040F000C4E900310C6099685C60891A4FF0FF32A6
:104100009960B261C9E73169414513D01344376AF8
:10411000F0611B1ABB42A36038BF3B461C462819FE
:10412000FCF7F6FAFCF7E2FA451BAC4212D9336A07
:104130009F4209D8BDE8F88F0220FFF71DFE3369C2
:10414000434513D05A46C9E737620120BDE8F84F0E
:10415000FFF712BE013705463C46E0E72A44121A33
:1041600051462046BDE8F84FFFF7ACBE0022F7E706
:104170009003002410B530230C4683F311880B7F85
:104180000C2B10D8DFE803F02A0F0F260B070F0BBC
:104190000F0F0F0F0B004A6B936801339360D4E944
:1041A000003213605A604FF0FF3120466163FFF721
:1041B0001BFE00222369A16822771B689A688A4245
:1041C000FBD25A6800212360626014605C6081F356
:1041D000118810BD4B6B00221A60E4E7002383F3C3
:1041E000118810BD10B50446416BFFF7FDFD00229C
:1041F0002369A16822771B689A688A42FBD25A68B1
:1042000020462360626014605C6010BD0C4B4FF070
:10421000010C10B5D96882B01C6808772268204666
:10422000019153601A6084F81CC0DC60FFF7F2FD56
:104230000199204602B0BDE81040FCF7E3B800BF8A
:1042400090030024F0B54B1C1A4C89B00546E66873
:104250001DD03346184A02A8FFF7BAFEE1680122D2
:104260000D77256801912B6828465C602A772360CA
:10427000E560FFF7CFFD01992846FCF7C3F8029BE4
:1042800013B102A8FFF7AAFE706B09B0F0BD276852
:104290000122307731463B6838465C603A772360CC
:1042A000E760FFF7B7FD38463146FCF7ABF8706BB7
:1042B00009B0F0BD900300247541000870B51B4E95
:1042C00005468268F4684163A3689A421DD9616B10
:1042D0002046FFF789FD00222369A16822771B6829
:1042E0009A688A42FBD85A6821462846C4E90032B7
:1042F000146001225C602A77F560FFF78BFD214690
:104300002846BDE87040FCF77DB8FFF76DFD002240
:104310002B69A9682A771B689A688A42FBD25A6877
:10432000C5E9003215605D6070BD00BF90030024D8
:10433000044B1A68DB6890689B68984294BF002021
:10434000012070479003002438B5124B01211D68ED
:10435000DC682A68204653601A602977616BDD604B
:10436000FFF742FD00222369A16822771B689A6843
:104370008A42FBD85A68214623602846626014604E
:104380005C60FFF747FD21462846BDE83840FCF752
:1043900039B800BF90030024FEE700BFF0B52A4BF8
:1043A0000025044689B085630E46016400F130079C
:1043B000586000F08DFA04F11003A560E563E56133
:1043C000C4E904334FF0FF33A3610223C4E90C773F
:1043D0002362C4E90044FCF789F901462B4604F145
:1043E000E8000A46C4E90A23C4F8E450FFF7EAFCEF
:1043F000736801A904F194000293B36807940393CE
:10440000124B01938023CDE90555049300F024F865
:10441000626B00F12403E06001A9476282621360CD
:1044200063630123037704F144000493084B07946A
:104430000593084C0695D6E90323CDE90142039381
:1044400000F066F809B0F0BD400E002440570008A7
:104450009943000848570008022310B4D1E90142EB
:10446000C0E90542CC6883838A698460A2B10023D5
:10447000C4640124026100F13C02847709685DF89C
:10448000044BC26301620264C0E90B33C0E911331B
:1044900000F1380383637047004AE8E79003002483
:1044A0000223F0B4D1E90142C0E90542CC6883831C
:1044B0008B69846033B3C464012400F1380703615D
:1044C00084770C68046200F13C04D1E90465C0E91A
:1044D0000F440021A2F16404C0E90B11C4605C6BBD
:1044E0008763C0E9111142E90965074D00F1240114
:1044F00042F8045C03F13002C0E9092421605963E9
:10450000F0BC7047014BD6E71D040008900300245F
:1045100008B5FFF7C5FFBDE80840FFF763BE00BF61
:10452000F0B54418022183B004F8441CA4F128011A
:10453000089D44F84C0C44F8843C2048204B44F837
:10454000281C012144F8805C002544F8640CA4F187
:10455000C40044F8503CA4F1240304F8421C194957
:1045600044F8540CA4F1600044F8484C44F8582C2A
:1045700004F8435C44F81C5C44F8401C44E90933EB
:1045800044E90D55302344E9065283F3118854F869
:10459000503CA4F13C02294601905E6B03F13007C8
:1045A00044F8386C44F83C7C32605A63FFF786FE6E
:1045B00085F31188019803B0F0BD00BF1D04000809
:1045C000900300245057000838B5302383F3118836
:1045D000104BDC6804F13805A36B60639D4206D183
:1045E000A37F7BB10F20BDE83840FFF70FBE1A68EC
:1045F0001846A263FFF7F6FDA36BAB42F7D1A37F8A
:10460000002BEFD1E36A002BECD1D4E9093213601F
:104610005A60E7E79003002408B50146302383F38E
:1046200011880820FFF70EFE002383F3118808BDD0
:10463000054A0346D26821B1026003205363FFF7A5
:1046400001BE4FF0FF30704790030024034600681E
:1046500020B100221A604163FFF7C4BD704700BF5C
:10466000C0E90000704700BF084AD26859B103464C
:1046700010B4446810600420546022605DF8044B5C
:104680005A60FFF7DFBD4FF0FF3070479003002402
:1046900003460068834205D002681A605360416394
:1046A000FFF7A0BD704700BF9FED057B00234FF0D3
:1046B000FF32C0E90233C0E9002380ED047B70477C
:1046C0000000000000000000014B5B688360704741
:1046D000001000E00E4A0F4B81685B6810B49468CC
:1046E00002691B1BC4685B1A41690134D21802615C
:1046F00041F10001426841619342026888BF436012
:104700009342C0E9023438BF03605DF8044B704740
:10471000400E0024001000E00023C0E90000836088
:10472000704700BF00607047F8B50468A04220D011
:1047300007460D46002604E00B291BD02468A7423B
:1047400017D0E3682B43E36015B123691D42F5D010
:10475000D4E90102436C017F1A430A294264EBD178
:10476000416B0A42EAD04663FFF73CFD2468A7424A
:10477000E7D1F8BD416B9143E0D1F4E7024B034927
:10478000034AC3E9001270474C0E0024601F002446
:1047900000000824094B494210B45C68201A084004
:1047A0001968821A8A4205D3A24203D85DF8044BE5
:1047B0005A60704700205DF8044B70474C0E00248F
:1047C000302310B483F311880C4B49425C68201AE3
:1047D00008401968821A8A4208D3944206D35A6064
:1047E000002383F311885DF8044B704700200023F9
:1047F00083F311885DF8044B704700BF4C0E002412
:10480000034BD3E900239B1AC0E90023704700BF84
:104810004C0E002410B5084C084B204640F8043BD1
:10482000FFF7EEFF002304F11400C4E90333BDE8F1
:104830001040FFF771BF00BF540E0024C1470008AD
:1048400010B40024C0E90223C0E900415DF8044B24
:10485000704700BF0022FFF79DBF00BF10B5124C8C
:104860002046FFF759FF04F11001104B042221618B
:1048700014216018FFF7E4FF04F1240004F128017B
:104880000A4B0422C4E909011C2104F12C00FFF7A2
:10489000D7FF04F13C0104F1400204F14403C4E9F0
:1048A0000F12636410BD00BF780E00245548000845
:1048B000EFF30983054968334A6B22F001024A632A
:1048C00083F30988002383F31188704700EF00E029
:1048D0004FF0300C00B58CF3118862B6154A4FF0DA
:1048E000404100235163D363E1EE103A062383F382
:1048F0001488BFF36F8F104B4FF6FF0E0F49A2F5D0
:104900005F42D86800EA0E0001430D48D960D3F831
:10491000FC1041F08071C3F8FC10C2F8B00F2020E9
:10492000116841F001011160D87783F822C05DF869
:1049300004FB00BF00EF00E000ED00E00003FA051B
:1049400055CEACC5302383F311880F4B5B6813F44D
:10495000006302D183F31188704710B5F1EE103A6D
:10496000EFF309844FF08072084B683CE261DB6B27
:10497000236684F30988FFF7DBFC10B1044BA361C5
:1049800010BD044BA36110BD00ED00E000EF00E09E
:104990002F0400083204000808B5FBF78FFEFFF76C
:1049A000A3F900F011F800F0FBF90021054A0846D0
:1049B00000F0CAFA00F0FCF942F21070FFF72CFE8A
:1049C000FAE700BF5857000808B500F06FF800F08C
:1049D00063FB00F04FF800F0D5FABDE8084000F0A6
:1049E00001BC00BF1B4B1C4ADB681C491C481D4C0A
:1049F000DFF87C801C4D1A4E80B51A6282B0FCF73D
:104A00005DFB1A4B1F884FF00809002301AAADF87F
:104A100004708DF8063003213046A5F81A90FCF793
:104A20007BFBA5F818909DF8061014209DF805C092
:104A30000B049DF8042043EA0C23227084F801C083
:104A40001343A170C3F31303C8F80030FFF7E4FD6C
:104A5000D9E700BF90030024645700086C57000892
:104A600078020024C40E002400000258D05200082E
:104A7000C00E002430B50A4C83B001220821204624
:104A80000025FDF77DFC0822064B4FF43871228388
:104A9000802200950448FFF743FD03B030BD00BFFE
:104AA00000000258E5490008E00E00242DE9F0431B
:104AB000B54C102583B0B54F65836420FFF7ACFD7E
:104AC000258364204025FFF7A7FDB14938462026FD
:104AD000FCF7F4FAAE230DF1070201218DF807303F
:104AE000384666834FF0000865834FF07F09FCF776
:104AF000F7FAD52325830DF107028DF80730012140
:104B0000668338466583FCF7EBFA802325830DF135
:104B100007028DF807300121668338466583FCF76C
:104B2000DFFAA82325830DF107028DF80730012154
:104B3000668338466583FCF7D3FA3F2325830DF15E
:104B400007028DF807300121668338466583FCF73C
:104B5000C7FAD32325830DF107028DF80730012111
:104B6000668338466583FCF7BBFA25830DF107029F
:104B70008DF807800121668338466583FCF7B0FA1B
:104B800025830DF107028DF8075001216683384611
:104B90006583FCF7A5FA8D2325830DF107028DF8B7
:104BA00007300121668338466583FCF799FA1423A0
:104BB00025830DF107028DF8073001216683384601
:104BC0006583FCF78DFA25830DF107028DF80760E8
:104BD0000121668338466583FCF782FA0223258328
:104BE0000DF107028DF80730012166833846658391
:104BF000FCF776FAA12325830DF107028DF8073023
:104C00000121668338466583FCF76AFAC823258349
:104C10000DF107028DF80730012166833846658360
:104C2000FCF75EFADA2325830DF107028DF80730D1
:104C30000121668338466583FCF752FA12232583E7
:104C40000DF107028DF80730012166833846658330
:104C5000FCF746FA812325830DF107028DF8073012
:104C60000121668338466583FCF73AFA25830DF106
:104C700007028DF807900121668338466583FCF7AB
:104C80002FFAD92325830DF107028DF80730012172
:104C9000668338466583FCF723FAF12325830DF1FB
:104CA00007028DF807300121668338466583FCF7DB
:104CB00017FADB2325830DF107028DF80730012158
:104CC000668338466583FCF70BFA25830DF10702EE
:104CD0008DF807500121668338466583FCF700FA9A
:104CE000A42325830DF107028DF807300121668387
:104CF00038466583FCF7F4F9A62325830DF10702F6
:104D00008DF807300121668338466583FCF7E8F9A2
:104D1000212325830DF107028DF8073001216683D9
:104D200038466583FCF7DCF925830DF107028DF821
:104D300007800121668338466583FCF7D1F9258316
:104D40000DF107028DF807900121668338466583CF
:104D5000FCF7C6F9AF2325830DF107028DF8073064
:104D60003846668301216583FCF7BAF94FF4806207
:104D700041462583074800F059FA074B074A1A6055
:104D800003B0BDE8F08300BF002002587802002481
:104D900088570008C0110024C015002414580008CA
:104DA0004FF480620021014800F040BAC011002495
:104DB0002DE9F047DFF8CC9082B04FF0B0082F4CCF
:104DC0002F4F402520264FF0000A8DF807800DF167
:104DD0000702012166833846658308F10108FCF764
:104DE0007FF925830DF107028DF807A00121668365
:104DF00038466583FCF774F9102325830DF107020B
:104E00008DF8073001216683384665835FFA88F89C
:104E1000FCF766F9212325830DF107028DF8073091
:104E20000121668338466583FCF75AF925830DF125
:104E300007028DF807A00121668338466583FCF7D9
:104E40004FF97F2325830DF107028DF807300121EB
:104E5000668338466583FCF743F9802125834A46FB
:104E60002683384665838944FCF73AF9B8F1B80FD0
:104E70002583A6D102B0BDE8F08700BF002002580C
:104E800078020024C01100242DE9F84F2C4BD3F8F0
:104E900000B0BBF1000F4DD09BF806300E46924695
:104EA000934249D89BF80730934238BF4FF03F0AEE
:104EB0009BF80430002B3DD00025B046214F4FF029
:104EC00001092C462E460546DBF80C30214650469B
:104ED00098471B4BD3F800B09BF805C0BCF1000FFE
:104EE00022D000226119134602E0D3B29C451BD99F
:104EF00020FA03F40132E407F7D543447F294FEA4F
:104F0000E30E03F00704F0D83F2B01EBCE1E09FAA5
:104F100004F4EADC17F80E301C43D3B207F80E4055
:104F20009BF805C09C45E3D801369BF80430F4B2E9
:104F3000A342C9D8BDE8F88F4FF03F0AB8E700BFD9
:104F4000C0150024C0110024F8B50D4B1B68AAB190
:104F5000A3B11E7915461B7A12781E44F6B26AB1C7
:104F600004460F4608E0204639463444FFF78CFFDC
:104F700015F8012FE4B20AB12306F4D5F8BD00BF3D
:104F8000C0150024414A00234149D2F8E80040F00E
:104F9000010030B4C2F8E8004FF6FF75D2F81001F6
:104FA00040F2011440F00100C2F81001D2F81001E3
:104FB000D2F8E80040F00200C2F8E800D2F8100190
:104FC00040F00200C2F81001D2F81001D2F8E80057
:104FD00040F00400C2F8E800D2F8100140F00400EC
:104FE000C2F81001D2F81001D2F8E80040F0080031
:104FF000C2F8E800D2F8100140F00800C2F8100131
:105000000320D2F810210B604B628B62CD628C6161
:105010000B6288600B610A6842F001020A604FF07F
:105020008042136053629362D56294611362906010
:105030001361116841F00101116002F50062C2F8CC
:105040000034C2F82434C2F82834C2F82C54C2F810
:105050001844C2F82034C2F80804C2F81034D2F858
:10506000001441F00101C2F800141360536293620E
:10507000D56294611362906013611168054841F034
:10508000010143601160036030BC70470044025866
:1050900000040040C415002427490022274BD1F802
:1050A000F00040F0020030B4C1F8F000F924D1F86B
:1050B0001801234D40F00200C1F81801D1F8180181
:1050C0009A62DC629A639C691E4844F4C0449C6105
:1050D0001C6A44F010041C625C6C44F400445C6480
:1050E000DC6844F48064DC601C6844F001041C60EB
:1050F000D1F8E040144B44F40014C1F8E040D1F87A
:10510000084144F40014C1F8084140F29254D1F827
:1051100008110E4982600561416103F14B01C260D3
:1051200084601A70033303F8022C03F8012C8B42BD
:10513000F7D130BC704700BF004402580004014062
:105140003804014000540258CC15002418160024DD
:10515000F8B500210E480F4F4FF480250E4E0F4C2E
:10516000FBF7C2FC4FF400224FF48013A56101202D
:10517000A261A361FFF750FA0123064A08490448D7
:10518000FBF7C4FC3B8832203380FFF745FAE9E7A0
:1051900000000024681B00246C1B0024001C025823
:1051A000A457000810B50E4C032220212046FDF71D
:1051B000E7F8012204212046FDF7E2F80122082148
:1051C0002046FDF7DDF8012210212046FDF7D8F832
:1051D00004210822102361836283638310BD00BF12
:1051E000001C025810B5002482B0FFF7DBFF054B0E
:1051F00080224FF4787100940348FFF791F902B0D0
:1052000010BD00BF51510008801B00242038C3B2DC
:105210005E2B07D8042905D800EB8000024B03441D
:10522000585C70470020704724580008830730B549
:1052300048D0541E002A3FD0CAB2034601E0013CC8
:105240003AD303F8012B9D07F9D1032C2DD9CDB208
:1052500045EA05250F2C45EA054536D9A4F110028B
:1052600022F00F0C03F1200EE6444FEA121C03F16A
:10527000100242E9045542E9025510327245F8D154
:105280000CF1010214F00C0F03EB021204F00F0CEE
:1052900013D0ACF1040323F003030433134442F8A6
:1052A000045B9342FBD10CF003042CB1C9B21C4443
:1052B00003F8011B9C42FBD130BD64461346002C11
:1052C000F4D1F9E703461446BFE71A46A446E0E7DF
:1052D00000000000005A0008601F0024601F002426
:1052E000601F0024005A0008000000300000003059
:1052F00000000030005A00080000003000000030BC
:1053000000000030005A0008040204300402043097
:1053100004020430005A0008000000380000003881
:1053200000000038005A0008000800200008002093
:1053300000080020005A00080000000000000000E3
:1053400000000000005A000800008038000080388B
:105350000000803800000000DD3C0008E13C00084F
:105360006D0C0008310C0008B50B0008E50B0008B7
:10537000150C00084D0B0008000000000910000883
:10538000F50F0008311000081D1000082910000852
:105390001510000801100008ED0F00083D1000086E
:1053A000566563746F72463800000000566563747A
:1053B0006F72463400000000566563746F724630A9
:1053C00000000000566563746F72454300000000E2
:1053D000566563746F724230000000005665637456
:1053E0006F72444300000000566563746F72313081
:1053F00034000000566563746F723233430000005E
:10540000566563746F7238380000000000000000B9
:1054100000000000566563746F7232363000000081
:10542000566563746F7232354300000056656374CD
:105430006F72323538000000566563746F72323512
:1054400034000000566563746F723235300000001E
:10545000566563746F72323443000000566563749E
:105460006F72323438000000566563746F723234E4
:105470003400000000540258085402580000000094
:105480000058025800810000005402581C54025871
:105490000400000004580258018200000054025821
:1054A00030540258080000000858025802830000D7
:1054B00000540258445402580C0000000C58025882
:1054C0000384000000540258585402581000000091
:1054D0001058025804850000005402586C540258B9
:1054E00014000000145802580586000000540258A9
:1054F000805402581800000018580258068700000F
:1055000000540258945402581C0000001C580258C1
:1055100007880000566563746F72313538000000EB
:10552000566563746F7231353400000056656374DC
:105530006F72383000000000566563746F72374335
:1055400000000000566563746F7237380000000079
:10555000566563746F7237340000000056656374DB
:105560006F72373000000000566563746F72364307
:1055700000000000566563746F7231353000000022
:10558000566563746F723133300000005665637482
:105590006F72313243000000566563746F723132AE
:1055A00038000000566563746F72313234000000B9
:1055B000566563746F723132300000005665637453
:1055C0006F72464300000000566563746F72383492
:1055D00000000000100002400800024000080240E5
:1055E00000000B00280002400800024004080240AE
:1055F00006010C004000024008000240080802407A
:1056000010020D0058000240080002400C08024041
:1056100016030E00700002400C0002401008024009
:1056200000040F00880002400C00024014080240F1
:1056300006051000A00002400C00024018080240BD
:1056400010061100B80002400C0002401C08024085
:1056500016072F00100402400804024020080240F0
:1056600000083800280402400804024024080240D0
:10567000060939004004024008040240280802409C
:10568000100A3A0058040240080402402C08024064
:10569000160B3B00700402400C040240300802402C
:1056A000000C3C00880402400C0402403408024014
:1056B000060D4400A00402400C04024038080240D9
:1056C000100E4500B80402400C0402403C080240A1
:1056D000160F4600444D41206661696C7572650085
:1056E000566563746F723139380000005665637413
:1056F0006F72313934000000566563746F7231394E
:1057000030000000566563746F7231304300000052
:10571000566563746F724430000000005665637410
:105720006F724343000000006330000028570008F8
:105730000004002000080020800C0024400E0024FB
:105740006D61696E0000000069646C650000000016
:105750006E6F6E616D65000048454C4C4F204837B8
:1057600034330000627574746F6E730000000000C3
:105770000000000000000000000000000000000029
:105780000700004000004020000000000000000072
:1057900000000000000000000000000007000040C2
:1057A0000000402400000000010000000000000094
:1057B00000000000000000000000000000000000E9
:1057C00000000000000000000000000000000000D9
:1057D00000000000000000000000000000000000C9
:1057E000000000000000000000800200C003000074
:1057F0000000000000000000000000003578385F65
:10580000656C656B74726F6E000000003478360052
:1058100035783700105800080507207E0100000089
:105820000D520008000000000000005F00000007AB
:10583000000700147F147F14242A7F2A12231308E0
:10584000646236495522500005030000001C2241C5
:10585000000041221C0014083E081408083E0808F5
:1058600000503000000808080808006060000020B0
:10587000100804023E5149453E00427F400042610B
:105880005149462141454B311814127F1027454597
:1058900045393C4A494930017109050336494949AE
:1058A00036064949291E00363600000056360000EB
:1058B0000814224100141414141400412214080284
:1058C00001510906324979413E7E1111117E7F490D
:1058D0004949363E414141227F4141221C7F49498D
:1058E00049417F090909013E4149497A7F08080871
:1058F0007F00417F41002040413F017F0814224149
:105900007F404040407F020C027F7F0408107F3EB2
:105910004141413E7F090909063E4151215E7F090F
:10592000192946464949493101017F01013F40405B
:10593000403F1F2040201F3F4038403F6314081461
:105940006307087008076151494543007F414100E2
:1059500002040810200041417F00040201020440BB
:1059600040404040000102040020545454787F48D5
:105970004444383844444420384444487F385454DC
:105980005418087E0901020C5252523E7F0804044A
:105990007800447D40002040443D007F10284400B2
:1059A00000417F40007C041804787C0804047838A7
:1059B000444444387C14141408081414187C7C08DB
:1059C0000404084854545420043F4440203C4040C0
:1059D000207C1C2040201C3C4030403C44281028A7
:1059E000440C5050503C4464544C44000836410030
:1059F00000007F000000413608000804081008007D
:04000005080003FDEF
:00000001FF
